{"abi":[{"type":"function","name":"balanceOf","inputs":[{"name":"_owner","type":"address","internalType":"address"}],"outputs":[{"name":"","type":"uint256","internalType":"uint256"}],"stateMutability":"view"},{"type":"function","name":"decimals","inputs":[],"outputs":[{"name":"","type":"uint8","internalType":"uint8"}],"stateMutability":"pure"},{"type":"function","name":"name","inputs":[],"outputs":[{"name":"","type":"string","internalType":"string"}],"stateMutability":"pure"},{"type":"function","name":"totalSupply","inputs":[],"outputs":[{"name":"","type":"uint256","internalType":"uint256"}],"stateMutability":"pure"},{"type":"function","name":"transfer","inputs":[{"name":"_to","type":"address","internalType":"address"},{"name":"_amount","type":"uint256","internalType":"uint256"}],"outputs":[],"stateMutability":"nonpayable"}],"bytecode":{"object":"0x608060405234801561001057600080fd5b5061057d806100206000396000f3fe608060405234801561001057600080fd5b50600436106100575760003560e01c806306fdde031461005c57806318160ddd1461007a578063313ce5671461009857806370a08231146100b6578063a9059cbb146100e6575b600080fd5b610064610102565b6040516100719190610327565b60405180910390f35b61008261013f565b60405161008f9190610362565b60405180910390f35b6100a0610150565b6040516100ad9190610399565b60405180910390f35b6100d060048036038101906100cb9190610417565b610159565b6040516100dd9190610362565b60405180910390f35b61010060048036038101906100fb9190610470565b6101a1565b005b60606040518060400160405280600681526020017f7370697269740000000000000000000000000000000000000000000000000000815250905090565b600068056bc75e2d63100000905090565b60006012905090565b60008060008373ffffffffffffffffffffffffffffffffffffffff1673ffffffffffffffffffffffffffffffffffffffff168152602001908152602001600020549050919050565b60006101ac83610159565b6101b533610159565b6101bf91906104df565b9050816000803373ffffffffffffffffffffffffffffffffffffffff1673ffffffffffffffffffffffffffffffffffffffff168152602001908152602001600020600082825461020f9190610513565b92505081905550816000808573ffffffffffffffffffffffffffffffffffffffff1673ffffffffffffffffffffffffffffffffffffffff168152602001908152602001600020600082825461026491906104df565b925050819055508061027584610159565b61027e33610159565b61028891906104df565b1461029257600080fd5b505050565b600081519050919050565b600082825260208201905092915050565b60005b838110156102d15780820151818401526020810190506102b6565b60008484015250505050565b6000601f19601f8301169050919050565b60006102f982610297565b61030381856102a2565b93506103138185602086016102b3565b61031c816102dd565b840191505092915050565b6000602082019050818103600083015261034181846102ee565b905092915050565b6000819050919050565b61035c81610349565b82525050565b60006020820190506103776000830184610353565b92915050565b600060ff82169050919050565b6103938161037d565b82525050565b60006020820190506103ae600083018461038a565b92915050565b600080fd5b600073ffffffffffffffffffffffffffffffffffffffff82169050919050565b60006103e4826103b9565b9050919050565b6103f4816103d9565b81146103ff57600080fd5b50565b600081359050610411816103eb565b92915050565b60006020828403121561042d5761042c6103b4565b5b600061043b84828501610402565b91505092915050565b61044d81610349565b811461045857600080fd5b50565b60008135905061046a81610444565b92915050565b60008060408385031215610487576104866103b4565b5b600061049585828601610402565b92505060206104a68582860161045b565b9150509250929050565b7f4e487b7100000000000000000000000000000000000000000000000000000000600052601160045260246000fd5b60006104ea82610349565b91506104f583610349565b925082820190508082111561050d5761050c6104b0565b5b92915050565b600061051e82610349565b915061052983610349565b9250828203905081811115610541576105406104b0565b5b9291505056fea26469706673582212203bad5f56604dbd03e4284e501bf8a92992bac54c83abffcb4fb7868faa97519e64736f6c63430008130033","linkReferences":{}},"methodIdentifiers":{"balanceOf(address)":"70a08231","decimals()":"313ce567","name()":"06fdde03","totalSupply()":"18160ddd","transfer(address,uint256)":"a9059cbb"},"id":29}