{"abi":[{"type":"constructor","inputs":[{"name":"entryFee","type":"uint256","internalType":"uint256"},{"name":"interval","type":"uint256","internalType":"uint256"},{"name":"vrfCoordinator","type":"address","internalType":"address"},{"name":"gasLane","type":"bytes32","internalType":"bytes32"},{"name":"subscribId","type":"uint256","internalType":"uint256"},{"name":"callBackGasLimit","type":"uint32","internalType":"uint32"}],"stateMutability":"nonpayable"},{"type":"function","name":"acceptOwnership","inputs":[],"outputs":[],"stateMutability":"nonpayable"},{"type":"function","name":"enterRaffle","inputs":[],"outputs":[],"stateMutability":"payable"},{"type":"function","name":"getEntryFee","inputs":[],"outputs":[{"name":"","type":"uint256","internalType":"uint256"}],"stateMutability":"view"},{"type":"function","name":"owner","inputs":[],"outputs":[{"name":"","type":"address","internalType":"address"}],"stateMutability":"view"},{"type":"function","name":"pickWinner","inputs":[],"outputs":[],"stateMutability":"nonpayable"},{"type":"function","name":"rawFulfillRandomWords","inputs":[{"name":"requestId","type":"uint256","internalType":"uint256"},{"name":"randomWords","type":"uint256[]","internalType":"uint256[]"}],"outputs":[],"stateMutability":"nonpayable"},{"type":"function","name":"s_vrfCoordinator","inputs":[],"outputs":[{"name":"","type":"address","internalType":"contract IVRFCoordinatorV2Plus"}],"stateMutability":"view"},{"type":"function","name":"setCoordinator","inputs":[{"name":"_vrfCoordinator","type":"address","internalType":"address"}],"outputs":[],"stateMutability":"nonpayable"},{"type":"function","name":"transferOwnership","inputs":[{"name":"to","type":"address","internalType":"address"}],"outputs":[],"stateMutability":"nonpayable"},{"type":"event","name":"OwnershipTransferRequested","inputs":[{"name":"from","type":"address","indexed":true,"internalType":"address"},{"name":"to","type":"address","indexed":true,"internalType":"address"}],"anonymous":false},{"type":"event","name":"OwnershipTransferred","inputs":[{"name":"from","type":"address","indexed":true,"internalType":"address"},{"name":"to","type":"address","indexed":true,"internalType":"address"}],"anonymous":false},{"type":"event","name":"RaffleEnterPlayer","inputs":[{"name":"player","type":"address","indexed":true,"internalType":"address"}],"anonymous":false},{"type":"event","name":"WinnerPicked","inputs":[{"name":"winner","type":"address","indexed":true,"internalType":"address"}],"anonymous":false},{"type":"error","name":"OnlyCoordinatorCanFulfill","inputs":[{"name":"have","type":"address","internalType":"address"},{"name":"want","type":"address","internalType":"address"}]},{"type":"error","name":"OnlyOwnerOrCoordinator","inputs":[{"name":"have","type":"address","internalType":"address"},{"name":"owner","type":"address","internalType":"address"},{"name":"coordinator","type":"address","internalType":"address"}]},{"type":"error","name":"Raffle__LotteryEntryClosed","inputs":[]},{"type":"error","name":"Raffle__NotEnoughEthSent","inputs":[]},{"type":"error","name":"Raffle__WinnerTransactionFailed","inputs":[]},{"type":"error","name":"ZeroAddress","inputs":[]}],"bytecode":{"object":"0x61012060405234801561001157600080fd5b50604051610dd9380380610dd9833981016040819052610030916101b7565b8333806000816100875760405162461bcd60e51b815260206004820152601860248201527f43616e6e6f7420736574206f776e657220746f207a65726f000000000000000060448201526064015b60405180910390fd5b600080546001600160a01b0319166001600160a01b03848116919091179091558116156100b7576100b78161010e565b5050600280546001600160a01b0319166001600160a01b0393909316929092179091555060a09590955260c09390935260e052506101005263ffffffff16608052426003556005805460ff60a01b1916905561022d565b336001600160a01b038216036101665760405162461bcd60e51b815260206004820152601760248201527f43616e6e6f74207472616e7366657220746f2073656c66000000000000000000604482015260640161007e565b600180546001600160a01b0319166001600160a01b0383811691821790925560008054604051929316917fed8889f560326eb138920d842192f0eb3dd22b4f139c87a2c57538e05bae12789190a350565b60008060008060008060c087890312156101d057600080fd5b86516020880151604089015191975095506001600160a01b03811681146101f657600080fd5b80945050606087015192506080870151915060a087015163ffffffff8116811461021f57600080fd5b809150509295509295509295565b60805160a05160c05160e05161010051610b61610278600039600061036d0152600061034a015260006102f301526000818161016801526102060152600061039d0152610b616000f3fe6080604052600436106100865760003560e01c80638da5cb5b116100595780638da5cb5b146100df5780638ea98117146101165780639eccacf614610136578063e586a4f014610156578063f2fde38b1461019157600080fd5b80631fe543e31461008b5780632cfcc539146100ad5780635d495aea146100b557806379ba5097146100ca575b600080fd5b34801561009757600080fd5b506100ab6100a6366004610907565b6101b1565b005b6100ab610204565b3480156100c157600080fd5b506100ab6102f1565b3480156100d657600080fd5b506100ab61046a565b3480156100eb57600080fd5b506000546001600160a01b03165b6040516001600160a01b0390911681526020015b60405180910390f35b34801561012257600080fd5b506100ab6101313660046109d1565b610514565b34801561014257600080fd5b506002546100f9906001600160a01b031681565b34801561016257600080fd5b506040517f0000000000000000000000000000000000000000000000000000000000000000815260200161010d565b34801561019d57600080fd5b506100ab6101ac3660046109d1565b6105ad565b6002546001600160a01b031633146101f65760025460405163073e64fd60e21b81523360048201526001600160a01b0390911660248201526044015b60405180910390fd5b61020082826105c1565b5050565b7f00000000000000000000000000000000000000000000000000000000000000003410156102455760405163246b904d60e01b815260040160405180910390fd5b6000600554600160a01b900460ff16600181111561026557610265610a01565b14610283576040516334c0a68360e01b815260040160405180910390fd5b6004805460018101825560009182527f8a35acfbc15ff81a39ae7d344fd709f28e8600b4aa8c65c6b64bfe7fe36bd19b0180546001600160a01b0319163390811790915560405190917fdb99b71fc84058591be274040067d6bdadf04c3583f1d1660b6a57d8a6e7babd91a2565b7f0000000000000000000000000000000000000000000000000000000000000000600354426103209190610a17565b101561032b57600080fd5b6005805460ff60a01b1916600160a01b1790556040805160c0810182527f000000000000000000000000000000000000000000000000000000000000000081527f00000000000000000000000000000000000000000000000000000000000000006020808301919091526003828401527f000000000000000000000000000000000000000000000000000000000000000063ffffffff16606083015260016080830152825190810190925260008083529160a08201906103ea90610708565b9052600254604051634d8e1c2f60e11b81529192506000916001600160a01b0390911690639b1c385e90610422908590600401610a3e565b6020604051808303816000875af1158015610441573d6000803e3d6000fd5b505050506040513d601f19601f820116820180604052508101906104659190610ada565b505050565b6001546001600160a01b031633146104bd5760405162461bcd60e51b815260206004820152601660248201527526bab9ba10313290383937b837b9b2b21037bbb732b960511b60448201526064016101ed565b60008054336001600160a01b0319808316821784556001805490911690556040516001600160a01b0390921692909183917f8be0079c531659141344cd1fd0a4f28419497f9722a3daafe3b4186f6b6457e091a350565b6000546001600160a01b0316331480159061053a57506002546001600160a01b03163314155b1561058b57336105526000546001600160a01b031690565b60025460405163061db9c160e01b81526001600160a01b03938416600482015291831660248301529190911660448201526064016101ed565b600280546001600160a01b0319166001600160a01b0392909216919091179055565b6105b5610779565b6105be816107ce565b50565b6000600480549050826000815181106105dc576105dc610af3565b60200260200101516105ee9190610b09565b905060006004828154811061060557610605610af3565b600091825260208083209190910154600580546001600160a81b0319166001600160a01b039092169182179055604080519384529183019182905291519192506106529160049190610877565b50426003556040516000906001600160a01b0383169047908381818185875af1925050503d80600081146106a2576040519150601f19603f3d011682016040523d82523d6000602084013e6106a7565b606091505b50509050806106c957604051630e3fc90b60e01b815260040160405180910390fd5b6005546040516001600160a01b03909116907f5b690ec4a06fe979403046eaeea5b3ce38524683c3001f662c8b5a829632f7df90600090a25050505050565b60607f92fd13387c7fe7befbc38d303d6468778fb9731bc4583f17d92989c6fcfdeaaa8260405160240161074191511515815260200190565b60408051601f198184030181529190526020810180516001600160e01b03166001600160e01b03199093169290921790915292915050565b6000546001600160a01b031633146107cc5760405162461bcd60e51b815260206004820152601660248201527527b7363c9031b0b63630b1363290313c9037bbb732b960511b60448201526064016101ed565b565b336001600160a01b038216036108265760405162461bcd60e51b815260206004820152601760248201527f43616e6e6f74207472616e7366657220746f2073656c6600000000000000000060448201526064016101ed565b600180546001600160a01b0319166001600160a01b0383811691821790925560008054604051929316917fed8889f560326eb138920d842192f0eb3dd22b4f139c87a2c57538e05bae12789190a350565b8280548282559060005260206000209081019282156108cc579160200282015b828111156108cc57825182546001600160a01b0319166001600160a01b03909116178255602090920191600190910190610897565b506108d89291506108dc565b5090565b5b808211156108d857600081556001016108dd565b634e487b7160e01b600052604160045260246000fd5b6000806040838503121561091a57600080fd5b8235915060208084013567ffffffffffffffff8082111561093a57600080fd5b818601915086601f83011261094e57600080fd5b813581811115610960576109606108f1565b8060051b604051601f19603f83011681018181108582111715610985576109856108f1565b6040529182528482019250838101850191898311156109a357600080fd5b938501935b828510156109c1578435845293850193928501926109a8565b8096505050505050509250929050565b6000602082840312156109e357600080fd5b81356001600160a01b03811681146109fa57600080fd5b9392505050565b634e487b7160e01b600052602160045260246000fd5b81810381811115610a3857634e487b7160e01b600052601160045260246000fd5b92915050565b6000602080835283518184015280840151604084015261ffff6040850151166060840152606084015163ffffffff80821660808601528060808701511660a0860152505060a084015160c08085015280518060e086015260005b81811015610ab55782810184015186820161010001528301610a98565b506101009250600083828701015282601f19601f830116860101935050505092915050565b600060208284031215610aec57600080fd5b5051919050565b634e487b7160e01b600052603260045260246000fd5b600082610b2657634e487b7160e01b600052601260045260246000fd5b50069056fea2646970667358221220d5c03ddc554b1fdd031a30e14bc0758b4e44f43e87f1efa6fd9a9c3dd05e442964736f6c63430008130033","linkReferences":{}},"methodIdentifiers":{"acceptOwnership()":"79ba5097","enterRaffle()":"2cfcc539","getEntryFee()":"e586a4f0","owner()":"8da5cb5b","pickWinner()":"5d495aea","rawFulfillRandomWords(uint256,uint256[])":"1fe543e3","s_vrfCoordinator()":"9eccacf6","setCoordinator(address)":"8ea98117","transferOwnership(address)":"f2fde38b"},"id":8}