{"abi":[{"type":"constructor","inputs":[{"name":"entryFee","type":"uint256","internalType":"uint256"},{"name":"interval","type":"uint256","internalType":"uint256"},{"name":"vrfCoordinator","type":"address","internalType":"address"},{"name":"gasLane","type":"bytes32","internalType":"bytes32"},{"name":"subscribId","type":"uint256","internalType":"uint256"},{"name":"callBackGasLimit","type":"uint32","internalType":"uint32"}],"stateMutability":"nonpayable"},{"type":"function","name":"acceptOwnership","inputs":[],"outputs":[],"stateMutability":"nonpayable"},{"type":"function","name":"checkUpKeep","inputs":[{"name":"","type":"bytes","internalType":"bytes"}],"outputs":[{"name":"upkeepNeeded","type":"bool","internalType":"bool"},{"name":"","type":"bytes","internalType":"bytes"}],"stateMutability":"view"},{"type":"function","name":"enterRaffle","inputs":[],"outputs":[],"stateMutability":"payable"},{"type":"function","name":"getEntryFee","inputs":[],"outputs":[{"name":"","type":"uint256","internalType":"uint256"}],"stateMutability":"view"},{"type":"function","name":"owner","inputs":[],"outputs":[{"name":"","type":"address","internalType":"address"}],"stateMutability":"view"},{"type":"function","name":"performUpkeep","inputs":[{"name":"","type":"bytes","internalType":"bytes"}],"outputs":[],"stateMutability":"nonpayable"},{"type":"function","name":"rawFulfillRandomWords","inputs":[{"name":"requestId","type":"uint256","internalType":"uint256"},{"name":"randomWords","type":"uint256[]","internalType":"uint256[]"}],"outputs":[],"stateMutability":"nonpayable"},{"type":"function","name":"s_vrfCoordinator","inputs":[],"outputs":[{"name":"","type":"address","internalType":"contract IVRFCoordinatorV2Plus"}],"stateMutability":"view"},{"type":"function","name":"setCoordinator","inputs":[{"name":"_vrfCoordinator","type":"address","internalType":"address"}],"outputs":[],"stateMutability":"nonpayable"},{"type":"function","name":"transferOwnership","inputs":[{"name":"to","type":"address","internalType":"address"}],"outputs":[],"stateMutability":"nonpayable"},{"type":"event","name":"OwnershipTransferRequested","inputs":[{"name":"from","type":"address","indexed":true,"internalType":"address"},{"name":"to","type":"address","indexed":true,"internalType":"address"}],"anonymous":false},{"type":"event","name":"OwnershipTransferred","inputs":[{"name":"from","type":"address","indexed":true,"internalType":"address"},{"name":"to","type":"address","indexed":true,"internalType":"address"}],"anonymous":false},{"type":"event","name":"RaffleEnterPlayer","inputs":[{"name":"player","type":"address","indexed":true,"internalType":"address"}],"anonymous":false},{"type":"event","name":"WinnerPicked","inputs":[{"name":"winner","type":"address","indexed":true,"internalType":"address"}],"anonymous":false},{"type":"error","name":"OnlyCoordinatorCanFulfill","inputs":[{"name":"have","type":"address","internalType":"address"},{"name":"want","type":"address","internalType":"address"}]},{"type":"error","name":"OnlyOwnerOrCoordinator","inputs":[{"name":"have","type":"address","internalType":"address"},{"name":"owner","type":"address","internalType":"address"},{"name":"coordinator","type":"address","internalType":"address"}]},{"type":"error","name":"Raffle__LotteryEntryClosed","inputs":[]},{"type":"error","name":"Raffle__NotEnoughEthSent","inputs":[]},{"type":"error","name":"Raffle__WinnerTransactionFailed","inputs":[]},{"type":"error","name":"Raffle__upkeepNotNeeded","inputs":[{"name":"balance","type":"uint256","internalType":"uint256"},{"name":"playersLength","type":"uint256","internalType":"uint256"},{"name":"s_raffleState","type":"uint256","internalType":"uint256"}]},{"type":"error","name":"ZeroAddress","inputs":[]}],"bytecode":{"object":"0x61012060405234801561001157600080fd5b50604051611043380380611043833981016040819052610030916101b7565b8333806000816100875760405162461bcd60e51b815260206004820152601860248201527f43616e6e6f7420736574206f776e657220746f207a65726f000000000000000060448201526064015b60405180910390fd5b600080546001600160a01b0319166001600160a01b03848116919091179091558116156100b7576100b78161010e565b5050600280546001600160a01b0319166001600160a01b0393909316929092179091555060a09590955260c09390935260e052506101005263ffffffff16608052426003556005805460ff60a01b1916905561022d565b336001600160a01b038216036101665760405162461bcd60e51b815260206004820152601760248201527f43616e6e6f74207472616e7366657220746f2073656c66000000000000000000604482015260640161007e565b600180546001600160a01b0319166001600160a01b0383811691821790925560008054604051929316917fed8889f560326eb138920d842192f0eb3dd22b4f139c87a2c57538e05bae12789190a350565b60008060008060008060c087890312156101d057600080fd5b86516020880151604089015191975095506001600160a01b03811681146101f657600080fd5b80945050606087015192506080870151915060a087015163ffffffff8116811461021f57600080fd5b809150509295509295509295565b60805160a05160c05160e05161010051610dcb61027860003960006103eb015260006103c8015260006104ed0152600081816101b0015261024e0152600061041b0152610dcb6000f3fe6080604052600436106100915760003560e01c80638da5cb5b116100595780638da5cb5b1461012c5780638ea981171461015e5780639eccacf61461017e578063e586a4f01461019e578063f2fde38b146101d957600080fd5b80631fe543e3146100965780632cfcc539146100b85780634585e33b146100c05780635e6c102e146100e057806379ba509714610117575b600080fd5b3480156100a257600080fd5b506100b66100b1366004610a58565b6101f9565b005b6100b661024c565b3480156100cc57600080fd5b506100b66100db366004610b0a565b610339565b3480156100ec57600080fd5b506101006100fb366004610b7c565b6104e5565b60405161010e929190610c57565b60405180910390f35b34801561012357600080fd5b506100b661058f565b34801561013857600080fd5b506000546001600160a01b03165b6040516001600160a01b03909116815260200161010e565b34801561016a57600080fd5b506100b6610179366004610c7a565b610639565b34801561018a57600080fd5b50600254610146906001600160a01b031681565b3480156101aa57600080fd5b506040517f0000000000000000000000000000000000000000000000000000000000000000815260200161010e565b3480156101e557600080fd5b506100b66101f4366004610c7a565b6106d2565b6002546001600160a01b0316331461023e5760025460405163073e64fd60e21b81523360048201526001600160a01b0390911660248201526044015b60405180910390fd5b61024882826106e6565b5050565b7f000000000000000000000000000000000000000000000000000000000000000034101561028d5760405163246b904d60e01b815260040160405180910390fd5b6000600554600160a01b900460ff1660018111156102ad576102ad610caa565b146102cb576040516334c0a68360e01b815260040160405180910390fd5b6004805460018101825560009182527f8a35acfbc15ff81a39ae7d344fd709f28e8600b4aa8c65c6b64bfe7fe36bd19b0180546001600160a01b0319163390811790915560405190917fdb99b71fc84058591be274040067d6bdadf04c3583f1d1660b6a57d8a6e7babd91a2565b6000610353604051806020016040528060008152506104e5565b509050806103a957600454600554479190600160a01b900460ff16600181111561037f5761037f610caa565b60405163837325cd60e01b8152600481019390935260248301919091526044820152606401610235565b6005805460ff60a01b1916600160a01b1790556040805160c0810182527f000000000000000000000000000000000000000000000000000000000000000081527f00000000000000000000000000000000000000000000000000000000000000006020808301919091526003828401527f000000000000000000000000000000000000000000000000000000000000000063ffffffff16606083015260016080830152825190810190925260008083529160a082019061046890610828565b9052600254604051634d8e1c2f60e11b81529192506001600160a01b031690639b1c385e9061049b908490600401610cc0565b6020604051808303816000875af11580156104ba573d6000803e3d6000fd5b505050506040513d601f19601f820116820180604052508101906104de9190610d1d565b5050505050565b6000606060007f00000000000000000000000000000000000000000000000000000000000000006003544261051a9190610d36565b109050600080600554600160a01b900460ff16600181111561053e5761053e610caa565b600454911491504715159015158380156105555750825b801561055e5750815b80156105675750805b60408051808201909152600381526203078360ec1b6020820152909890975095505050505050565b6001546001600160a01b031633146105e25760405162461bcd60e51b815260206004820152601660248201527526bab9ba10313290383937b837b9b2b21037bbb732b960511b6044820152606401610235565b60008054336001600160a01b0319808316821784556001805490911690556040516001600160a01b0390921692909183917f8be0079c531659141344cd1fd0a4f28419497f9722a3daafe3b4186f6b6457e091a350565b6000546001600160a01b0316331480159061065f57506002546001600160a01b03163314155b156106b057336106776000546001600160a01b031690565b60025460405163061db9c160e01b81526001600160a01b0393841660048201529183166024830152919091166044820152606401610235565b600280546001600160a01b0319166001600160a01b0392909216919091179055565b6106da610899565b6106e3816108ee565b50565b60006004805490508260008151811061070157610701610d5d565b60200260200101516107139190610d73565b905060006004828154811061072a5761072a610d5d565b600091825260208083209190910154600580546001600160a81b0319166001600160a01b039092169182179055604080519384529183019182905291519192506107779160049190610997565b50426003556005546040516001600160a01b03909116907f5b690ec4a06fe979403046eaeea5b3ce38524683c3001f662c8b5a829632f7df90600090a26000816001600160a01b03164760405160006040518083038185875af1925050503d8060008114610801576040519150601f19603f3d011682016040523d82523d6000602084013e610806565b606091505b50509050806104de57604051630e3fc90b60e01b815260040160405180910390fd5b60607f92fd13387c7fe7befbc38d303d6468778fb9731bc4583f17d92989c6fcfdeaaa8260405160240161086191511515815260200190565b60408051601f198184030181529190526020810180516001600160e01b03166001600160e01b03199093169290921790915292915050565b6000546001600160a01b031633146108ec5760405162461bcd60e51b815260206004820152601660248201527527b7363c9031b0b63630b1363290313c9037bbb732b960511b6044820152606401610235565b565b336001600160a01b038216036109465760405162461bcd60e51b815260206004820152601760248201527f43616e6e6f74207472616e7366657220746f2073656c660000000000000000006044820152606401610235565b600180546001600160a01b0319166001600160a01b0383811691821790925560008054604051929316917fed8889f560326eb138920d842192f0eb3dd22b4f139c87a2c57538e05bae12789190a350565b8280548282559060005260206000209081019282156109ec579160200282015b828111156109ec57825182546001600160a01b0319166001600160a01b039091161782556020909201916001909101906109b7565b506109f89291506109fc565b5090565b5b808211156109f857600081556001016109fd565b634e487b7160e01b600052604160045260246000fd5b604051601f8201601f1916810167ffffffffffffffff81118282101715610a5057610a50610a11565b604052919050565b60008060408385031215610a6b57600080fd5b8235915060208084013567ffffffffffffffff80821115610a8b57600080fd5b818601915086601f830112610a9f57600080fd5b813581811115610ab157610ab1610a11565b8060051b9150610ac2848301610a27565b8181529183018401918481019089841115610adc57600080fd5b938501935b83851015610afa57843582529385019390850190610ae1565b8096505050505050509250929050565b60008060208385031215610b1d57600080fd5b823567ffffffffffffffff80821115610b3557600080fd5b818501915085601f830112610b4957600080fd5b813581811115610b5857600080fd5b866020828501011115610b6a57600080fd5b60209290920196919550909350505050565b60006020808385031215610b8f57600080fd5b823567ffffffffffffffff80821115610ba757600080fd5b818501915085601f830112610bbb57600080fd5b813581811115610bcd57610bcd610a11565b610bdf601f8201601f19168501610a27565b91508082528684828501011115610bf557600080fd5b8084840185840137600090820190930192909252509392505050565b6000815180845260005b81811015610c3757602081850181015186830182015201610c1b565b506000602082860101526020601f19601f83011685010191505092915050565b8215158152604060208201526000610c726040830184610c11565b949350505050565b600060208284031215610c8c57600080fd5b81356001600160a01b0381168114610ca357600080fd5b9392505050565b634e487b7160e01b600052602160045260246000fd5b60208152815160208201526020820151604082015261ffff60408301511660608201526000606083015163ffffffff80821660808501528060808601511660a0850152505060a083015160c080840152610c7260e0840182610c11565b600060208284031215610d2f57600080fd5b5051919050565b81810381811115610d5757634e487b7160e01b600052601160045260246000fd5b92915050565b634e487b7160e01b600052603260045260246000fd5b600082610d9057634e487b7160e01b600052601260045260246000fd5b50069056fea2646970667358221220356bf5d7850d485443671987dee46ddde188ba42add0db03d705b0a5fad03d7064736f6c63430008130033","linkReferences":{}},"methodIdentifiers":{"acceptOwnership()":"79ba5097","checkUpKeep(bytes)":"5e6c102e","enterRaffle()":"2cfcc539","getEntryFee()":"e586a4f0","owner()":"8da5cb5b","performUpkeep(bytes)":"4585e33b","rawFulfillRandomWords(uint256,uint256[])":"1fe543e3","s_vrfCoordinator()":"9eccacf6","setCoordinator(address)":"8ea98117","transferOwnership(address)":"f2fde38b"},"id":28}