{"abi":[{"type":"constructor","inputs":[{"name":"entryFee","type":"uint256","internalType":"uint256"},{"name":"interval","type":"uint256","internalType":"uint256"},{"name":"vrfCoordinator","type":"address","internalType":"address"},{"name":"gasLane","type":"bytes32","internalType":"bytes32"},{"name":"subscribId","type":"uint256","internalType":"uint256"},{"name":"callBackGasLimit","type":"uint32","internalType":"uint32"}],"stateMutability":"nonpayable"},{"type":"function","name":"acceptOwnership","inputs":[],"outputs":[],"stateMutability":"nonpayable"},{"type":"function","name":"checkUpKeep","inputs":[{"name":"","type":"bytes","internalType":"bytes"}],"outputs":[{"name":"upkeepNeeded","type":"bool","internalType":"bool"},{"name":"","type":"bytes","internalType":"bytes"}],"stateMutability":"view"},{"type":"function","name":"enterRaffle","inputs":[],"outputs":[],"stateMutability":"payable"},{"type":"function","name":"getEntryFee","inputs":[],"outputs":[{"name":"","type":"uint256","internalType":"uint256"}],"stateMutability":"view"},{"type":"function","name":"getPlayer","inputs":[{"name":"indexOfPlayer","type":"uint256","internalType":"uint256"}],"outputs":[{"name":"","type":"address","internalType":"address"}],"stateMutability":"view"},{"type":"function","name":"getRaffleState","inputs":[],"outputs":[{"name":"","type":"uint8","internalType":"enum Raffle.RaffleState"}],"stateMutability":"view"},{"type":"function","name":"getRecentWinner","inputs":[],"outputs":[{"name":"","type":"address","internalType":"address"}],"stateMutability":"view"},{"type":"function","name":"getTimeStamp","inputs":[],"outputs":[{"name":"","type":"uint256","internalType":"uint256"}],"stateMutability":"view"},{"type":"function","name":"owner","inputs":[],"outputs":[{"name":"","type":"address","internalType":"address"}],"stateMutability":"view"},{"type":"function","name":"performUpkeep","inputs":[{"name":"","type":"bytes","internalType":"bytes"}],"outputs":[],"stateMutability":"nonpayable"},{"type":"function","name":"rawFulfillRandomWords","inputs":[{"name":"requestId","type":"uint256","internalType":"uint256"},{"name":"randomWords","type":"uint256[]","internalType":"uint256[]"}],"outputs":[],"stateMutability":"nonpayable"},{"type":"function","name":"s_vrfCoordinator","inputs":[],"outputs":[{"name":"","type":"address","internalType":"contract IVRFCoordinatorV2Plus"}],"stateMutability":"view"},{"type":"function","name":"setCoordinator","inputs":[{"name":"_vrfCoordinator","type":"address","internalType":"address"}],"outputs":[],"stateMutability":"nonpayable"},{"type":"function","name":"transferOwnership","inputs":[{"name":"to","type":"address","internalType":"address"}],"outputs":[],"stateMutability":"nonpayable"},{"type":"event","name":"OwnershipTransferRequested","inputs":[{"name":"from","type":"address","indexed":true,"internalType":"address"},{"name":"to","type":"address","indexed":true,"internalType":"address"}],"anonymous":false},{"type":"event","name":"OwnershipTransferred","inputs":[{"name":"from","type":"address","indexed":true,"internalType":"address"},{"name":"to","type":"address","indexed":true,"internalType":"address"}],"anonymous":false},{"type":"event","name":"RaffleEnterPlayer","inputs":[{"name":"player","type":"address","indexed":true,"internalType":"address"}],"anonymous":false},{"type":"event","name":"RequestedWinnerId","inputs":[{"name":"requestId","type":"uint256","indexed":true,"internalType":"uint256"}],"anonymous":false},{"type":"event","name":"WinnerPicked","inputs":[{"name":"winner","type":"address","indexed":true,"internalType":"address"}],"anonymous":false},{"type":"error","name":"OnlyCoordinatorCanFulfill","inputs":[{"name":"have","type":"address","internalType":"address"},{"name":"want","type":"address","internalType":"address"}]},{"type":"error","name":"OnlyOwnerOrCoordinator","inputs":[{"name":"have","type":"address","internalType":"address"},{"name":"owner","type":"address","internalType":"address"},{"name":"coordinator","type":"address","internalType":"address"}]},{"type":"error","name":"Raffle__LotteryEntryClosed","inputs":[]},{"type":"error","name":"Raffle__NotEnoughEthSent","inputs":[]},{"type":"error","name":"Raffle__WinnerTransactionFailed","inputs":[]},{"type":"error","name":"Raffle__upkeepNotNeeded","inputs":[{"name":"balance","type":"uint256","internalType":"uint256"},{"name":"playersLength","type":"uint256","internalType":"uint256"},{"name":"s_raffleState","type":"uint256","internalType":"uint256"}]},{"type":"error","name":"ZeroAddress","inputs":[]}],"bytecode":{"object":"0x6101206040523480156200001257600080fd5b50604051620023da380380620023da833981810160405281019062000038919062000440565b83338060008073ffffffffffffffffffffffffffffffffffffffff168273ffffffffffffffffffffffffffffffffffffffff1603620000ae576040517f08c379a0000000000000000000000000000000000000000000000000000000008152600401620000a5906200053d565b60405180910390fd5b816000806101000a81548173ffffffffffffffffffffffffffffffffffffffff021916908373ffffffffffffffffffffffffffffffffffffffff160217905550600073ffffffffffffffffffffffffffffffffffffffff168173ffffffffffffffffffffffffffffffffffffffff161462000135576200013481620001f060201b60201c565b5b50505080600260006101000a81548173ffffffffffffffffffffffffffffffffffffffff021916908373ffffffffffffffffffffffffffffffffffffffff160217905550508560a081815250508460c081815250508260e081815250508161010081815250508063ffffffff1660808163ffffffff1681525050426003819055506000600560146101000a81548160ff02191690836001811115620001df57620001de6200055f565b5b021790555050505050505062000600565b3373ffffffffffffffffffffffffffffffffffffffff168173ffffffffffffffffffffffffffffffffffffffff160362000261576040517f08c379a00000000000000000000000000000000000000000000000000000000081526004016200025890620005de565b60405180910390fd5b80600160006101000a81548173ffffffffffffffffffffffffffffffffffffffff021916908373ffffffffffffffffffffffffffffffffffffffff1602179055508073ffffffffffffffffffffffffffffffffffffffff1660008054906101000a900473ffffffffffffffffffffffffffffffffffffffff1673ffffffffffffffffffffffffffffffffffffffff167fed8889f560326eb138920d842192f0eb3dd22b4f139c87a2c57538e05bae127860405160405180910390a350565b600080fd5b6000819050919050565b620003398162000324565b81146200034557600080fd5b50565b60008151905062000359816200032e565b92915050565b600073ffffffffffffffffffffffffffffffffffffffff82169050919050565b60006200038c826200035f565b9050919050565b6200039e816200037f565b8114620003aa57600080fd5b50565b600081519050620003be8162000393565b92915050565b6000819050919050565b620003d981620003c4565b8114620003e557600080fd5b50565b600081519050620003f981620003ce565b92915050565b600063ffffffff82169050919050565b6200041a81620003ff565b81146200042657600080fd5b50565b6000815190506200043a816200040f565b92915050565b60008060008060008060c0878903121562000460576200045f6200031f565b5b60006200047089828a0162000348565b96505060206200048389828a0162000348565b95505060406200049689828a01620003ad565b9450506060620004a989828a01620003e8565b9350506080620004bc89828a0162000348565b92505060a0620004cf89828a0162000429565b9150509295509295509295565b600082825260208201905092915050565b7f43616e6e6f7420736574206f776e657220746f207a65726f0000000000000000600082015250565b600062000525601883620004dc565b91506200053282620004ed565b602082019050919050565b60006020820190508181036000830152620005588162000516565b9050919050565b7f4e487b7100000000000000000000000000000000000000000000000000000000600052602160045260246000fd5b7f43616e6e6f74207472616e7366657220746f2073656c66000000000000000000600082015250565b6000620005c6601783620004dc565b9150620005d3826200058e565b602082019050919050565b60006020820190508181036000830152620005f981620005b7565b9050919050565b60805160a05160c05160e05161010051611d8e6200064c600039600061065701526000610631015260006107e60152600081816104010152610c44015260006106880152611d8e6000f3fe6080604052600436106100dd5760003560e01c80638da5cb5b1161007f578063da235b2211610059578063da235b2214610268578063e55ae4e814610293578063e586a4f0146102d0578063f2fde38b146102fb576100dd565b80638da5cb5b146101e95780638ea98117146102145780639eccacf61461023d576100dd565b80634585e33b116100bb5780634585e33b14610140578063473f1ddc146101695780635e6c102e1461019457806379ba5097146101d2576100dd565b8063115cbaf5146100e25780631fe543e31461010d5780632cfcc53914610136575b600080fd5b3480156100ee57600080fd5b506100f7610324565b6040516101049190611243565b60405180910390f35b34801561011957600080fd5b50610134600480360381019061012f9190611401565b61033b565b005b61013e6103ff565b005b34801561014c57600080fd5b50610167600480360381019061016291906114b8565b61056e565b005b34801561017557600080fd5b5061017e6107b4565b60405161018b9190611546565b60405180910390f35b3480156101a057600080fd5b506101bb60048036038101906101b69190611616565b6107de565b6040516101c99291906116f9565b60405180910390f35b3480156101de57600080fd5b506101e76108c6565b005b3480156101f557600080fd5b506101fe610a5b565b60405161020b9190611546565b60405180910390f35b34801561022057600080fd5b5061023b60048036038101906102369190611755565b610a84565b005b34801561024957600080fd5b50610252610bc8565b60405161025f91906117e1565b60405180910390f35b34801561027457600080fd5b5061027d610bee565b60405161028a919061180b565b60405180910390f35b34801561029f57600080fd5b506102ba60048036038101906102b59190611826565b610bf8565b6040516102c79190611546565b60405180910390f35b3480156102dc57600080fd5b506102e5610c40565b6040516102f2919061180b565b60405180910390f35b34801561030757600080fd5b50610322600480360381019061031d9190611755565b610c68565b005b6000600560149054906101000a900460ff16905090565b600260009054906101000a900473ffffffffffffffffffffffffffffffffffffffff1673ffffffffffffffffffffffffffffffffffffffff163373ffffffffffffffffffffffffffffffffffffffff16146103f15733600260009054906101000a900473ffffffffffffffffffffffffffffffffffffffff166040517f1cf993f40000000000000000000000000000000000000000000000000000000081526004016103e8929190611853565b60405180910390fd5b6103fb8282610c7c565b5050565b7f0000000000000000000000000000000000000000000000000000000000000000341015610459576040517f246b904d00000000000000000000000000000000000000000000000000000000815260040160405180910390fd5b6000600181111561046d5761046c6111cc565b5b600560149054906101000a900460ff16600181111561048f5761048e6111cc565b5b146104c6576040517f34c0a68300000000000000000000000000000000000000000000000000000000815260040160405180910390fd5b6004339080600181540180825580915050600190039060005260206000200160009091909190916101000a81548173ffffffffffffffffffffffffffffffffffffffff021916908373ffffffffffffffffffffffffffffffffffffffff1602179055503373ffffffffffffffffffffffffffffffffffffffff167fdb99b71fc84058591be274040067d6bdadf04c3583f1d1660b6a57d8a6e7babd60405160405180910390a2565b6000610588604051806020016040528060008152506107de565b509050806105f75747600480549050600560149054906101000a900460ff1660018111156105b9576105b86111cc565b5b6040517f837325cd0000000000000000000000000000000000000000000000000000000081526004016105ee9392919061187c565b60405180910390fd5b6001600560146101000a81548160ff0219169083600181111561061d5761061c6111cc565b5b021790555060006040518060c001604052807f000000000000000000000000000000000000000000000000000000000000000081526020017f00000000000000000000000000000000000000000000000000000000000000008152602001600361ffff1681526020017f000000000000000000000000000000000000000000000000000000000000000063ffffffff168152602001600163ffffffff1681526020016106d9604051806020016040528060001515815250610ed1565b81525090506000600260009054906101000a900473ffffffffffffffffffffffffffffffffffffffff1673ffffffffffffffffffffffffffffffffffffffff16639b1c385e836040518263ffffffff1660e01b815260040161073b91906119ea565b6020604051808303816000875af115801561075a573d6000803e3d6000fd5b505050506040513d601f19601f8201168201806040525081019061077e9190611a21565b9050807ff29052864a1394ab639134d65aae462308a9547f7268269fda020893b5479f3c60405160405180910390a25050505050565b6000600560009054906101000a900473ffffffffffffffffffffffffffffffffffffffff16905090565b6000606060007f0000000000000000000000000000000000000000000000000000000000000000600354426108139190611a7d565b10159050600080600181111561082c5761082b6111cc565b5b600560149054906101000a900460ff16600181111561084e5761084d6111cc565b5b1490506000804711905060008060048054905011905083801561086e5750825b80156108775750815b80156108805750805b9550856040518060400160405280600381526020017f30783000000000000000000000000000000000000000000000000000000000008152509550955050505050915091565b600160009054906101000a900473ffffffffffffffffffffffffffffffffffffffff1673ffffffffffffffffffffffffffffffffffffffff163373ffffffffffffffffffffffffffffffffffffffff1614610956576040517f08c379a000000000000000000000000000000000000000000000000000000000815260040161094d90611b0e565b60405180910390fd5b60008060009054906101000a900473ffffffffffffffffffffffffffffffffffffffff169050336000806101000a81548173ffffffffffffffffffffffffffffffffffffffff021916908373ffffffffffffffffffffffffffffffffffffffff1602179055506000600160006101000a81548173ffffffffffffffffffffffffffffffffffffffff021916908373ffffffffffffffffffffffffffffffffffffffff1602179055503373ffffffffffffffffffffffffffffffffffffffff168173ffffffffffffffffffffffffffffffffffffffff167f8be0079c531659141344cd1fd0a4f28419497f9722a3daafe3b4186f6b6457e060405160405180910390a350565b60008060009054906101000a900473ffffffffffffffffffffffffffffffffffffffff16905090565b610a8c610a5b565b73ffffffffffffffffffffffffffffffffffffffff163373ffffffffffffffffffffffffffffffffffffffff1614158015610b155750600260009054906101000a900473ffffffffffffffffffffffffffffffffffffffff1673ffffffffffffffffffffffffffffffffffffffff163373ffffffffffffffffffffffffffffffffffffffff1614155b15610b845733610b23610a5b565b600260009054906101000a900473ffffffffffffffffffffffffffffffffffffffff166040517f061db9c1000000000000000000000000000000000000000000000000000000008152600401610b7b93929190611b2e565b60405180910390fd5b80600260006101000a81548173ffffffffffffffffffffffffffffffffffffffff021916908373ffffffffffffffffffffffffffffffffffffffff16021790555050565b600260009054906101000a900473ffffffffffffffffffffffffffffffffffffffff1681565b6000600354905090565b600060048281548110610c0e57610c0d611b65565b5b9060005260206000200160009054906101000a900473ffffffffffffffffffffffffffffffffffffffff169050919050565b60007f0000000000000000000000000000000000000000000000000000000000000000905090565b610c70610f69565b610c7981610ff9565b50565b600060048054905082600081518110610c9857610c97611b65565b5b6020026020010151610caa9190611bc3565b9050600060048281548110610cc257610cc1611b65565b5b9060005260206000200160009054906101000a900473ffffffffffffffffffffffffffffffffffffffff16905080600560006101000a81548173ffffffffffffffffffffffffffffffffffffffff021916908373ffffffffffffffffffffffffffffffffffffffff1602179055506000600560146101000a81548160ff02191690836001811115610d5657610d556111cc565b5b0217905550600067ffffffffffffffff811115610d7657610d756112be565b5b604051908082528060200260200182016040528015610da45781602001602082028036833780820191505090505b5060049080519060200190610dba929190611125565b5042600381905550600560009054906101000a900473ffffffffffffffffffffffffffffffffffffffff1673ffffffffffffffffffffffffffffffffffffffff167f5b690ec4a06fe979403046eaeea5b3ce38524683c3001f662c8b5a829632f7df60405160405180910390a260008173ffffffffffffffffffffffffffffffffffffffff1647604051610e4d90611c25565b60006040518083038185875af1925050503d8060008114610e8a576040519150601f19603f3d011682016040523d82523d6000602084013e610e8f565b606091505b5050905080610eca576040517f0e3fc90b00000000000000000000000000000000000000000000000000000000815260040160405180910390fd5b5050505050565b60607f92fd13387c7fe7befbc38d303d6468778fb9731bc4583f17d92989c6fcfdeaaa82604051602401610f059190611c65565b604051602081830303815290604052907bffffffffffffffffffffffffffffffffffffffffffffffffffffffff19166020820180517bffffffffffffffffffffffffffffffffffffffffffffffffffffffff83818316178352505050509050919050565b60008054906101000a900473ffffffffffffffffffffffffffffffffffffffff1673ffffffffffffffffffffffffffffffffffffffff163373ffffffffffffffffffffffffffffffffffffffff1614610ff7576040517f08c379a0000000000000000000000000000000000000000000000000000000008152600401610fee90611ccc565b60405180910390fd5b565b3373ffffffffffffffffffffffffffffffffffffffff168173ffffffffffffffffffffffffffffffffffffffff1603611067576040517f08c379a000000000000000000000000000000000000000000000000000000000815260040161105e90611d38565b60405180910390fd5b80600160006101000a81548173ffffffffffffffffffffffffffffffffffffffff021916908373ffffffffffffffffffffffffffffffffffffffff1602179055508073ffffffffffffffffffffffffffffffffffffffff1660008054906101000a900473ffffffffffffffffffffffffffffffffffffffff1673ffffffffffffffffffffffffffffffffffffffff167fed8889f560326eb138920d842192f0eb3dd22b4f139c87a2c57538e05bae127860405160405180910390a350565b82805482825590600052602060002090810192821561119e579160200282015b8281111561119d5782518260006101000a81548173ffffffffffffffffffffffffffffffffffffffff021916908373ffffffffffffffffffffffffffffffffffffffff16021790555091602001919060010190611145565b5b5090506111ab91906111af565b5090565b5b808211156111c85760008160009055506001016111b0565b5090565b7f4e487b7100000000000000000000000000000000000000000000000000000000600052602160045260246000fd5b6002811061120c5761120b6111cc565b5b50565b600081905061121d826111fb565b919050565b600061122d8261120f565b9050919050565b61123d81611222565b82525050565b60006020820190506112586000830184611234565b92915050565b6000604051905090565b600080fd5b600080fd5b6000819050919050565b61128581611272565b811461129057600080fd5b50565b6000813590506112a28161127c565b92915050565b600080fd5b6000601f19601f8301169050919050565b7f4e487b7100000000000000000000000000000000000000000000000000000000600052604160045260246000fd5b6112f6826112ad565b810181811067ffffffffffffffff82111715611315576113146112be565b5b80604052505050565b600061132861125e565b905061133482826112ed565b919050565b600067ffffffffffffffff821115611354576113536112be565b5b602082029050602081019050919050565b600080fd5b600061137d61137884611339565b61131e565b905080838252602082019050602084028301858111156113a05761139f611365565b5b835b818110156113c957806113b58882611293565b8452602084019350506020810190506113a2565b5050509392505050565b600082601f8301126113e8576113e76112a8565b5b81356113f884826020860161136a565b91505092915050565b6000806040838503121561141857611417611268565b5b600061142685828601611293565b925050602083013567ffffffffffffffff8111156114475761144661126d565b5b611453858286016113d3565b9150509250929050565b600080fd5b60008083601f840112611478576114776112a8565b5b8235905067ffffffffffffffff8111156114955761149461145d565b5b6020830191508360018202830111156114b1576114b0611365565b5b9250929050565b600080602083850312156114cf576114ce611268565b5b600083013567ffffffffffffffff8111156114ed576114ec61126d565b5b6114f985828601611462565b92509250509250929050565b600073ffffffffffffffffffffffffffffffffffffffff82169050919050565b600061153082611505565b9050919050565b61154081611525565b82525050565b600060208201905061155b6000830184611537565b92915050565b600080fd5b600067ffffffffffffffff821115611581576115806112be565b5b61158a826112ad565b9050602081019050919050565b82818337600083830152505050565b60006115b96115b484611566565b61131e565b9050828152602081018484840111156115d5576115d4611561565b5b6115e0848285611597565b509392505050565b600082601f8301126115fd576115fc6112a8565b5b813561160d8482602086016115a6565b91505092915050565b60006020828403121561162c5761162b611268565b5b600082013567ffffffffffffffff81111561164a5761164961126d565b5b611656848285016115e8565b91505092915050565b60008115159050919050565b6116748161165f565b82525050565b600081519050919050565b600082825260208201905092915050565b60005b838110156116b4578082015181840152602081019050611699565b60008484015250505050565b60006116cb8261167a565b6116d58185611685565b93506116e5818560208601611696565b6116ee816112ad565b840191505092915050565b600060408201905061170e600083018561166b565b818103602083015261172081846116c0565b90509392505050565b61173281611525565b811461173d57600080fd5b50565b60008135905061174f81611729565b92915050565b60006020828403121561176b5761176a611268565b5b600061177984828501611740565b91505092915050565b6000819050919050565b60006117a76117a261179d84611505565b611782565b611505565b9050919050565b60006117b98261178c565b9050919050565b60006117cb826117ae565b9050919050565b6117db816117c0565b82525050565b60006020820190506117f660008301846117d2565b92915050565b61180581611272565b82525050565b600060208201905061182060008301846117fc565b92915050565b60006020828403121561183c5761183b611268565b5b600061184a84828501611293565b91505092915050565b60006040820190506118686000830185611537565b6118756020830184611537565b9392505050565b600060608201905061189160008301866117fc565b61189e60208301856117fc565b6118ab60408301846117fc565b949350505050565b6000819050919050565b6118c6816118b3565b82525050565b6118d581611272565b82525050565b600061ffff82169050919050565b6118f2816118db565b82525050565b600063ffffffff82169050919050565b611911816118f8565b82525050565b600082825260208201905092915050565b60006119338261167a565b61193d8185611917565b935061194d818560208601611696565b611956816112ad565b840191505092915050565b600060c08301600083015161197960008601826118bd565b50602083015161198c60208601826118cc565b50604083015161199f60408601826118e9565b5060608301516119b26060860182611908565b5060808301516119c56080860182611908565b5060a083015184820360a08601526119dd8282611928565b9150508091505092915050565b60006020820190508181036000830152611a048184611961565b905092915050565b600081519050611a1b8161127c565b92915050565b600060208284031215611a3757611a36611268565b5b6000611a4584828501611a0c565b91505092915050565b7f4e487b7100000000000000000000000000000000000000000000000000000000600052601160045260246000fd5b6000611a8882611272565b9150611a9383611272565b9250828203905081811115611aab57611aaa611a4e565b5b92915050565b600082825260208201905092915050565b7f4d7573742062652070726f706f736564206f776e657200000000000000000000600082015250565b6000611af8601683611ab1565b9150611b0382611ac2565b602082019050919050565b60006020820190508181036000830152611b2781611aeb565b9050919050565b6000606082019050611b436000830186611537565b611b506020830185611537565b611b5d6040830184611537565b949350505050565b7f4e487b7100000000000000000000000000000000000000000000000000000000600052603260045260246000fd5b7f4e487b7100000000000000000000000000000000000000000000000000000000600052601260045260246000fd5b6000611bce82611272565b9150611bd983611272565b925082611be957611be8611b94565b5b828206905092915050565b600081905092915050565b50565b6000611c0f600083611bf4565b9150611c1a82611bff565b600082019050919050565b6000611c3082611c02565b9150819050919050565b611c438161165f565b82525050565b602082016000820151611c5f6000850182611c3a565b50505050565b6000602082019050611c7a6000830184611c49565b92915050565b7f4f6e6c792063616c6c61626c65206279206f776e657200000000000000000000600082015250565b6000611cb6601683611ab1565b9150611cc182611c80565b602082019050919050565b60006020820190508181036000830152611ce581611ca9565b9050919050565b7f43616e6e6f74207472616e7366657220746f2073656c66000000000000000000600082015250565b6000611d22601783611ab1565b9150611d2d82611cec565b602082019050919050565b60006020820190508181036000830152611d5181611d15565b905091905056fea2646970667358221220b8d90a1ffd84d637463125f614c530a78bcad970056db39f83c58cd74e7b325864736f6c63430008130033","linkReferences":{}},"methodIdentifiers":{"acceptOwnership()":"79ba5097","checkUpKeep(bytes)":"5e6c102e","enterRaffle()":"2cfcc539","getEntryFee()":"e586a4f0","getPlayer(uint256)":"e55ae4e8","getRaffleState()":"115cbaf5","getRecentWinner()":"473f1ddc","getTimeStamp()":"da235b22","owner()":"8da5cb5b","performUpkeep(bytes)":"4585e33b","rawFulfillRandomWords(uint256,uint256[])":"1fe543e3","s_vrfCoordinator()":"9eccacf6","setCoordinator(address)":"8ea98117","transferOwnership(address)":"f2fde38b"},"id":49}