{"abi":[{"type":"constructor","inputs":[{"name":"entryFee","type":"uint256","internalType":"uint256"},{"name":"interval","type":"uint256","internalType":"uint256"},{"name":"vrfCoordinator","type":"address","internalType":"address"},{"name":"gasLane","type":"bytes32","internalType":"bytes32"},{"name":"subscribId","type":"uint256","internalType":"uint256"},{"name":"callBackGasLimit","type":"uint32","internalType":"uint32"}],"stateMutability":"nonpayable"},{"type":"function","name":"acceptOwnership","inputs":[],"outputs":[],"stateMutability":"nonpayable"},{"type":"function","name":"checkUpKeep","inputs":[{"name":"","type":"bytes","internalType":"bytes"}],"outputs":[{"name":"upkeepNeeded","type":"bool","internalType":"bool"},{"name":"","type":"bytes","internalType":"bytes"}],"stateMutability":"view"},{"type":"function","name":"enterRaffle","inputs":[],"outputs":[],"stateMutability":"payable"},{"type":"function","name":"getEntryFee","inputs":[],"outputs":[{"name":"","type":"uint256","internalType":"uint256"}],"stateMutability":"view"},{"type":"function","name":"getPlayer","inputs":[{"name":"indexOfPlayer","type":"uint256","internalType":"uint256"}],"outputs":[{"name":"","type":"address","internalType":"address"}],"stateMutability":"view"},{"type":"function","name":"getRaffleState","inputs":[],"outputs":[{"name":"","type":"uint8","internalType":"enum Raffle.RaffleState"}],"stateMutability":"view"},{"type":"function","name":"owner","inputs":[],"outputs":[{"name":"","type":"address","internalType":"address"}],"stateMutability":"view"},{"type":"function","name":"performUpkeep","inputs":[{"name":"","type":"bytes","internalType":"bytes"}],"outputs":[],"stateMutability":"nonpayable"},{"type":"function","name":"rawFulfillRandomWords","inputs":[{"name":"requestId","type":"uint256","internalType":"uint256"},{"name":"randomWords","type":"uint256[]","internalType":"uint256[]"}],"outputs":[],"stateMutability":"nonpayable"},{"type":"function","name":"s_vrfCoordinator","inputs":[],"outputs":[{"name":"","type":"address","internalType":"contract IVRFCoordinatorV2Plus"}],"stateMutability":"view"},{"type":"function","name":"setCoordinator","inputs":[{"name":"_vrfCoordinator","type":"address","internalType":"address"}],"outputs":[],"stateMutability":"nonpayable"},{"type":"function","name":"transferOwnership","inputs":[{"name":"to","type":"address","internalType":"address"}],"outputs":[],"stateMutability":"nonpayable"},{"type":"event","name":"OwnershipTransferRequested","inputs":[{"name":"from","type":"address","indexed":true,"internalType":"address"},{"name":"to","type":"address","indexed":true,"internalType":"address"}],"anonymous":false},{"type":"event","name":"OwnershipTransferred","inputs":[{"name":"from","type":"address","indexed":true,"internalType":"address"},{"name":"to","type":"address","indexed":true,"internalType":"address"}],"anonymous":false},{"type":"event","name":"RaffleEnterPlayer","inputs":[{"name":"player","type":"address","indexed":true,"internalType":"address"}],"anonymous":false},{"type":"event","name":"WinnerPicked","inputs":[{"name":"winner","type":"address","indexed":true,"internalType":"address"}],"anonymous":false},{"type":"error","name":"OnlyCoordinatorCanFulfill","inputs":[{"name":"have","type":"address","internalType":"address"},{"name":"want","type":"address","internalType":"address"}]},{"type":"error","name":"OnlyOwnerOrCoordinator","inputs":[{"name":"have","type":"address","internalType":"address"},{"name":"owner","type":"address","internalType":"address"},{"name":"coordinator","type":"address","internalType":"address"}]},{"type":"error","name":"Raffle__LotteryEntryClosed","inputs":[]},{"type":"error","name":"Raffle__NotEnoughEthSent","inputs":[]},{"type":"error","name":"Raffle__WinnerTransactionFailed","inputs":[]},{"type":"error","name":"Raffle__upkeepNotNeeded","inputs":[{"name":"balance","type":"uint256","internalType":"uint256"},{"name":"playersLength","type":"uint256","internalType":"uint256"},{"name":"s_raffleState","type":"uint256","internalType":"uint256"}]},{"type":"error","name":"ZeroAddress","inputs":[]}],"bytecode":{"object":"0x61012060405234801561001157600080fd5b50604051611112380380611112833981016040819052610030916101b7565b8333806000816100875760405162461bcd60e51b815260206004820152601860248201527f43616e6e6f7420736574206f776e657220746f207a65726f000000000000000060448201526064015b60405180910390fd5b600080546001600160a01b0319166001600160a01b03848116919091179091558116156100b7576100b78161010e565b5050600280546001600160a01b0319166001600160a01b0393909316929092179091555060a09590955260c09390935260e052506101005263ffffffff16608052426003556005805460ff60a01b1916905561022d565b336001600160a01b038216036101665760405162461bcd60e51b815260206004820152601760248201527f43616e6e6f74207472616e7366657220746f2073656c66000000000000000000604482015260640161007e565b600180546001600160a01b0319166001600160a01b0383811691821790925560008054604051929316917fed8889f560326eb138920d842192f0eb3dd22b4f139c87a2c57538e05bae12789190a350565b60008060008060008060c087890312156101d057600080fd5b86516020880151604089015191975095506001600160a01b03811681146101f657600080fd5b80945050606087015192506080870151915060a087015163ffffffff8116811461021f57600080fd5b809150509295509295509295565b60805160a05160c05160e05161010051610e9a6102786000396000610448015260006104250152600061054a01526000818161020d01526102ab015260006104780152610e9a6000f3fe6080604052600436106100a75760003560e01c80638da5cb5b116100645780638da5cb5b146101695780638ea981171461019b5780639eccacf6146101bb578063e55ae4e8146101db578063e586a4f0146101fb578063f2fde38b1461023657600080fd5b8063115cbaf5146100ac5780631fe543e3146100dc5780632cfcc539146100fe5780634585e33b146101065780635e6c102e1461012657806379ba509714610154575b600080fd5b3480156100b857600080fd5b50600554600160a01b900460ff166040516100d39190610ab5565b60405180910390f35b3480156100e857600080fd5b506100fc6100f7366004610b24565b610256565b005b6100fc6102a9565b34801561011257600080fd5b506100fc610121366004610bd6565b610396565b34801561013257600080fd5b50610146610141366004610c48565b610542565b6040516100d3929190610d23565b34801561016057600080fd5b506100fc6105ed565b34801561017557600080fd5b506000546001600160a01b03165b6040516001600160a01b0390911681526020016100d3565b3480156101a757600080fd5b506100fc6101b6366004610d46565b610697565b3480156101c757600080fd5b50600254610183906001600160a01b031681565b3480156101e757600080fd5b506101836101f6366004610d76565b610730565b34801561020757600080fd5b506040517f000000000000000000000000000000000000000000000000000000000000000081526020016100d3565b34801561024257600080fd5b506100fc610251366004610d46565b610760565b6002546001600160a01b0316331461029b5760025460405163073e64fd60e21b81523360048201526001600160a01b0390911660248201526044015b60405180910390fd5b6102a58282610774565b5050565b7f00000000000000000000000000000000000000000000000000000000000000003410156102ea5760405163246b904d60e01b815260040160405180910390fd5b6000600554600160a01b900460ff16600181111561030a5761030a610a9f565b14610328576040516334c0a68360e01b815260040160405180910390fd5b6004805460018101825560009182527f8a35acfbc15ff81a39ae7d344fd709f28e8600b4aa8c65c6b64bfe7fe36bd19b0180546001600160a01b0319163390811790915560405190917fdb99b71fc84058591be274040067d6bdadf04c3583f1d1660b6a57d8a6e7babd91a2565b60006103b060405180602001604052806000815250610542565b5090508061040657600454600554479190600160a01b900460ff1660018111156103dc576103dc610a9f565b60405163837325cd60e01b8152600481019390935260248301919091526044820152606401610292565b6005805460ff60a01b1916600160a01b1790556040805160c0810182527f000000000000000000000000000000000000000000000000000000000000000081527f00000000000000000000000000000000000000000000000000000000000000006020808301919091526003828401527f000000000000000000000000000000000000000000000000000000000000000063ffffffff16606083015260016080830152825190810190925260008083529160a08201906104c5906108b6565b9052600254604051634d8e1c2f60e11b81529192506001600160a01b031690639b1c385e906104f8908490600401610d8f565b6020604051808303816000875af1158015610517573d6000803e3d6000fd5b505050506040513d601f19601f8201168201806040525081019061053b9190610dec565b5050505050565b6000606060007f0000000000000000000000000000000000000000000000000000000000000000600354426105779190610e05565b10159050600080600554600160a01b900460ff16600181111561059c5761059c610a9f565b600454911491504715159015158380156105b35750825b80156105bc5750815b80156105c55750805b60408051808201909152600381526203078360ec1b6020820152909890975095505050505050565b6001546001600160a01b031633146106405760405162461bcd60e51b815260206004820152601660248201527526bab9ba10313290383937b837b9b2b21037bbb732b960511b6044820152606401610292565b60008054336001600160a01b0319808316821784556001805490911690556040516001600160a01b0390921692909183917f8be0079c531659141344cd1fd0a4f28419497f9722a3daafe3b4186f6b6457e091a350565b6000546001600160a01b031633148015906106bd57506002546001600160a01b03163314155b1561070e57336106d56000546001600160a01b031690565b60025460405163061db9c160e01b81526001600160a01b0393841660048201529183166024830152919091166044820152606401610292565b600280546001600160a01b0319166001600160a01b0392909216919091179055565b60006004828154811061074557610745610e2c565b6000918252602090912001546001600160a01b031692915050565b610768610927565b6107718161097c565b50565b60006004805490508260008151811061078f5761078f610e2c565b60200260200101516107a19190610e42565b90506000600482815481106107b8576107b8610e2c565b600091825260208083209190910154600580546001600160a81b0319166001600160a01b039092169182179055604080519384529183019182905291519192506108059160049190610a25565b50426003556005546040516001600160a01b03909116907f5b690ec4a06fe979403046eaeea5b3ce38524683c3001f662c8b5a829632f7df90600090a26000816001600160a01b03164760405160006040518083038185875af1925050503d806000811461088f576040519150601f19603f3d011682016040523d82523d6000602084013e610894565b606091505b505090508061053b57604051630e3fc90b60e01b815260040160405180910390fd5b60607f92fd13387c7fe7befbc38d303d6468778fb9731bc4583f17d92989c6fcfdeaaa826040516024016108ef91511515815260200190565b60408051601f198184030181529190526020810180516001600160e01b03166001600160e01b03199093169290921790915292915050565b6000546001600160a01b0316331461097a5760405162461bcd60e51b815260206004820152601660248201527527b7363c9031b0b63630b1363290313c9037bbb732b960511b6044820152606401610292565b565b336001600160a01b038216036109d45760405162461bcd60e51b815260206004820152601760248201527f43616e6e6f74207472616e7366657220746f2073656c660000000000000000006044820152606401610292565b600180546001600160a01b0319166001600160a01b0383811691821790925560008054604051929316917fed8889f560326eb138920d842192f0eb3dd22b4f139c87a2c57538e05bae12789190a350565b828054828255906000526020600020908101928215610a7a579160200282015b82811115610a7a57825182546001600160a01b0319166001600160a01b03909116178255602090920191600190910190610a45565b50610a86929150610a8a565b5090565b5b80821115610a865760008155600101610a8b565b634e487b7160e01b600052602160045260246000fd5b6020810160028310610ad757634e487b7160e01b600052602160045260246000fd5b91905290565b634e487b7160e01b600052604160045260246000fd5b604051601f8201601f1916810167ffffffffffffffff81118282101715610b1c57610b1c610add565b604052919050565b60008060408385031215610b3757600080fd5b8235915060208084013567ffffffffffffffff80821115610b5757600080fd5b818601915086601f830112610b6b57600080fd5b813581811115610b7d57610b7d610add565b8060051b9150610b8e848301610af3565b8181529183018401918481019089841115610ba857600080fd5b938501935b83851015610bc657843582529385019390850190610bad565b8096505050505050509250929050565b60008060208385031215610be957600080fd5b823567ffffffffffffffff80821115610c0157600080fd5b818501915085601f830112610c1557600080fd5b813581811115610c2457600080fd5b866020828501011115610c3657600080fd5b60209290920196919550909350505050565b60006020808385031215610c5b57600080fd5b823567ffffffffffffffff80821115610c7357600080fd5b818501915085601f830112610c8757600080fd5b813581811115610c9957610c99610add565b610cab601f8201601f19168501610af3565b91508082528684828501011115610cc157600080fd5b8084840185840137600090820190930192909252509392505050565b6000815180845260005b81811015610d0357602081850181015186830182015201610ce7565b506000602082860101526020601f19601f83011685010191505092915050565b8215158152604060208201526000610d3e6040830184610cdd565b949350505050565b600060208284031215610d5857600080fd5b81356001600160a01b0381168114610d6f57600080fd5b9392505050565b600060208284031215610d8857600080fd5b5035919050565b60208152815160208201526020820151604082015261ffff60408301511660608201526000606083015163ffffffff80821660808501528060808601511660a0850152505060a083015160c080840152610d3e60e0840182610cdd565b600060208284031215610dfe57600080fd5b5051919050565b81810381811115610e2657634e487b7160e01b600052601160045260246000fd5b92915050565b634e487b7160e01b600052603260045260246000fd5b600082610e5f57634e487b7160e01b600052601260045260246000fd5b50069056fea26469706673582212208a59ccc301f77553700d8551e7d1a529aec38525b54ea890f4013095fd54b09d64736f6c63430008130033","linkReferences":{}},"methodIdentifiers":{"acceptOwnership()":"79ba5097","checkUpKeep(bytes)":"5e6c102e","enterRaffle()":"2cfcc539","getEntryFee()":"e586a4f0","getPlayer(uint256)":"e55ae4e8","getRaffleState()":"115cbaf5","owner()":"8da5cb5b","performUpkeep(bytes)":"4585e33b","rawFulfillRandomWords(uint256,uint256[])":"1fe543e3","s_vrfCoordinator()":"9eccacf6","setCoordinator(address)":"8ea98117","transferOwnership(address)":"f2fde38b"},"id":47}