{"abi":[{"type":"constructor","inputs":[{"name":"entryFee","type":"uint256","internalType":"uint256"},{"name":"interval","type":"uint256","internalType":"uint256"},{"name":"vrfCoordinator","type":"address","internalType":"address"},{"name":"gasLane","type":"bytes32","internalType":"bytes32"},{"name":"subscribId","type":"uint256","internalType":"uint256"},{"name":"callBackGasLimit","type":"uint32","internalType":"uint32"}],"stateMutability":"nonpayable"},{"type":"function","name":"acceptOwnership","inputs":[],"outputs":[],"stateMutability":"nonpayable"},{"type":"function","name":"checkUpKeep","inputs":[{"name":"","type":"bytes","internalType":"bytes"}],"outputs":[{"name":"upkeepNeeded","type":"bool","internalType":"bool"},{"name":"","type":"bytes","internalType":"bytes"}],"stateMutability":"view"},{"type":"function","name":"enterRaffle","inputs":[],"outputs":[],"stateMutability":"payable"},{"type":"function","name":"getEntryFee","inputs":[],"outputs":[{"name":"","type":"uint256","internalType":"uint256"}],"stateMutability":"view"},{"type":"function","name":"getRaffleState","inputs":[],"outputs":[{"name":"","type":"uint8","internalType":"enum Raffle.RaffleState"}],"stateMutability":"view"},{"type":"function","name":"owner","inputs":[],"outputs":[{"name":"","type":"address","internalType":"address"}],"stateMutability":"view"},{"type":"function","name":"performUpkeep","inputs":[{"name":"","type":"bytes","internalType":"bytes"}],"outputs":[],"stateMutability":"nonpayable"},{"type":"function","name":"rawFulfillRandomWords","inputs":[{"name":"requestId","type":"uint256","internalType":"uint256"},{"name":"randomWords","type":"uint256[]","internalType":"uint256[]"}],"outputs":[],"stateMutability":"nonpayable"},{"type":"function","name":"s_vrfCoordinator","inputs":[],"outputs":[{"name":"","type":"address","internalType":"contract IVRFCoordinatorV2Plus"}],"stateMutability":"view"},{"type":"function","name":"setCoordinator","inputs":[{"name":"_vrfCoordinator","type":"address","internalType":"address"}],"outputs":[],"stateMutability":"nonpayable"},{"type":"function","name":"transferOwnership","inputs":[{"name":"to","type":"address","internalType":"address"}],"outputs":[],"stateMutability":"nonpayable"},{"type":"event","name":"OwnershipTransferRequested","inputs":[{"name":"from","type":"address","indexed":true,"internalType":"address"},{"name":"to","type":"address","indexed":true,"internalType":"address"}],"anonymous":false},{"type":"event","name":"OwnershipTransferred","inputs":[{"name":"from","type":"address","indexed":true,"internalType":"address"},{"name":"to","type":"address","indexed":true,"internalType":"address"}],"anonymous":false},{"type":"event","name":"RaffleEnterPlayer","inputs":[{"name":"player","type":"address","indexed":true,"internalType":"address"}],"anonymous":false},{"type":"event","name":"WinnerPicked","inputs":[{"name":"winner","type":"address","indexed":true,"internalType":"address"}],"anonymous":false},{"type":"error","name":"OnlyCoordinatorCanFulfill","inputs":[{"name":"have","type":"address","internalType":"address"},{"name":"want","type":"address","internalType":"address"}]},{"type":"error","name":"OnlyOwnerOrCoordinator","inputs":[{"name":"have","type":"address","internalType":"address"},{"name":"owner","type":"address","internalType":"address"},{"name":"coordinator","type":"address","internalType":"address"}]},{"type":"error","name":"Raffle__LotteryEntryClosed","inputs":[]},{"type":"error","name":"Raffle__NotEnoughEthSent","inputs":[]},{"type":"error","name":"Raffle__WinnerTransactionFailed","inputs":[]},{"type":"error","name":"Raffle__upkeepNotNeeded","inputs":[{"name":"balance","type":"uint256","internalType":"uint256"},{"name":"playersLength","type":"uint256","internalType":"uint256"},{"name":"s_raffleState","type":"uint256","internalType":"uint256"}]},{"type":"error","name":"ZeroAddress","inputs":[]}],"bytecode":{"object":"0x61012060405234801561001157600080fd5b5060405161109d38038061109d833981016040819052610030916101b7565b8333806000816100875760405162461bcd60e51b815260206004820152601860248201527f43616e6e6f7420736574206f776e657220746f207a65726f000000000000000060448201526064015b60405180910390fd5b600080546001600160a01b0319166001600160a01b03848116919091179091558116156100b7576100b78161010e565b5050600280546001600160a01b0319166001600160a01b0393909316929092179091555060a09590955260c09390935260e052506101005263ffffffff16608052426003556005805460ff60a01b1916905561022d565b336001600160a01b038216036101665760405162461bcd60e51b815260206004820152601760248201527f43616e6e6f74207472616e7366657220746f2073656c66000000000000000000604482015260640161007e565b600180546001600160a01b0319166001600160a01b0383811691821790925560008054604051929316917fed8889f560326eb138920d842192f0eb3dd22b4f139c87a2c57538e05bae12789190a350565b60008060008060008060c087890312156101d057600080fd5b86516020880151604089015191975095506001600160a01b03811681146101f657600080fd5b80945050606087015192506080870151915060a087015163ffffffff8116811461021f57600080fd5b809150509295509295509295565b60805160a05160c05160e05161010051610e25610278600039600061041d015260006103fa0152600061051f0152600081816101e201526102800152600061044d0152610e256000f3fe60806040526004361061009c5760003560e01c806379ba50971161006457806379ba5097146101495780638da5cb5b1461015e5780638ea98117146101905780639eccacf6146101b0578063e586a4f0146101d0578063f2fde38b1461020b57600080fd5b8063115cbaf5146100a15780631fe543e3146100d15780632cfcc539146100f35780634585e33b146100fb5780635e6c102e1461011b575b600080fd5b3480156100ad57600080fd5b50600554600160a01b900460ff166040516100c89190610a59565b60405180910390f35b3480156100dd57600080fd5b506100f16100ec366004610ac8565b61022b565b005b6100f161027e565b34801561010757600080fd5b506100f1610116366004610b7a565b61036b565b34801561012757600080fd5b5061013b610136366004610bec565b610517565b6040516100c8929190610cc7565b34801561015557600080fd5b506100f16105c1565b34801561016a57600080fd5b506000546001600160a01b03165b6040516001600160a01b0390911681526020016100c8565b34801561019c57600080fd5b506100f16101ab366004610cea565b61066b565b3480156101bc57600080fd5b50600254610178906001600160a01b031681565b3480156101dc57600080fd5b506040517f000000000000000000000000000000000000000000000000000000000000000081526020016100c8565b34801561021757600080fd5b506100f1610226366004610cea565b610704565b6002546001600160a01b031633146102705760025460405163073e64fd60e21b81523360048201526001600160a01b0390911660248201526044015b60405180910390fd5b61027a8282610718565b5050565b7f00000000000000000000000000000000000000000000000000000000000000003410156102bf5760405163246b904d60e01b815260040160405180910390fd5b6000600554600160a01b900460ff1660018111156102df576102df610a43565b146102fd576040516334c0a68360e01b815260040160405180910390fd5b6004805460018101825560009182527f8a35acfbc15ff81a39ae7d344fd709f28e8600b4aa8c65c6b64bfe7fe36bd19b0180546001600160a01b0319163390811790915560405190917fdb99b71fc84058591be274040067d6bdadf04c3583f1d1660b6a57d8a6e7babd91a2565b600061038560405180602001604052806000815250610517565b509050806103db57600454600554479190600160a01b900460ff1660018111156103b1576103b1610a43565b60405163837325cd60e01b8152600481019390935260248301919091526044820152606401610267565b6005805460ff60a01b1916600160a01b1790556040805160c0810182527f000000000000000000000000000000000000000000000000000000000000000081527f00000000000000000000000000000000000000000000000000000000000000006020808301919091526003828401527f000000000000000000000000000000000000000000000000000000000000000063ffffffff16606083015260016080830152825190810190925260008083529160a082019061049a9061085a565b9052600254604051634d8e1c2f60e11b81529192506001600160a01b031690639b1c385e906104cd908490600401610d1a565b6020604051808303816000875af11580156104ec573d6000803e3d6000fd5b505050506040513d601f19601f820116820180604052508101906105109190610d77565b5050505050565b6000606060007f00000000000000000000000000000000000000000000000000000000000000006003544261054c9190610d90565b109050600080600554600160a01b900460ff16600181111561057057610570610a43565b600454911491504715159015158380156105875750825b80156105905750815b80156105995750805b60408051808201909152600381526203078360ec1b6020820152909890975095505050505050565b6001546001600160a01b031633146106145760405162461bcd60e51b815260206004820152601660248201527526bab9ba10313290383937b837b9b2b21037bbb732b960511b6044820152606401610267565b60008054336001600160a01b0319808316821784556001805490911690556040516001600160a01b0390921692909183917f8be0079c531659141344cd1fd0a4f28419497f9722a3daafe3b4186f6b6457e091a350565b6000546001600160a01b0316331480159061069157506002546001600160a01b03163314155b156106e257336106a96000546001600160a01b031690565b60025460405163061db9c160e01b81526001600160a01b0393841660048201529183166024830152919091166044820152606401610267565b600280546001600160a01b0319166001600160a01b0392909216919091179055565b61070c6108cb565b61071581610920565b50565b60006004805490508260008151811061073357610733610db7565b60200260200101516107459190610dcd565b905060006004828154811061075c5761075c610db7565b600091825260208083209190910154600580546001600160a81b0319166001600160a01b039092169182179055604080519384529183019182905291519192506107a991600491906109c9565b50426003556005546040516001600160a01b03909116907f5b690ec4a06fe979403046eaeea5b3ce38524683c3001f662c8b5a829632f7df90600090a26000816001600160a01b03164760405160006040518083038185875af1925050503d8060008114610833576040519150601f19603f3d011682016040523d82523d6000602084013e610838565b606091505b505090508061051057604051630e3fc90b60e01b815260040160405180910390fd5b60607f92fd13387c7fe7befbc38d303d6468778fb9731bc4583f17d92989c6fcfdeaaa8260405160240161089391511515815260200190565b60408051601f198184030181529190526020810180516001600160e01b03166001600160e01b03199093169290921790915292915050565b6000546001600160a01b0316331461091e5760405162461bcd60e51b815260206004820152601660248201527527b7363c9031b0b63630b1363290313c9037bbb732b960511b6044820152606401610267565b565b336001600160a01b038216036109785760405162461bcd60e51b815260206004820152601760248201527f43616e6e6f74207472616e7366657220746f2073656c660000000000000000006044820152606401610267565b600180546001600160a01b0319166001600160a01b0383811691821790925560008054604051929316917fed8889f560326eb138920d842192f0eb3dd22b4f139c87a2c57538e05bae12789190a350565b828054828255906000526020600020908101928215610a1e579160200282015b82811115610a1e57825182546001600160a01b0319166001600160a01b039091161782556020909201916001909101906109e9565b50610a2a929150610a2e565b5090565b5b80821115610a2a5760008155600101610a2f565b634e487b7160e01b600052602160045260246000fd5b6020810160028310610a7b57634e487b7160e01b600052602160045260246000fd5b91905290565b634e487b7160e01b600052604160045260246000fd5b604051601f8201601f1916810167ffffffffffffffff81118282101715610ac057610ac0610a81565b604052919050565b60008060408385031215610adb57600080fd5b8235915060208084013567ffffffffffffffff80821115610afb57600080fd5b818601915086601f830112610b0f57600080fd5b813581811115610b2157610b21610a81565b8060051b9150610b32848301610a97565b8181529183018401918481019089841115610b4c57600080fd5b938501935b83851015610b6a57843582529385019390850190610b51565b8096505050505050509250929050565b60008060208385031215610b8d57600080fd5b823567ffffffffffffffff80821115610ba557600080fd5b818501915085601f830112610bb957600080fd5b813581811115610bc857600080fd5b866020828501011115610bda57600080fd5b60209290920196919550909350505050565b60006020808385031215610bff57600080fd5b823567ffffffffffffffff80821115610c1757600080fd5b818501915085601f830112610c2b57600080fd5b813581811115610c3d57610c3d610a81565b610c4f601f8201601f19168501610a97565b91508082528684828501011115610c6557600080fd5b8084840185840137600090820190930192909252509392505050565b6000815180845260005b81811015610ca757602081850181015186830182015201610c8b565b506000602082860101526020601f19601f83011685010191505092915050565b8215158152604060208201526000610ce26040830184610c81565b949350505050565b600060208284031215610cfc57600080fd5b81356001600160a01b0381168114610d1357600080fd5b9392505050565b60208152815160208201526020820151604082015261ffff60408301511660608201526000606083015163ffffffff80821660808501528060808601511660a0850152505060a083015160c080840152610ce260e0840182610c81565b600060208284031215610d8957600080fd5b5051919050565b81810381811115610db157634e487b7160e01b600052601160045260246000fd5b92915050565b634e487b7160e01b600052603260045260246000fd5b600082610dea57634e487b7160e01b600052601260045260246000fd5b50069056fea26469706673582212207f4501fbc86084f2f69fbc1d9bd7d23f72c28c71e6873e599c33c203ecf8204f64736f6c63430008130033","linkReferences":{}},"methodIdentifiers":{"acceptOwnership()":"79ba5097","checkUpKeep(bytes)":"5e6c102e","enterRaffle()":"2cfcc539","getEntryFee()":"e586a4f0","getRaffleState()":"115cbaf5","owner()":"8da5cb5b","performUpkeep(bytes)":"4585e33b","rawFulfillRandomWords(uint256,uint256[])":"1fe543e3","s_vrfCoordinator()":"9eccacf6","setCoordinator(address)":"8ea98117","transferOwnership(address)":"f2fde38b"},"id":45}