{"abi":[{"type":"constructor","inputs":[{"name":"entryFee","type":"uint256","internalType":"uint256"}],"stateMutability":"nonpayable"},{"type":"function","name":"enterRaffle","inputs":[],"outputs":[],"stateMutability":"payable"},{"type":"function","name":"getEntryFee","inputs":[],"outputs":[{"name":"","type":"uint256","internalType":"uint256"}],"stateMutability":"view"},{"type":"function","name":"pickWinner","inputs":[],"outputs":[],"stateMutability":"nonpayable"}],"bytecode":{"object":"0x60a060405234801561001057600080fd5b5060405161011f38038061011f83398101604081905261002f91610037565b608052610050565b60006020828403121561004957600080fd5b5051919050565b60805160b761006860003960006050015260b76000f3fe60806040526004361060305760003560e01c80632cfcc5391460355780635d495aea146037578063e586a4f0146042575b600080fd5b005b348015603557600080fd5b348015604d57600080fd5b507f000000000000000000000000000000000000000000000000000000000000000060405190815260200160405180910390f3fea26469706673582212203ea910ae59c33f79523c5961fab180debc368dff5304cb87fd386077b492c5c264736f6c63430008130033","linkReferences":{}},"methodIdentifiers":{"enterRaffle()":"2cfcc539","getEntryFee()":"e586a4f0","pickWinner()":"5d495aea"},"id":26}