{"abi":[{"type":"constructor","inputs":[{"name":"tokenAddresses","type":"address[]","internalType":"address[]"},{"name":"priceFeedAddresses","type":"address[]","internalType":"address[]"},{"name":"csdAddress","type":"address","internalType":"address"}],"stateMutability":"nonpayable"},{"type":"function","name":"RedeemCollateralForCSD","inputs":[],"outputs":[],"stateMutability":"nonpayable"},{"type":"function","name":"burnCsd","inputs":[],"outputs":[],"stateMutability":"nonpayable"},{"type":"function","name":"depositCollateral","inputs":[{"name":"tokenCollateralAddress","type":"address","internalType":"address"},{"name":"amountCollateral","type":"uint256","internalType":"uint256"}],"outputs":[],"stateMutability":"nonpayable"},{"type":"function","name":"depositCollateralAndMintCSD","inputs":[],"outputs":[],"stateMutability":"nonpayable"},{"type":"function","name":"getAccountCollateralValue","inputs":[{"name":"user","type":"address","internalType":"address"}],"outputs":[{"name":"totalCollateralValueInUsd","type":"uint256","internalType":"uint256"}],"stateMutability":"view"},{"type":"function","name":"getHealthFactor","inputs":[],"outputs":[],"stateMutability":"nonpayable"},{"type":"function","name":"getUsdValue","inputs":[{"name":"token","type":"address","internalType":"address"},{"name":"amount","type":"uint256","internalType":"uint256"}],"outputs":[{"name":"","type":"uint256","internalType":"uint256"}],"stateMutability":"view"},{"type":"function","name":"liqudate","inputs":[],"outputs":[],"stateMutability":"nonpayable"},{"type":"function","name":"mintCsd","inputs":[{"name":"amountCsdToMint","type":"uint256","internalType":"uint256"}],"outputs":[],"stateMutability":"nonpayable"},{"type":"function","name":"redeemCollateral","inputs":[],"outputs":[],"stateMutability":"nonpayable"},{"type":"event","name":"CollateralDeposited","inputs":[{"name":"sender","type":"address","indexed":true,"internalType":"address"},{"name":"tokenAddress","type":"address","indexed":true,"internalType":"address"},{"name":"amount","type":"uint256","indexed":true,"internalType":"uint256"}],"anonymous":false},{"type":"error","name":"CSDEngine__AmountIsZero","inputs":[]},{"type":"error","name":"CSDEngine__CollateralDepositFailed","inputs":[]},{"type":"error","name":"CSDEngine__HEALTHFACTORDANGER","inputs":[{"name":"userHealthFactor","type":"uint256","internalType":"uint256"}]},{"type":"error","name":"CSDEngine__MintRequestFailed","inputs":[]},{"type":"error","name":"CSDEngine__PriceFeedArrayLengthAndTokenAddressArrayLengthMismatch","inputs":[]},{"type":"error","name":"CSDEngine__TokenNotAllowed","inputs":[]}],"bytecode":{"object":"0x60a060405234801561001057600080fd5b50604051610aaf380380610aaf83398101604081905261002f91610224565b600160005581518351146100565760405163833d657160e01b815260040160405180910390fd5b60005b8351811015610137578281815181106100745761007461029d565b6020026020010151600160008684815181106100925761009261029d565b60200260200101516001600160a01b03166001600160a01b0316815260200190815260200160002060006101000a8154816001600160a01b0302191690836001600160a01b0316021790555060048482815181106100f2576100f261029d565b60209081029190910181015182546001808201855560009485529290932090920180546001600160a01b0319166001600160a01b039093169290921790915501610059565b506001600160a01b0316608052506102b39050565b634e487b7160e01b600052604160045260246000fd5b80516001600160a01b038116811461017957600080fd5b919050565b600082601f83011261018f57600080fd5b81516001600160401b038111156101a8576101a861014c565b604051600582901b90603f8201601f191681016001600160401b03811182821017156101d6576101d661014c565b6040529182526020818501810192908101868411156101f457600080fd5b6020860192505b8383101561021a5761020c83610162565b8152602092830192016101fb565b5095945050505050565b60008060006060848603121561023957600080fd5b83516001600160401b0381111561024f57600080fd5b61025b8682870161017e565b602086015190945090506001600160401b0381111561027957600080fd5b6102858682870161017e565b92505061029460408501610162565b90509250925092565b634e487b7160e01b600052603260045260246000fd5b6080516107e16102ce600039600061024a01526107e16000f3fe608060405234801561001057600080fd5b506004361061009e5760003560e01c8063a5d5db0c11610066578063a5d5db0c146100dd578063a5f352b7146100a3578063a6534470146100a3578063c660d112146100f0578063dd9fc606146100a357600080fd5b806342677700146100a357806345641b68146100a35780637d1a4450146100a55780638586d1cc146100a35780639551a0a7146100ca575b600080fd5b005b6100b86100b3366004610640565b610103565b60405190815260200160405180910390f35b6100a36100d8366004610662565b610180565b6100a36100eb36600461067b565b6102e9565b6100b86100fe36600461067b565b6104b0565b6000805b60045481101561017a57600060048281548110610126576101266106a5565b60009182526020808320909101546001600160a01b0387811684526002835260408085209190921680855292529091205490915061016482826104b0565b61016e90856106d1565b93505050600101610107565b50919050565b80806000036101a257604051638ee8831760e01b815260040160405180910390fd5b6002600054036101f95760405162461bcd60e51b815260206004820152601f60248201527f5265656e7472616e637947756172643a207265656e7472616e742063616c6c0060448201526064015b60405180910390fd5b60026000908155338152600360205260408120805484929061021c9084906106d1565b9091555061022b905033610570565b6040516340c10f1960e01b8152336004820152602481018390526000907f00000000000000000000000000000000000000000000000000000000000000006001600160a01b0316906340c10f19906044016020604051808303816000875af115801561029b573d6000803e3d6000fd5b505050506040513d601f19601f820116820180604052508101906102bf91906106e4565b9050806102df576040516302bac73d60e61b815260040160405180910390fd5b5050600160005550565b808060000361030b57604051638ee8831760e01b815260040160405180910390fd5b6001600160a01b038084166000908152600160205260409020548491166103455760405163734457d360e01b815260040160405180910390fd5b6002600054036103975760405162461bcd60e51b815260206004820152601f60248201527f5265656e7472616e637947756172643a207265656e7472616e742063616c6c0060448201526064016101f0565b60026000818155338152602091825260408082206001600160a01b038816835290925290812080548592906103cd9084906106d1565b909155505060405183906001600160a01b0386169033907ff1c0dd7e9b98bbff859029005ef89b127af049cd18df1a8d79f0b7e019911e5690600090a46040516323b872dd60e01b8152336004820152306024820152604481018490526000906001600160a01b038616906323b872dd906064016020604051808303816000875af1158015610460573d6000803e3d6000fd5b505050506040513d601f19601f8201168201806040525081019061048491906106e4565b9050806104a4576040516309e52b0360e21b815260040160405180910390fd5b50506001600055505050565b6001600160a01b03808316600090815260016020526040808220548151633fabe5a360e21b81529151929316918391839163feaf968c9160048082019260a0929091908290030181865afa15801561050c573d6000803e3d6000fd5b505050506040513d601f19601f820116820180604052508101906105309190610720565b505050915050670de0b6b3a7640000846402540be400836105519190610772565b61055b9190610772565b6105659190610789565b925050505b92915050565b600061057b826105a6565b905060018110156105a257604051637905b28360e01b8152600481018290526024016101f0565b5050565b60008060006105b4846105fa565b9092509050600060646105c8603284610772565b6105d29190610789565b9050826105e7670de0b6b3a764000083610772565b6105f19190610789565b95945050505050565b6001600160a01b0381166000908152600360205260408120549061061d83610103565b9050915091565b80356001600160a01b038116811461063b57600080fd5b919050565b60006020828403121561065257600080fd5b61065b82610624565b9392505050565b60006020828403121561067457600080fd5b5035919050565b6000806040838503121561068e57600080fd5b61069783610624565b946020939093013593505050565b634e487b7160e01b600052603260045260246000fd5b634e487b7160e01b600052601160045260246000fd5b8082018082111561056a5761056a6106bb565b6000602082840312156106f657600080fd5b8151801515811461065b57600080fd5b805169ffffffffffffffffffff8116811461063b57600080fd5b600080600080600060a0868803121561073857600080fd5b61074186610706565b6020870151604088015160608901519297509095509350915061076660808701610706565b90509295509295909350565b808202811582820484141761056a5761056a6106bb565b6000826107a657634e487b7160e01b600052601260045260246000fd5b50049056fea26469706673582212209be0fa37f817ae325a7026c8de52bb8cb24b595a278f40707040c1f73e53dd6f64736f6c634300081a0033","linkReferences":{}},"methodIdentifiers":{"RedeemCollateralForCSD()":"dd9fc606","burnCsd()":"45641b68","depositCollateral(address,uint256)":"a5d5db0c","depositCollateralAndMintCSD()":"42677700","getAccountCollateralValue(address)":"7d1a4450","getHealthFactor()":"a5f352b7","getUsdValue(address,uint256)":"c660d112","liqudate()":"8586d1cc","mintCsd(uint256)":"9551a0a7","redeemCollateral()":"a6534470"},"id":35}