{"abi":[{"type":"constructor","inputs":[{"name":"tokenAddresses","type":"address[]","internalType":"address[]"},{"name":"priceFeedAddresses","type":"address[]","internalType":"address[]"},{"name":"csdAddress","type":"address","internalType":"address"}],"stateMutability":"nonpayable"},{"type":"function","name":"RedeemCollateralForCSD","inputs":[{"name":"tokenAddress","type":"address","internalType":"address"},{"name":"amountCollateral","type":"uint256","internalType":"uint256"},{"name":"amountCSDtoBurn","type":"uint256","internalType":"uint256"}],"outputs":[],"stateMutability":"nonpayable"},{"type":"function","name":"burnCsd","inputs":[{"name":"amount","type":"uint256","internalType":"uint256"}],"outputs":[],"stateMutability":"nonpayable"},{"type":"function","name":"calculateHealthFactor","inputs":[{"name":"totalCsdMinted","type":"uint256","internalType":"uint256"},{"name":"totalCollateralValueInUsd","type":"uint256","internalType":"uint256"}],"outputs":[{"name":"","type":"uint256","internalType":"uint256"}],"stateMutability":"pure"},{"type":"function","name":"depositCollateral","inputs":[{"name":"tokenCollateralAddress","type":"address","internalType":"address"},{"name":"amountCollateral","type":"uint256","internalType":"uint256"}],"outputs":[],"stateMutability":"nonpayable"},{"type":"function","name":"depositCollateralAndMintCSD","inputs":[{"name":"tokenCollateralAddress","type":"address","internalType":"address"},{"name":"amountCollateral","type":"uint256","internalType":"uint256"},{"name":"amountCsdToMint","type":"uint256","internalType":"uint256"}],"outputs":[],"stateMutability":"nonpayable"},{"type":"function","name":"getAccountCollateralValue","inputs":[{"name":"user","type":"address","internalType":"address"}],"outputs":[{"name":"totalCollateralValueInUsd","type":"uint256","internalType":"uint256"}],"stateMutability":"view"},{"type":"function","name":"getAccountInfo","inputs":[{"name":"user","type":"address","internalType":"address"}],"outputs":[{"name":"totalCsdMinted","type":"uint256","internalType":"uint256"},{"name":"totalCollateralValueInUsd","type":"uint256","internalType":"uint256"}],"stateMutability":"view"},{"type":"function","name":"getAdditionalFeedPrecision","inputs":[],"outputs":[{"name":"","type":"uint256","internalType":"uint256"}],"stateMutability":"pure"},{"type":"function","name":"getCollateralBalanceOfUser","inputs":[{"name":"user","type":"address","internalType":"address"},{"name":"token","type":"address","internalType":"address"}],"outputs":[{"name":"","type":"uint256","internalType":"uint256"}],"stateMutability":"view"},{"type":"function","name":"getCollateralTokenPriceFeed","inputs":[{"name":"token","type":"address","internalType":"address"}],"outputs":[{"name":"","type":"address","internalType":"address"}],"stateMutability":"view"},{"type":"function","name":"getCollateralTokens","inputs":[],"outputs":[{"name":"","type":"address[]","internalType":"address[]"}],"stateMutability":"view"},{"type":"function","name":"getDsc","inputs":[],"outputs":[{"name":"","type":"address","internalType":"address"}],"stateMutability":"view"},{"type":"function","name":"getHealthFactor","inputs":[{"name":"user","type":"address","internalType":"address"}],"outputs":[{"name":"","type":"uint256","internalType":"uint256"}],"stateMutability":"view"},{"type":"function","name":"getLiquidationBonus","inputs":[],"outputs":[{"name":"","type":"uint256","internalType":"uint256"}],"stateMutability":"pure"},{"type":"function","name":"getLiquidationPrecision","inputs":[],"outputs":[{"name":"","type":"uint256","internalType":"uint256"}],"stateMutability":"pure"},{"type":"function","name":"getLiquidationThreshold","inputs":[],"outputs":[{"name":"","type":"uint256","internalType":"uint256"}],"stateMutability":"pure"},{"type":"function","name":"getMinHealthFactor","inputs":[],"outputs":[{"name":"","type":"uint256","internalType":"uint256"}],"stateMutability":"pure"},{"type":"function","name":"getPrecision","inputs":[],"outputs":[{"name":"","type":"uint256","internalType":"uint256"}],"stateMutability":"pure"},{"type":"function","name":"getTokenAmountFromUsd","inputs":[{"name":"token","type":"address","internalType":"address"},{"name":"usdAmountInWei","type":"uint256","internalType":"uint256"}],"outputs":[{"name":"","type":"uint256","internalType":"uint256"}],"stateMutability":"view"},{"type":"function","name":"getUsdValue","inputs":[{"name":"token","type":"address","internalType":"address"},{"name":"amount","type":"uint256","internalType":"uint256"}],"outputs":[{"name":"","type":"uint256","internalType":"uint256"}],"stateMutability":"view"},{"type":"function","name":"liqudate","inputs":[{"name":"collateral","type":"address","internalType":"address"},{"name":"user","type":"address","internalType":"address"},{"name":"debtToCover","type":"uint256","internalType":"uint256"}],"outputs":[],"stateMutability":"nonpayable"},{"type":"function","name":"mintCsd","inputs":[{"name":"amountCsdToMint","type":"uint256","internalType":"uint256"}],"outputs":[],"stateMutability":"nonpayable"},{"type":"function","name":"redeemCollateral","inputs":[{"name":"tokenAddress","type":"address","internalType":"address"},{"name":"amountCollateral","type":"uint256","internalType":"uint256"}],"outputs":[],"stateMutability":"nonpayable"},{"type":"event","name":"CollateralDeposited","inputs":[{"name":"sender","type":"address","indexed":true,"internalType":"address"},{"name":"tokenAddress","type":"address","indexed":true,"internalType":"address"},{"name":"amount","type":"uint256","indexed":true,"internalType":"uint256"}],"anonymous":false},{"type":"event","name":"CollateralRedeemed","inputs":[{"name":"redeemedFrom","type":"address","indexed":true,"internalType":"address"},{"name":"redeemedTo","type":"address","indexed":true,"internalType":"address"},{"name":"tokenAddress","type":"address","indexed":true,"internalType":"address"},{"name":"amountCollateral","type":"uint256","indexed":false,"internalType":"uint256"}],"anonymous":false},{"type":"error","name":"CSDEngine__AmountIsZero","inputs":[]},{"type":"error","name":"CSDEngine__CollateralDepositFailed","inputs":[]},{"type":"error","name":"CSDEngine__CollateralRedeemFailed","inputs":[]},{"type":"error","name":"CSDEngine__HEALTHFACTORDANGER","inputs":[{"name":"userHealthFactor","type":"uint256","internalType":"uint256"}]},{"type":"error","name":"CSDEngine__MintRequestFailed","inputs":[]},{"type":"error","name":"CSDEngine__PriceFeedArrayLengthAndTokenAddressArrayLengthMismatch","inputs":[]},{"type":"error","name":"CSDEngine__TokenNotAllowed","inputs":[]},{"type":"error","name":"CSDEngine__TransactionFailed","inputs":[]},{"type":"error","name":"HealthFactorNOTIMPROVED","inputs":[]},{"type":"error","name":"HealthFactorOk","inputs":[]}],"bytecode":{"object":"0x60a060405234801561001057600080fd5b506040516113f23803806113f283398101604081905261002f91610224565b600160005581518351146100565760405163833d657160e01b815260040160405180910390fd5b60005b8351811015610137578281815181106100745761007461029d565b6020026020010151600160008684815181106100925761009261029d565b60200260200101516001600160a01b03166001600160a01b0316815260200190815260200160002060006101000a8154816001600160a01b0302191690836001600160a01b0316021790555060048482815181106100f2576100f261029d565b60209081029190910181015182546001808201855560009485529290932090920180546001600160a01b0319166001600160a01b039093169290921790915501610059565b506001600160a01b0316608052506102b39050565b634e487b7160e01b600052604160045260246000fd5b80516001600160a01b038116811461017957600080fd5b919050565b600082601f83011261018f57600080fd5b81516001600160401b038111156101a8576101a861014c565b604051600582901b90603f8201601f191681016001600160401b03811182821017156101d6576101d661014c565b6040529182526020818501810192908101868411156101f457600080fd5b6020860192505b8383101561021a5761020c83610162565b8152602092830192016101fb565b5095945050505050565b60008060006060848603121561023957600080fd5b83516001600160401b0381111561024f57600080fd5b61025b8682870161017e565b602086015190945090506001600160401b0381111561027957600080fd5b6102858682870161017e565b92505061029460408501610162565b90509250925092565b634e487b7160e01b600052603260045260246000fd5b60805161110f6102e3600039600081816103220152818161060401528181610c850152610d2a015261110f6000f3fe608060405234801561001057600080fd5b506004361061014d5760003560e01c80638c1ae6c8116100c3578063afea2e481161007c578063afea2e48146102d2578063b58eb63f146102e5578063b927e958146102fa578063c660d1121461030d578063deb8e01814610320578063fe6bcd7c1461034657600080fd5b80638c1ae6c8146102805780638f63d6671461028e5780639551a0a7146102995780639670c0bc146102805780639acd81b3146102ac578063a5d5db0c146102bf57600080fd5b80634ae9b8bc116101155780634ae9b8bc1461021d57806359aa9e72146102245780635e50ca371461022b5780636c8102c01461023e5780637b510fe8146102455780637d1a44501461026d57600080fd5b806301f72884146101525780631c08adda146101785780632ac3779f146101bc57806331e92b83146101d157806345187a071461020a575b600080fd5b610165610160366004610df7565b610359565b6040519081526020015b60405180910390f35b6101a4610186366004610e35565b6001600160a01b039081166000908152600160205260409020541690565b6040516001600160a01b03909116815260200161016f565b6101cf6101ca366004610e50565b61036e565b005b6101656101df366004610e83565b6001600160a01b03918216600090815260026020908152604080832093909416825291909152205490565b6101cf610218366004610eb6565b610386565b6032610165565b600a610165565b6101cf610239366004610ef3565b6104a2565b6064610165565b610258610253366004610e35565b6104dc565b6040805192835260208301919091520161016f565b61016561027b366004610e35565b6104f2565b670de0b6b3a7640000610165565b6402540be400610165565b6101cf6102a7366004610ef3565b61056f565b6101cf6102ba366004610f0c565b6106a3565b6101cf6102cd366004610f0c565b610701565b6101656102e0366004610f0c565b610898565b6102ed610954565b60405161016f9190610f36565b6101cf610308366004610e50565b6109b6565b61016561031b366004610f0c565b6109c9565b7f00000000000000000000000000000000000000000000000000000000000000006101a4565b610165610354366004610e35565b610a74565b60006103658383610a7f565b90505b92915050565b61037883836106a3565b610381816104a2565b505050565b80806000036103a857604051638ee8831760e01b815260040160405180910390fd5b6002600054036103d35760405162461bcd60e51b81526004016103ca90610f82565b60405180910390fd5b600260009081556103e384610ad2565b9050670de0b6b3a764000081111561040e5760405163085048a960e21b815260040160405180910390fd5b600061041a8685610898565b90506000606461042b600a84610fcf565b6104359190610fe6565b905060006104438284611008565b905061045187338a84610af6565b61045c873388610c29565b600061046788610ad2565b90508085036104895760405163454d8e3760e11b815260040160405180910390fd5b61049233610d94565b5050600160005550505050505050565b80806000036104c457604051638ee8831760e01b815260040160405180910390fd5b6104cf333384610c29565b6104d833610d94565b5050565b6000806104e883610dcd565b9094909350915050565b6000805b600454811015610569576000600482815481106105155761051561101b565b60009182526020808320909101546001600160a01b0387811684526002835260408085209190921680855292529091205490915061055382826109c9565b61055d9085611008565b935050506001016104f6565b50919050565b808060000361059157604051638ee8831760e01b815260040160405180910390fd5b6002600054036105b35760405162461bcd60e51b81526004016103ca90610f82565b6002600090815533815260036020526040812080548492906105d6908490611008565b909155506105e5905033610d94565b6040516340c10f1960e01b8152336004820152602481018390526000907f00000000000000000000000000000000000000000000000000000000000000006001600160a01b0316906340c10f19906044016020604051808303816000875af1158015610655573d6000803e3d6000fd5b505050506040513d601f19601f820116820180604052508101906106799190611031565b905080610699576040516302bac73d60e61b815260040160405180910390fd5b5050600160005550565b80806000036106c557604051638ee8831760e01b815260040160405180910390fd5b6002600054036106e75760405162461bcd60e51b81526004016103ca90610f82565b60026000556106f833808585610af6565b61069933610d94565b808060000361072357604051638ee8831760e01b815260040160405180910390fd5b6001600160a01b0380841660009081526001602052604090205484911661075d5760405163734457d360e01b815260040160405180910390fd5b60026000540361077f5760405162461bcd60e51b81526004016103ca90610f82565b60026000818155338152602091825260408082206001600160a01b038816835290925290812080548592906107b5908490611008565b909155505060405183906001600160a01b0386169033907ff1c0dd7e9b98bbff859029005ef89b127af049cd18df1a8d79f0b7e019911e5690600090a46040516323b872dd60e01b8152336004820152306024820152604481018490526000906001600160a01b038616906323b872dd906064016020604051808303816000875af1158015610848573d6000803e3d6000fd5b505050506040513d601f19601f8201168201806040525081019061086c9190611031565b90508061088c576040516309e52b0360e21b815260040160405180910390fd5b50506001600055505050565b6001600160a01b03808316600090815260016020526040808220548151633fabe5a360e21b81529151929316918391839163feaf968c9160048082019260a0929091908290030181865afa1580156108f4573d6000803e3d6000fd5b505050506040513d601f19601f820116820180604052508101906109189190611074565b5050509150506402540be4008161092f9190610fcf565b610941670de0b6b3a764000086610fcf565b61094b9190610fe6565b95945050505050565b606060048054806020026020016040519081016040528092919081815260200182805480156109ac57602002820191906000526020600020905b81546001600160a01b0316815260019091019060200180831161098e575b5050505050905090565b6109c08383610701565b6103818161056f565b6001600160a01b03808316600090815260016020526040808220548151633fabe5a360e21b81529151929316918391839163feaf968c9160048082019260a0929091908290030181865afa158015610a25573d6000803e3d6000fd5b505050506040513d601f19601f82011682018060405250810190610a499190611074565b505050915050670de0b6b3a7640000846402540be40083610a6a9190610fcf565b6109419190610fcf565b600061036882610ad2565b600082600003610a925750600019610368565b60006064610aa1603285610fcf565b610aab9190610fe6565b905083610ac0670de0b6b3a764000083610fcf565b610aca9190610fe6565b949350505050565b6000806000610ae084610dcd565b91509150610aee8282610a7f565b505050919050565b6001600160a01b03808516600090815260026020908152604080832093861683529290529081208054839290610b2d9084906110c6565b92505081905550816001600160a01b0316836001600160a01b0316856001600160a01b03167fb292db12b8dfa23b760ee5e3bd1d3be184cd8f0eeeacd27ce120d4de4e4721f684604051610b8391815260200190565b60405180910390a460405163a9059cbb60e01b81526001600160a01b038481166004830152602482018390526000919084169063a9059cbb906044016020604051808303816000875af1158015610bde573d6000803e3d6000fd5b505050506040513d601f19601f82011682018060405250810190610c029190611031565b905080610c225760405163296032f160e21b815260040160405180910390fd5b5050505050565b6001600160a01b03831660009081526003602052604081208054839290610c519084906110c6565b90915550506040516323b872dd60e01b81526001600160a01b038381166004830152306024830152604482018390526000917f0000000000000000000000000000000000000000000000000000000000000000909116906323b872dd906064016020604051808303816000875af1158015610cd0573d6000803e3d6000fd5b505050506040513d601f19601f82011682018060405250810190610cf49190611031565b905080610d145760405163e05f3dbf60e01b815260040160405180910390fd5b604051630852cd8d60e31b8152600481018390527f00000000000000000000000000000000000000000000000000000000000000006001600160a01b0316906342966c6890602401600060405180830381600087803b158015610d7657600080fd5b505af1158015610d8a573d6000803e3d6000fd5b5050505050505050565b6000610d9f82610ad2565b9050670de0b6b3a76400008110156104d857604051637905b28360e01b8152600481018290526024016103ca565b6001600160a01b03811660009081526003602052604081205490610df0836104f2565b9050915091565b60008060408385031215610e0a57600080fd5b50508035926020909101359150565b80356001600160a01b0381168114610e3057600080fd5b919050565b600060208284031215610e4757600080fd5b61036582610e19565b600080600060608486031215610e6557600080fd5b610e6e84610e19565b95602085013595506040909401359392505050565b60008060408385031215610e9657600080fd5b610e9f83610e19565b9150610ead60208401610e19565b90509250929050565b600080600060608486031215610ecb57600080fd5b610ed484610e19565b9250610ee260208501610e19565b929592945050506040919091013590565b600060208284031215610f0557600080fd5b5035919050565b60008060408385031215610f1f57600080fd5b610f2883610e19565b946020939093013593505050565b602080825282518282018190526000918401906040840190835b81811015610f775783516001600160a01b0316835260209384019390920191600101610f50565b509095945050505050565b6020808252601f908201527f5265656e7472616e637947756172643a207265656e7472616e742063616c6c00604082015260600190565b634e487b7160e01b600052601160045260246000fd5b808202811582820484141761036857610368610fb9565b60008261100357634e487b7160e01b600052601260045260246000fd5b500490565b8082018082111561036857610368610fb9565b634e487b7160e01b600052603260045260246000fd5b60006020828403121561104357600080fd5b8151801515811461105357600080fd5b9392505050565b805169ffffffffffffffffffff81168114610e3057600080fd5b600080600080600060a0868803121561108c57600080fd5b6110958661105a565b602087015160408801516060890151929750909550935091506110ba6080870161105a565b90509295509295909350565b8181038181111561036857610368610fb956fea264697066735822122026190d314bc1c75460793648611c3eb5482a439bab2b2d099a0f5975dda2a6d964736f6c634300081a0033","linkReferences":{}},"methodIdentifiers":{"RedeemCollateralForCSD(address,uint256,uint256)":"2ac3779f","burnCsd(uint256)":"5e50ca37","calculateHealthFactor(uint256,uint256)":"01f72884","depositCollateral(address,uint256)":"a5d5db0c","depositCollateralAndMintCSD(address,uint256,uint256)":"b927e958","getAccountCollateralValue(address)":"7d1a4450","getAccountInfo(address)":"7b510fe8","getAdditionalFeedPrecision()":"8f63d667","getCollateralBalanceOfUser(address,address)":"31e92b83","getCollateralTokenPriceFeed(address)":"1c08adda","getCollateralTokens()":"b58eb63f","getDsc()":"deb8e018","getHealthFactor(address)":"fe6bcd7c","getLiquidationBonus()":"59aa9e72","getLiquidationPrecision()":"6c8102c0","getLiquidationThreshold()":"4ae9b8bc","getMinHealthFactor()":"8c1ae6c8","getPrecision()":"9670c0bc","getTokenAmountFromUsd(address,uint256)":"afea2e48","getUsdValue(address,uint256)":"c660d112","liqudate(address,address,uint256)":"45187a07","mintCsd(uint256)":"9551a0a7","redeemCollateral(address,uint256)":"9acd81b3"},"id":35}