{"abi":[{"type":"constructor","inputs":[{"name":"tokenAddresses","type":"address[]","internalType":"address[]"},{"name":"priceFeedAddresses","type":"address[]","internalType":"address[]"},{"name":"csdAddress","type":"address","internalType":"address"}],"stateMutability":"nonpayable"},{"type":"function","name":"RedeemCollateralForCSD","inputs":[{"name":"tokenAddress","type":"address","internalType":"address"},{"name":"amountCollateral","type":"uint256","internalType":"uint256"},{"name":"amountCSDtoBurn","type":"uint256","internalType":"uint256"}],"outputs":[],"stateMutability":"nonpayable"},{"type":"function","name":"burnCsd","inputs":[{"name":"amount","type":"uint256","internalType":"uint256"}],"outputs":[],"stateMutability":"nonpayable"},{"type":"function","name":"depositCollateral","inputs":[{"name":"tokenCollateralAddress","type":"address","internalType":"address"},{"name":"amountCollateral","type":"uint256","internalType":"uint256"}],"outputs":[],"stateMutability":"nonpayable"},{"type":"function","name":"depositCollateralAndMintCSD","inputs":[{"name":"tokenCollateralAddress","type":"address","internalType":"address"},{"name":"amountCollateral","type":"uint256","internalType":"uint256"},{"name":"amountCsdToMint","type":"uint256","internalType":"uint256"}],"outputs":[],"stateMutability":"nonpayable"},{"type":"function","name":"getAccountCollateralValue","inputs":[{"name":"user","type":"address","internalType":"address"}],"outputs":[{"name":"totalCollateralValueInUsd","type":"uint256","internalType":"uint256"}],"stateMutability":"view"},{"type":"function","name":"getAccountInfo","inputs":[{"name":"user","type":"address","internalType":"address"}],"outputs":[{"name":"totalCsdMinted","type":"uint256","internalType":"uint256"},{"name":"totalCollateralValueInUsd","type":"uint256","internalType":"uint256"}],"stateMutability":"view"},{"type":"function","name":"getTokenAmountFromUsd","inputs":[{"name":"token","type":"address","internalType":"address"},{"name":"usdAmountInWei","type":"uint256","internalType":"uint256"}],"outputs":[{"name":"","type":"uint256","internalType":"uint256"}],"stateMutability":"view"},{"type":"function","name":"getUsdValue","inputs":[{"name":"token","type":"address","internalType":"address"},{"name":"amount","type":"uint256","internalType":"uint256"}],"outputs":[{"name":"","type":"uint256","internalType":"uint256"}],"stateMutability":"view"},{"type":"function","name":"liqudate","inputs":[{"name":"collateral","type":"address","internalType":"address"},{"name":"user","type":"address","internalType":"address"},{"name":"debtToCover","type":"uint256","internalType":"uint256"}],"outputs":[],"stateMutability":"nonpayable"},{"type":"function","name":"mintCsd","inputs":[{"name":"amountCsdToMint","type":"uint256","internalType":"uint256"}],"outputs":[],"stateMutability":"nonpayable"},{"type":"function","name":"redeemCollateral","inputs":[{"name":"tokenAddress","type":"address","internalType":"address"},{"name":"amountCollateral","type":"uint256","internalType":"uint256"}],"outputs":[],"stateMutability":"nonpayable"},{"type":"event","name":"CollateralDeposited","inputs":[{"name":"sender","type":"address","indexed":true,"internalType":"address"},{"name":"tokenAddress","type":"address","indexed":true,"internalType":"address"},{"name":"amount","type":"uint256","indexed":true,"internalType":"uint256"}],"anonymous":false},{"type":"event","name":"CollateralRedeemed","inputs":[{"name":"redeemedFrom","type":"address","indexed":true,"internalType":"address"},{"name":"redeemedTo","type":"address","indexed":true,"internalType":"address"},{"name":"tokenAddress","type":"address","indexed":true,"internalType":"address"},{"name":"amountCollateral","type":"uint256","indexed":false,"internalType":"uint256"}],"anonymous":false},{"type":"error","name":"CSDEngine__AmountIsZero","inputs":[]},{"type":"error","name":"CSDEngine__CollateralDepositFailed","inputs":[]},{"type":"error","name":"CSDEngine__CollateralRedeemFailed","inputs":[]},{"type":"error","name":"CSDEngine__HEALTHFACTORDANGER","inputs":[{"name":"userHealthFactor","type":"uint256","internalType":"uint256"}]},{"type":"error","name":"CSDEngine__MintRequestFailed","inputs":[]},{"type":"error","name":"CSDEngine__PriceFeedArrayLengthAndTokenAddressArrayLengthMismatch","inputs":[]},{"type":"error","name":"CSDEngine__TokenNotAllowed","inputs":[]},{"type":"error","name":"CSDEngine__TransactionFailed","inputs":[]},{"type":"error","name":"HealthFactorNOTIMPROVED","inputs":[]},{"type":"error","name":"HealthFactorOk","inputs":[]}],"bytecode":{"object":"0x60a060405234801561001057600080fd5b50604051611c6d380380611c6d833981810160405281019061003291906103c5565b60016000819055508151835114610075576040517f833d657100000000000000000000000000000000000000000000000000000000815260040160405180910390fd5b60005b83518110156101bd5782818151811061009457610093610450565b5b6020026020010151600160008684815181106100b3576100b2610450565b5b602002602001015173ffffffffffffffffffffffffffffffffffffffff1673ffffffffffffffffffffffffffffffffffffffff16815260200190815260200160002060006101000a81548173ffffffffffffffffffffffffffffffffffffffff021916908373ffffffffffffffffffffffffffffffffffffffff160217905550600484828151811061014857610147610450565b5b60200260200101519080600181540180825580915050600190039060005260206000200160009091909190916101000a81548173ffffffffffffffffffffffffffffffffffffffff021916908373ffffffffffffffffffffffffffffffffffffffff1602179055508080600101915050610078565b508073ffffffffffffffffffffffffffffffffffffffff1660808173ffffffffffffffffffffffffffffffffffffffff168152505050505061047f565b6000604051905090565b600080fd5b600080fd5b600080fd5b6000601f19601f8301169050919050565b7f4e487b7100000000000000000000000000000000000000000000000000000000600052604160045260246000fd5b61025c82610213565b810181811067ffffffffffffffff8211171561027b5761027a610224565b5b80604052505050565b600061028e6101fa565b905061029a8282610253565b919050565b600067ffffffffffffffff8211156102ba576102b9610224565b5b602082029050602081019050919050565b600080fd5b600073ffffffffffffffffffffffffffffffffffffffff82169050919050565b60006102fb826102d0565b9050919050565b61030b816102f0565b811461031657600080fd5b50565b60008151905061032881610302565b92915050565b600061034161033c8461029f565b610284565b90508083825260208201905060208402830185811115610364576103636102cb565b5b835b8181101561038d57806103798882610319565b845260208401935050602081019050610366565b5050509392505050565b600082601f8301126103ac576103ab61020e565b5b81516103bc84826020860161032e565b91505092915050565b6000806000606084860312156103de576103dd610204565b5b600084015167ffffffffffffffff8111156103fc576103fb610209565b5b61040886828701610397565b935050602084015167ffffffffffffffff81111561042957610428610209565b5b61043586828701610397565b925050604061044686828701610319565b9150509250925092565b7f4e487b7100000000000000000000000000000000000000000000000000000000600052603260045260246000fd5b6080516117c56104a86000396000818161063201528181610f87015261106001526117c56000f3fe608060405234801561001057600080fd5b50600436106100a95760003560e01c80639551a0a7116100715780639551a0a7146101635780639acd81b31461017f578063a5d5db0c1461019b578063afea2e48146101b7578063b927e958146101e7578063c660d11214610203576100a9565b80632ac3779f146100ae57806345187a07146100ca5780635e50ca37146100e65780637b510fe8146101025780637d1a445014610133575b600080fd5b6100c860048036038101906100c3919061123b565b610233565b005b6100e460048036038101906100df919061128e565b61024b565b005b61010060048036038101906100fb91906112e1565b6103d6565b005b61011c6004803603810190610117919061130e565b610429565b60405161012a92919061134a565b60405180910390f35b61014d6004803603810190610148919061130e565b610442565b60405161015a9190611373565b60405180910390f35b61017d600480360381019061017891906112e1565b610547565b005b6101996004803603810190610194919061138e565b610714565b005b6101b560048036038101906101b0919061138e565b6107be565b005b6101d160048036038101906101cc919061138e565b610ac4565b6040516101de9190611373565b60405180910390f35b61020160048036038101906101fc919061123b565b610bd9565b005b61021d6004803603810190610218919061138e565b610bf1565b60405161022a9190611373565b60405180910390f35b61023d8383610714565b610246816103d6565b505050565b8060008103610286576040517f8ee8831700000000000000000000000000000000000000000000000000000000815260040160405180910390fd5b6002600054036102cb576040517f08c379a00000000000000000000000000000000000000000000000000000000081526004016102c29061142b565b60405180910390fd5b600260008190555060006102de84610d06565b9050670de0b6b3a7640000811115610322576040517f214122a400000000000000000000000000000000000000000000000000000000815260040160405180910390fd5b600061032e8685610ac4565b905060006064600a83610341919061147a565b61034b91906114eb565b90506000818361035b919061151c565b905061036987338a84610d5e565b610374873388610f2d565b600061037f88610d06565b90508085036103ba576040517f8a9b1c6e00000000000000000000000000000000000000000000000000000000815260040160405180910390fd5b6103c3336110ef565b5050505050600160008190555050505050565b8060008103610411576040517f8ee8831700000000000000000000000000000000000000000000000000000000815260040160405180910390fd5b61041c333384610f2d565b610425336110ef565b5050565b6000806104358361114d565b8092508193505050915091565b600080600090505b6004805490508110156105415760006004828154811061046d5761046c611550565b5b9060005260206000200160009054906101000a900473ffffffffffffffffffffffffffffffffffffffff1690506000600260008673ffffffffffffffffffffffffffffffffffffffff1673ffffffffffffffffffffffffffffffffffffffff16815260200190815260200160002060008373ffffffffffffffffffffffffffffffffffffffff1673ffffffffffffffffffffffffffffffffffffffff1681526020019081526020016000205490506105258282610bf1565b84610530919061151c565b93505050808060010191505061044a565b50919050565b8060008103610582576040517f8ee8831700000000000000000000000000000000000000000000000000000000815260040160405180910390fd5b6002600054036105c7576040517f08c379a00000000000000000000000000000000000000000000000000000000081526004016105be9061142b565b60405180910390fd5b600260008190555081600360003373ffffffffffffffffffffffffffffffffffffffff1673ffffffffffffffffffffffffffffffffffffffff168152602001908152602001600020600082825461061e919061151c565b9250508190555061062e336110ef565b60007f000000000000000000000000000000000000000000000000000000000000000073ffffffffffffffffffffffffffffffffffffffff166340c10f1933856040518363ffffffff1660e01b815260040161068b92919061158e565b6020604051808303816000875af11580156106aa573d6000803e3d6000fd5b505050506040513d601f19601f820116820180604052508101906106ce91906115ef565b905080610707576040517faeb1cf4000000000000000000000000000000000000000000000000000000000815260040160405180910390fd5b5060016000819055505050565b806000810361074f576040517f8ee8831700000000000000000000000000000000000000000000000000000000815260040160405180910390fd5b600260005403610794576040517f08c379a000000000000000000000000000000000000000000000000000000000815260040161078b9061142b565b60405180910390fd5b60026000819055506107a833338585610d5e565b6107b1336110ef565b6001600081905550505050565b80600081036107f9576040517f8ee8831700000000000000000000000000000000000000000000000000000000815260040160405180910390fd5b82600073ffffffffffffffffffffffffffffffffffffffff16600160008373ffffffffffffffffffffffffffffffffffffffff1673ffffffffffffffffffffffffffffffffffffffff16815260200190815260200160002060009054906101000a900473ffffffffffffffffffffffffffffffffffffffff1673ffffffffffffffffffffffffffffffffffffffff16036108bf576040517f734457d300000000000000000000000000000000000000000000000000000000815260040160405180910390fd5b600260005403610904576040517f08c379a00000000000000000000000000000000000000000000000000000000081526004016108fb9061142b565b60405180910390fd5b600260008190555082600260003373ffffffffffffffffffffffffffffffffffffffff1673ffffffffffffffffffffffffffffffffffffffff16815260200190815260200160002060008673ffffffffffffffffffffffffffffffffffffffff1673ffffffffffffffffffffffffffffffffffffffff1681526020019081526020016000206000828254610998919061151c565b92505081905550828473ffffffffffffffffffffffffffffffffffffffff163373ffffffffffffffffffffffffffffffffffffffff167ff1c0dd7e9b98bbff859029005ef89b127af049cd18df1a8d79f0b7e019911e5660405160405180910390a460008473ffffffffffffffffffffffffffffffffffffffff166323b872dd3330876040518463ffffffff1660e01b8152600401610a399392919061161c565b6020604051808303816000875af1158015610a58573d6000803e3d6000fd5b505050506040513d601f19601f82011682018060405250810190610a7c91906115ef565b905080610ab5576040517f2794ac0c00000000000000000000000000000000000000000000000000000000815260040160405180910390fd5b50600160008190555050505050565b600080600160008573ffffffffffffffffffffffffffffffffffffffff1673ffffffffffffffffffffffffffffffffffffffff16815260200190815260200160002060009054906101000a900473ffffffffffffffffffffffffffffffffffffffff16905060008173ffffffffffffffffffffffffffffffffffffffff1663feaf968c6040518163ffffffff1660e01b815260040160a060405180830381865afa158015610b76573d6000803e3d6000fd5b505050506040513d601f19601f82011682018060405250810190610b9a91906116e0565b5050509150506402540be40081610bb1919061147a565b670de0b6b3a764000085610bc5919061147a565b610bcf91906114eb565b9250505092915050565b610be383836107be565b610bec81610547565b505050565b600080600160008573ffffffffffffffffffffffffffffffffffffffff1673ffffffffffffffffffffffffffffffffffffffff16815260200190815260200160002060009054906101000a900473ffffffffffffffffffffffffffffffffffffffff16905060008173ffffffffffffffffffffffffffffffffffffffff1663feaf968c6040518163ffffffff1660e01b815260040160a060405180830381865afa158015610ca3573d6000803e3d6000fd5b505050506040513d601f19601f82011682018060405250810190610cc791906116e0565b505050915050670de0b6b3a7640000846402540be40083610ce8919061147a565b610cf2919061147a565b610cfc91906114eb565b9250505092915050565b6000806000610d148461114d565b9150915060006064603283610d29919061147a565b610d3391906114eb565b905082670de0b6b3a764000082610d4a919061147a565b610d5491906114eb565b9350505050919050565b80600260008673ffffffffffffffffffffffffffffffffffffffff1673ffffffffffffffffffffffffffffffffffffffff16815260200190815260200160002060008473ffffffffffffffffffffffffffffffffffffffff1673ffffffffffffffffffffffffffffffffffffffff1681526020019081526020016000206000828254610dea919061175b565b925050819055508173ffffffffffffffffffffffffffffffffffffffff168373ffffffffffffffffffffffffffffffffffffffff168573ffffffffffffffffffffffffffffffffffffffff167fb292db12b8dfa23b760ee5e3bd1d3be184cd8f0eeeacd27ce120d4de4e4721f684604051610e659190611373565b60405180910390a460008273ffffffffffffffffffffffffffffffffffffffff1663a9059cbb85846040518363ffffffff1660e01b8152600401610eaa92919061158e565b6020604051808303816000875af1158015610ec9573d6000803e3d6000fd5b505050506040513d601f19601f82011682018060405250810190610eed91906115ef565b905080610f26576040517fa580cbc400000000000000000000000000000000000000000000000000000000815260040160405180910390fd5b5050505050565b80600360008573ffffffffffffffffffffffffffffffffffffffff1673ffffffffffffffffffffffffffffffffffffffff1681526020019081526020016000206000828254610f7c919061175b565b9250508190555060007f000000000000000000000000000000000000000000000000000000000000000073ffffffffffffffffffffffffffffffffffffffff166323b872dd8430856040518463ffffffff1660e01b8152600401610fe29392919061161c565b6020604051808303816000875af1158015611001573d6000803e3d6000fd5b505050506040513d601f19601f8201168201806040525081019061102591906115ef565b90508061105e576040517fe05f3dbf00000000000000000000000000000000000000000000000000000000815260040160405180910390fd5b7f000000000000000000000000000000000000000000000000000000000000000073ffffffffffffffffffffffffffffffffffffffff166342966c68836040518263ffffffff1660e01b81526004016110b79190611373565b600060405180830381600087803b1580156110d157600080fd5b505af11580156110e5573d6000803e3d6000fd5b5050505050505050565b60006110fa82610d06565b9050670de0b6b3a764000081101561114957806040517f7905b2830000000000000000000000000000000000000000000000000000000081526004016111409190611373565b60405180910390fd5b5050565b600080600360008473ffffffffffffffffffffffffffffffffffffffff1673ffffffffffffffffffffffffffffffffffffffff16815260200190815260200160002054915061119b83610442565b9050915091565b600080fd5b600073ffffffffffffffffffffffffffffffffffffffff82169050919050565b60006111d2826111a7565b9050919050565b6111e2816111c7565b81146111ed57600080fd5b50565b6000813590506111ff816111d9565b92915050565b6000819050919050565b61121881611205565b811461122357600080fd5b50565b6000813590506112358161120f565b92915050565b600080600060608486031215611254576112536111a2565b5b6000611262868287016111f0565b935050602061127386828701611226565b925050604061128486828701611226565b9150509250925092565b6000806000606084860312156112a7576112a66111a2565b5b60006112b5868287016111f0565b93505060206112c6868287016111f0565b92505060406112d786828701611226565b9150509250925092565b6000602082840312156112f7576112f66111a2565b5b600061130584828501611226565b91505092915050565b600060208284031215611324576113236111a2565b5b6000611332848285016111f0565b91505092915050565b61134481611205565b82525050565b600060408201905061135f600083018561133b565b61136c602083018461133b565b9392505050565b6000602082019050611388600083018461133b565b92915050565b600080604083850312156113a5576113a46111a2565b5b60006113b3858286016111f0565b92505060206113c485828601611226565b9150509250929050565b600082825260208201905092915050565b7f5265656e7472616e637947756172643a207265656e7472616e742063616c6c00600082015250565b6000611415601f836113ce565b9150611420826113df565b602082019050919050565b6000602082019050818103600083015261144481611408565b9050919050565b7f4e487b7100000000000000000000000000000000000000000000000000000000600052601160045260246000fd5b600061148582611205565b915061149083611205565b925082820261149e81611205565b915082820484148315176114b5576114b461144b565b5b5092915050565b7f4e487b7100000000000000000000000000000000000000000000000000000000600052601260045260246000fd5b60006114f682611205565b915061150183611205565b925082611511576115106114bc565b5b828204905092915050565b600061152782611205565b915061153283611205565b925082820190508082111561154a5761154961144b565b5b92915050565b7f4e487b7100000000000000000000000000000000000000000000000000000000600052603260045260246000fd5b611588816111c7565b82525050565b60006040820190506115a3600083018561157f565b6115b0602083018461133b565b9392505050565b60008115159050919050565b6115cc816115b7565b81146115d757600080fd5b50565b6000815190506115e9816115c3565b92915050565b600060208284031215611605576116046111a2565b5b6000611613848285016115da565b91505092915050565b6000606082019050611631600083018661157f565b61163e602083018561157f565b61164b604083018461133b565b949350505050565b600069ffffffffffffffffffff82169050919050565b61167281611653565b811461167d57600080fd5b50565b60008151905061168f81611669565b92915050565b6000819050919050565b6116a881611695565b81146116b357600080fd5b50565b6000815190506116c58161169f565b92915050565b6000815190506116da8161120f565b92915050565b600080600080600060a086880312156116fc576116fb6111a2565b5b600061170a88828901611680565b955050602061171b888289016116b6565b945050604061172c888289016116cb565b935050606061173d888289016116cb565b925050608061174e88828901611680565b9150509295509295909350565b600061176682611205565b915061177183611205565b92508282039050818111156117895761178861144b565b5b9291505056fea26469706673582212201641f48e2ea44379b01b6dfb2eefc4c837721fe4d5dc9cca6fc6c74691f6837764736f6c634300081a0033","linkReferences":{}},"methodIdentifiers":{"RedeemCollateralForCSD(address,uint256,uint256)":"2ac3779f","burnCsd(uint256)":"5e50ca37","depositCollateral(address,uint256)":"a5d5db0c","depositCollateralAndMintCSD(address,uint256,uint256)":"b927e958","getAccountCollateralValue(address)":"7d1a4450","getAccountInfo(address)":"7b510fe8","getTokenAmountFromUsd(address,uint256)":"afea2e48","getUsdValue(address,uint256)":"c660d112","liqudate(address,address,uint256)":"45187a07","mintCsd(uint256)":"9551a0a7","redeemCollateral(address,uint256)":"9acd81b3"},"id":35}