{"abi":[{"type":"constructor","inputs":[{"name":"tokenAddresses","type":"address[]","internalType":"address[]"},{"name":"priceFeedAddresses","type":"address[]","internalType":"address[]"},{"name":"csdAddress","type":"address","internalType":"address"}],"stateMutability":"nonpayable"},{"type":"function","name":"RedeemCollateralForCSD","inputs":[],"outputs":[],"stateMutability":"nonpayable"},{"type":"function","name":"burnCsd","inputs":[],"outputs":[],"stateMutability":"nonpayable"},{"type":"function","name":"depositCollateral","inputs":[{"name":"tokenCollateralAddress","type":"address","internalType":"address"},{"name":"amountCollateral","type":"uint256","internalType":"uint256"}],"outputs":[],"stateMutability":"nonpayable"},{"type":"function","name":"depositCollateralAndMintCSD","inputs":[],"outputs":[],"stateMutability":"nonpayable"},{"type":"function","name":"getAccountCollateralValue","inputs":[{"name":"user","type":"address","internalType":"address"}],"outputs":[{"name":"totalCollateralValueInUsd","type":"uint256","internalType":"uint256"}],"stateMutability":"view"},{"type":"function","name":"getHealthFactor","inputs":[],"outputs":[],"stateMutability":"nonpayable"},{"type":"function","name":"getUsdValue","inputs":[{"name":"token","type":"address","internalType":"address"},{"name":"amount","type":"uint256","internalType":"uint256"}],"outputs":[{"name":"","type":"uint256","internalType":"uint256"}],"stateMutability":"view"},{"type":"function","name":"liqudate","inputs":[],"outputs":[],"stateMutability":"nonpayable"},{"type":"function","name":"mintCsd","inputs":[{"name":"amountCsdToMint","type":"uint256","internalType":"uint256"}],"outputs":[],"stateMutability":"nonpayable"},{"type":"function","name":"redeemCollateral","inputs":[],"outputs":[],"stateMutability":"nonpayable"},{"type":"event","name":"CollateralDeposited","inputs":[{"name":"sender","type":"address","indexed":true,"internalType":"address"},{"name":"tokenAddress","type":"address","indexed":true,"internalType":"address"},{"name":"amount","type":"uint256","indexed":true,"internalType":"uint256"}],"anonymous":false},{"type":"error","name":"CSDEngine__AmountIsZero","inputs":[]},{"type":"error","name":"CSDEngine__CollateralDepositFailed","inputs":[]},{"type":"error","name":"CSDEngine__HEALTHFACTORDANGER","inputs":[{"name":"userHealthFactor","type":"uint256","internalType":"uint256"}]},{"type":"error","name":"CSDEngine__PriceFeedArrayLengthAndTokenAddressArrayLengthMismatch","inputs":[]},{"type":"error","name":"CSDEngine__TokenNotAllowed","inputs":[]}],"bytecode":{"object":"0x60a060405234801561001057600080fd5b506040516109f73803806109f783398101604081905261002f91610224565b600160005581518351146100565760405163833d657160e01b815260040160405180910390fd5b60005b8351811015610137578281815181106100745761007461029d565b6020026020010151600160008684815181106100925761009261029d565b60200260200101516001600160a01b03166001600160a01b0316815260200190815260200160002060006101000a8154816001600160a01b0302191690836001600160a01b0316021790555060048482815181106100f2576100f261029d565b60209081029190910181015182546001808201855560009485529290932090920180546001600160a01b0319166001600160a01b039093169290921790915501610059565b506001600160a01b0316608052506102b39050565b634e487b7160e01b600052604160045260246000fd5b80516001600160a01b038116811461017957600080fd5b919050565b600082601f83011261018f57600080fd5b81516001600160401b038111156101a8576101a861014c565b604051600582901b90603f8201601f191681016001600160401b03811182821017156101d6576101d661014c565b6040529182526020818501810192908101868411156101f457600080fd5b6020860192505b8383101561021a5761020c83610162565b8152602092830192016101fb565b5095945050505050565b60008060006060848603121561023957600080fd5b83516001600160401b0381111561024f57600080fd5b61025b8682870161017e565b602086015190945090506001600160401b0381111561027957600080fd5b6102858682870161017e565b92505061029460408501610162565b90509250925092565b634e487b7160e01b600052603260045260246000fd5b60805161072c6102cb6000396000505061072c6000f3fe608060405234801561001057600080fd5b506004361061009e5760003560e01c8063a5d5db0c11610066578063a5d5db0c146100dd578063a5f352b7146100a3578063a6534470146100a3578063c660d112146100f0578063dd9fc606146100a357600080fd5b806342677700146100a357806345641b68146100a35780637d1a4450146100a55780638586d1cc146100a35780639551a0a7146100ca575b600080fd5b005b6100b86100b336600461058b565b610103565b60405190815260200160405180910390f35b6100a36100d83660046105ad565b610180565b6100a36100eb3660046105c6565b610234565b6100b86100fe3660046105c6565b6103fb565b6000805b60045481101561017a57600060048281548110610126576101266105f0565b60009182526020808320909101546001600160a01b0387811684526002835260408085209190921680855292529091205490915061016482826103fb565b61016e908561061c565b93505050600101610107565b50919050565b80806000036101a257604051638ee8831760e01b815260040160405180910390fd5b6002600054036101f95760405162461bcd60e51b815260206004820152601f60248201527f5265656e7472616e637947756172643a207265656e7472616e742063616c6c0060448201526064015b60405180910390fd5b60026000908155338152600360205260408120805484929061021c90849061061c565b9091555061022b9050336104bb565b50506001600055565b808060000361025657604051638ee8831760e01b815260040160405180910390fd5b6001600160a01b038084166000908152600160205260409020548491166102905760405163734457d360e01b815260040160405180910390fd5b6002600054036102e25760405162461bcd60e51b815260206004820152601f60248201527f5265656e7472616e637947756172643a207265656e7472616e742063616c6c0060448201526064016101f0565b60026000818155338152602091825260408082206001600160a01b0388168352909252908120805485929061031890849061061c565b909155505060405183906001600160a01b0386169033907ff1c0dd7e9b98bbff859029005ef89b127af049cd18df1a8d79f0b7e019911e5690600090a46040516323b872dd60e01b8152336004820152306024820152604481018490526000906001600160a01b038616906323b872dd906064016020604051808303816000875af11580156103ab573d6000803e3d6000fd5b505050506040513d601f19601f820116820180604052508101906103cf919061062f565b9050806103ef576040516309e52b0360e21b815260040160405180910390fd5b50506001600055505050565b6001600160a01b03808316600090815260016020526040808220548151633fabe5a360e21b81529151929316918391839163feaf968c9160048082019260a0929091908290030181865afa158015610457573d6000803e3d6000fd5b505050506040513d601f19601f8201168201806040525081019061047b919061066b565b505050915050670de0b6b3a7640000846402540be4008361049c91906106bd565b6104a691906106bd565b6104b091906106d4565b925050505b92915050565b60006104c6826104f1565b905060018110156104ed57604051637905b28360e01b8152600481018290526024016101f0565b5050565b60008060006104ff84610545565b9092509050600060646105136032846106bd565b61051d91906106d4565b905082610532670de0b6b3a7640000836106bd565b61053c91906106d4565b95945050505050565b6001600160a01b0381166000908152600360205260408120549061056883610103565b9050915091565b80356001600160a01b038116811461058657600080fd5b919050565b60006020828403121561059d57600080fd5b6105a68261056f565b9392505050565b6000602082840312156105bf57600080fd5b5035919050565b600080604083850312156105d957600080fd5b6105e28361056f565b946020939093013593505050565b634e487b7160e01b600052603260045260246000fd5b634e487b7160e01b600052601160045260246000fd5b808201808211156104b5576104b5610606565b60006020828403121561064157600080fd5b815180151581146105a657600080fd5b805169ffffffffffffffffffff8116811461058657600080fd5b600080600080600060a0868803121561068357600080fd5b61068c86610651565b602087015160408801516060890151929750909550935091506106b160808701610651565b90509295509295909350565b80820281158282048414176104b5576104b5610606565b6000826106f157634e487b7160e01b600052601260045260246000fd5b50049056fea264697066735822122098a9d6d4f646427385c4665882f90d26aba70d8a936ce9a3b2637237e0980ab864736f6c634300081a0033","linkReferences":{}},"methodIdentifiers":{"RedeemCollateralForCSD()":"dd9fc606","burnCsd()":"45641b68","depositCollateral(address,uint256)":"a5d5db0c","depositCollateralAndMintCSD()":"42677700","getAccountCollateralValue(address)":"7d1a4450","getHealthFactor()":"a5f352b7","getUsdValue(address,uint256)":"c660d112","liqudate()":"8586d1cc","mintCsd(uint256)":"9551a0a7","redeemCollateral()":"a6534470"},"id":8}