{"abi":[{"type":"constructor","inputs":[{"name":"tokenAddresses","type":"address[]","internalType":"address[]"},{"name":"priceFeedAddresses","type":"address[]","internalType":"address[]"},{"name":"csdAddress","type":"address","internalType":"address"}],"stateMutability":"nonpayable"},{"type":"function","name":"RedeemCollateralForCSD","inputs":[{"name":"tokenAddress","type":"address","internalType":"address"},{"name":"amountCollateral","type":"uint256","internalType":"uint256"},{"name":"amountCSDtoBurn","type":"uint256","internalType":"uint256"}],"outputs":[],"stateMutability":"nonpayable"},{"type":"function","name":"burnCsd","inputs":[{"name":"amount","type":"uint256","internalType":"uint256"}],"outputs":[],"stateMutability":"nonpayable"},{"type":"function","name":"depositCollateral","inputs":[{"name":"tokenCollateralAddress","type":"address","internalType":"address"},{"name":"amountCollateral","type":"uint256","internalType":"uint256"}],"outputs":[],"stateMutability":"nonpayable"},{"type":"function","name":"depositCollateralAndMintCSD","inputs":[{"name":"tokenCollateralAddress","type":"address","internalType":"address"},{"name":"amountCollateral","type":"uint256","internalType":"uint256"},{"name":"amountCsdToMint","type":"uint256","internalType":"uint256"}],"outputs":[],"stateMutability":"nonpayable"},{"type":"function","name":"getAccountCollateralValue","inputs":[{"name":"user","type":"address","internalType":"address"}],"outputs":[{"name":"totalCollateralValueInUsd","type":"uint256","internalType":"uint256"}],"stateMutability":"view"},{"type":"function","name":"getHealthFactor","inputs":[],"outputs":[],"stateMutability":"nonpayable"},{"type":"function","name":"getTokenAmountFromUsd","inputs":[{"name":"token","type":"address","internalType":"address"},{"name":"usdAmountInWei","type":"uint256","internalType":"uint256"}],"outputs":[{"name":"","type":"uint256","internalType":"uint256"}],"stateMutability":"view"},{"type":"function","name":"getUsdValue","inputs":[{"name":"token","type":"address","internalType":"address"},{"name":"amount","type":"uint256","internalType":"uint256"}],"outputs":[{"name":"","type":"uint256","internalType":"uint256"}],"stateMutability":"view"},{"type":"function","name":"liqudate","inputs":[{"name":"collateral","type":"address","internalType":"address"},{"name":"user","type":"address","internalType":"address"},{"name":"debtToCover","type":"uint256","internalType":"uint256"}],"outputs":[],"stateMutability":"nonpayable"},{"type":"function","name":"mintCsd","inputs":[{"name":"amountCsdToMint","type":"uint256","internalType":"uint256"}],"outputs":[],"stateMutability":"nonpayable"},{"type":"function","name":"redeemCollateral","inputs":[{"name":"tokenAddress","type":"address","internalType":"address"},{"name":"amountCollateral","type":"uint256","internalType":"uint256"}],"outputs":[],"stateMutability":"nonpayable"},{"type":"event","name":"CollateralDeposited","inputs":[{"name":"sender","type":"address","indexed":true,"internalType":"address"},{"name":"tokenAddress","type":"address","indexed":true,"internalType":"address"},{"name":"amount","type":"uint256","indexed":true,"internalType":"uint256"}],"anonymous":false},{"type":"event","name":"CollateralRedeemed","inputs":[{"name":"redeemedFrom","type":"address","indexed":true,"internalType":"address"},{"name":"redeemedTo","type":"address","indexed":true,"internalType":"address"},{"name":"tokenAddress","type":"address","indexed":true,"internalType":"address"},{"name":"amountCollateral","type":"uint256","indexed":false,"internalType":"uint256"}],"anonymous":false},{"type":"error","name":"CSDEngine__AmountIsZero","inputs":[]},{"type":"error","name":"CSDEngine__CollateralDepositFailed","inputs":[]},{"type":"error","name":"CSDEngine__CollateralRedeemFailed","inputs":[]},{"type":"error","name":"CSDEngine__HEALTHFACTORDANGER","inputs":[{"name":"userHealthFactor","type":"uint256","internalType":"uint256"}]},{"type":"error","name":"CSDEngine__MintRequestFailed","inputs":[]},{"type":"error","name":"CSDEngine__PriceFeedArrayLengthAndTokenAddressArrayLengthMismatch","inputs":[]},{"type":"error","name":"CSDEngine__TokenNotAllowed","inputs":[]},{"type":"error","name":"CSDEngine__TransactionFailed","inputs":[]},{"type":"error","name":"HealthFactorNOTIMPROVED","inputs":[]},{"type":"error","name":"HealthFactorOk","inputs":[]}],"bytecode":{"object":"0x60a060405234801561001057600080fd5b506040516110b83803806110b883398101604081905261002f91610224565b600160005581518351146100565760405163833d657160e01b815260040160405180910390fd5b60005b8351811015610137578281815181106100745761007461029d565b6020026020010151600160008684815181106100925761009261029d565b60200260200101516001600160a01b03166001600160a01b0316815260200190815260200160002060006101000a8154816001600160a01b0302191690836001600160a01b0316021790555060048482815181106100f2576100f261029d565b60209081029190910181015182546001808201855560009485529290932090920180546001600160a01b0319166001600160a01b039093169290921790915501610059565b506001600160a01b0316608052506102b39050565b634e487b7160e01b600052604160045260246000fd5b80516001600160a01b038116811461017957600080fd5b919050565b600082601f83011261018f57600080fd5b81516001600160401b038111156101a8576101a861014c565b604051600582901b90603f8201601f191681016001600160401b03811182821017156101d6576101d661014c565b6040529182526020818501810192908101868411156101f457600080fd5b6020860192505b8383101561021a5761020c83610162565b8152602092830192016101fb565b5095945050505050565b60008060006060848603121561023957600080fd5b83516001600160401b0381111561024f57600080fd5b61025b8682870161017e565b602086015190945090506001600160401b0381111561027957600080fd5b6102858682870161017e565b92505061029460408501610162565b90509250925092565b634e487b7160e01b600052603260045260246000fd5b608051610ddc6102dc60003960008181610400015281816109f30152610a980152610ddc6000f3fe608060405234801561001057600080fd5b50600436106100a95760003560e01c80639acd81b3116100715780639acd81b314610121578063a5d5db0c14610134578063a5f352b7146100c1578063afea2e4814610147578063b927e9581461015a578063c660d1121461016d57600080fd5b80632ac3779f146100ae57806345187a07146100c35780635e50ca37146100d65780637d1a4450146100e95780639551a0a71461010e575b600080fd5b6100c16100bc366004610b81565b610180565b005b6100c16100d1366004610bb4565b610198565b6100c16100e4366004610bf1565b6102b4565b6100fc6100f7366004610c0a565b6102ee565b60405190815260200160405180910390f35b6100c161011c366004610bf1565b61036b565b6100c161012f366004610c2c565b61049f565b6100c1610142366004610c2c565b6104fd565b6100fc610155366004610c2c565b610694565b6100c1610168366004610b81565b610752565b6100fc61017b366004610c2c565b610765565b61018a838361049f565b610193816102b4565b505050565b80806000036101ba57604051638ee8831760e01b815260040160405180910390fd5b6002600054036101e55760405162461bcd60e51b81526004016101dc90610c56565b60405180910390fd5b600260009081556101f584610810565b9050670de0b6b3a76400008111156102205760405163085048a960e21b815260040160405180910390fd5b600061022c8685610694565b90506000606461023d600a84610ca3565b6102479190610cba565b905060006102558284610cdc565b905061026387338a84610864565b61026e873388610997565b600061027988610810565b905080850361029b5760405163454d8e3760e11b815260040160405180910390fd5b6102a433610b02565b5050600160005550505050505050565b80806000036102d657604051638ee8831760e01b815260040160405180910390fd5b6102e1333384610997565b6102ea33610b02565b5050565b6000805b6004548110156103655760006004828154811061031157610311610cef565b60009182526020808320909101546001600160a01b0387811684526002835260408085209190921680855292529091205490915061034f8282610765565b6103599085610cdc565b935050506001016102f2565b50919050565b808060000361038d57604051638ee8831760e01b815260040160405180910390fd5b6002600054036103af5760405162461bcd60e51b81526004016101dc90610c56565b6002600090815533815260036020526040812080548492906103d2908490610cdc565b909155506103e1905033610b02565b6040516340c10f1960e01b8152336004820152602481018390526000907f00000000000000000000000000000000000000000000000000000000000000006001600160a01b0316906340c10f19906044016020604051808303816000875af1158015610451573d6000803e3d6000fd5b505050506040513d601f19601f820116820180604052508101906104759190610d05565b905080610495576040516302bac73d60e61b815260040160405180910390fd5b5050600160005550565b80806000036104c157604051638ee8831760e01b815260040160405180910390fd5b6002600054036104e35760405162461bcd60e51b81526004016101dc90610c56565b60026000556104f433808585610864565b61049533610b02565b808060000361051f57604051638ee8831760e01b815260040160405180910390fd5b6001600160a01b038084166000908152600160205260409020548491166105595760405163734457d360e01b815260040160405180910390fd5b60026000540361057b5760405162461bcd60e51b81526004016101dc90610c56565b60026000818155338152602091825260408082206001600160a01b038816835290925290812080548592906105b1908490610cdc565b909155505060405183906001600160a01b0386169033907ff1c0dd7e9b98bbff859029005ef89b127af049cd18df1a8d79f0b7e019911e5690600090a46040516323b872dd60e01b8152336004820152306024820152604481018490526000906001600160a01b038616906323b872dd906064016020604051808303816000875af1158015610644573d6000803e3d6000fd5b505050506040513d601f19601f820116820180604052508101906106689190610d05565b905080610688576040516309e52b0360e21b815260040160405180910390fd5b50506001600055505050565b6001600160a01b03808316600090815260016020526040808220548151633fabe5a360e21b81529151929316918391839163feaf968c9160048082019260a0929091908290030181865afa1580156106f0573d6000803e3d6000fd5b505050506040513d601f19601f820116820180604052508101906107149190610d41565b5050509150506402540be4008161072b9190610ca3565b61073d670de0b6b3a764000086610ca3565b6107479190610cba565b925050505b92915050565b61075c83836104fd565b6101938161036b565b6001600160a01b03808316600090815260016020526040808220548151633fabe5a360e21b81529151929316918391839163feaf968c9160048082019260a0929091908290030181865afa1580156107c1573d6000803e3d6000fd5b505050506040513d601f19601f820116820180604052508101906107e59190610d41565b505050915050670de0b6b3a7640000846402540be400836108069190610ca3565b61073d9190610ca3565b600080600061081e84610b3b565b909250905060006064610832603284610ca3565b61083c9190610cba565b905082610851670de0b6b3a764000083610ca3565b61085b9190610cba565b95945050505050565b6001600160a01b0380851660009081526002602090815260408083209386168352929052908120805483929061089b908490610d93565b92505081905550816001600160a01b0316836001600160a01b0316856001600160a01b03167fb292db12b8dfa23b760ee5e3bd1d3be184cd8f0eeeacd27ce120d4de4e4721f6846040516108f191815260200190565b60405180910390a460405163a9059cbb60e01b81526001600160a01b038481166004830152602482018390526000919084169063a9059cbb906044016020604051808303816000875af115801561094c573d6000803e3d6000fd5b505050506040513d601f19601f820116820180604052508101906109709190610d05565b9050806109905760405163296032f160e21b815260040160405180910390fd5b5050505050565b6001600160a01b038316600090815260036020526040812080548392906109bf908490610d93565b90915550506040516323b872dd60e01b81526001600160a01b038381166004830152306024830152604482018390526000917f0000000000000000000000000000000000000000000000000000000000000000909116906323b872dd906064016020604051808303816000875af1158015610a3e573d6000803e3d6000fd5b505050506040513d601f19601f82011682018060405250810190610a629190610d05565b905080610a825760405163e05f3dbf60e01b815260040160405180910390fd5b604051630852cd8d60e31b8152600481018390527f00000000000000000000000000000000000000000000000000000000000000006001600160a01b0316906342966c6890602401600060405180830381600087803b158015610ae457600080fd5b505af1158015610af8573d6000803e3d6000fd5b5050505050505050565b6000610b0d82610810565b9050670de0b6b3a76400008110156102ea57604051637905b28360e01b8152600481018290526024016101dc565b6001600160a01b03811660009081526003602052604081205490610b5e836102ee565b9050915091565b80356001600160a01b0381168114610b7c57600080fd5b919050565b600080600060608486031215610b9657600080fd5b610b9f84610b65565b95602085013595506040909401359392505050565b600080600060608486031215610bc957600080fd5b610bd284610b65565b9250610be060208501610b65565b929592945050506040919091013590565b600060208284031215610c0357600080fd5b5035919050565b600060208284031215610c1c57600080fd5b610c2582610b65565b9392505050565b60008060408385031215610c3f57600080fd5b610c4883610b65565b946020939093013593505050565b6020808252601f908201527f5265656e7472616e637947756172643a207265656e7472616e742063616c6c00604082015260600190565b634e487b7160e01b600052601160045260246000fd5b808202811582820484141761074c5761074c610c8d565b600082610cd757634e487b7160e01b600052601260045260246000fd5b500490565b8082018082111561074c5761074c610c8d565b634e487b7160e01b600052603260045260246000fd5b600060208284031215610d1757600080fd5b81518015158114610c2557600080fd5b805169ffffffffffffffffffff81168114610b7c57600080fd5b600080600080600060a08688031215610d5957600080fd5b610d6286610d27565b60208701516040880151606089015192975090955093509150610d8760808701610d27565b90509295509295909350565b8181038181111561074c5761074c610c8d56fea26469706673582212202f570f5d57cbb56d928a52677d924593f7b0e3c6632d3ba00d6a4f704c84254a64736f6c634300081a0033","linkReferences":{}},"methodIdentifiers":{"RedeemCollateralForCSD(address,uint256,uint256)":"2ac3779f","burnCsd(uint256)":"5e50ca37","depositCollateral(address,uint256)":"a5d5db0c","depositCollateralAndMintCSD(address,uint256,uint256)":"b927e958","getAccountCollateralValue(address)":"7d1a4450","getHealthFactor()":"a5f352b7","getTokenAmountFromUsd(address,uint256)":"afea2e48","getUsdValue(address,uint256)":"c660d112","liqudate(address,address,uint256)":"45187a07","mintCsd(uint256)":"9551a0a7","redeemCollateral(address,uint256)":"9acd81b3"},"id":35}