{"abi":[{"type":"constructor","inputs":[{"name":"_baseFee","type":"uint96","internalType":"uint96"},{"name":"_gasPrice","type":"uint96","internalType":"uint96"},{"name":"_weiPerUnitLink","type":"int256","internalType":"int256"}],"stateMutability":"nonpayable"},{"type":"function","name":"LINK","inputs":[],"outputs":[{"name":"","type":"address","internalType":"contract LinkTokenInterface"}],"stateMutability":"view"},{"type":"function","name":"LINK_NATIVE_FEED","inputs":[],"outputs":[{"name":"","type":"address","internalType":"contract AggregatorV3Interface"}],"stateMutability":"view"},{"type":"function","name":"MAX_CONSUMERS","inputs":[],"outputs":[{"name":"","type":"uint16","internalType":"uint16"}],"stateMutability":"view"},{"type":"function","name":"acceptOwnership","inputs":[],"outputs":[],"stateMutability":"nonpayable"},{"type":"function","name":"acceptSubscriptionOwnerTransfer","inputs":[{"name":"subId","type":"uint256","internalType":"uint256"}],"outputs":[],"stateMutability":"nonpayable"},{"type":"function","name":"addConsumer","inputs":[{"name":"subId","type":"uint256","internalType":"uint256"},{"name":"consumer","type":"address","internalType":"address"}],"outputs":[],"stateMutability":"nonpayable"},{"type":"function","name":"cancelSubscription","inputs":[{"name":"_subId","type":"uint256","internalType":"uint256"},{"name":"_to","type":"address","internalType":"address"}],"outputs":[],"stateMutability":"nonpayable"},{"type":"function","name":"consumerIsAdded","inputs":[{"name":"_subId","type":"uint256","internalType":"uint256"},{"name":"_consumer","type":"address","internalType":"address"}],"outputs":[{"name":"","type":"bool","internalType":"bool"}],"stateMutability":"view"},{"type":"function","name":"createSubscription","inputs":[],"outputs":[{"name":"subId","type":"uint256","internalType":"uint256"}],"stateMutability":"nonpayable"},{"type":"function","name":"fulfillRandomWords","inputs":[{"name":"_requestId","type":"uint256","internalType":"uint256"},{"name":"_consumer","type":"address","internalType":"address"}],"outputs":[],"stateMutability":"nonpayable"},{"type":"function","name":"fulfillRandomWordsWithOverride","inputs":[{"name":"_requestId","type":"uint256","internalType":"uint256"},{"name":"_consumer","type":"address","internalType":"address"},{"name":"_words","type":"uint256[]","internalType":"uint256[]"}],"outputs":[],"stateMutability":"nonpayable"},{"type":"function","name":"fundSubscription","inputs":[{"name":"_subId","type":"uint256","internalType":"uint256"},{"name":"_amount","type":"uint256","internalType":"uint256"}],"outputs":[],"stateMutability":"nonpayable"},{"type":"function","name":"fundSubscriptionWithNative","inputs":[{"name":"subId","type":"uint256","internalType":"uint256"}],"outputs":[],"stateMutability":"payable"},{"type":"function","name":"getActiveSubscriptionIds","inputs":[{"name":"startIndex","type":"uint256","internalType":"uint256"},{"name":"maxCount","type":"uint256","internalType":"uint256"}],"outputs":[{"name":"ids","type":"uint256[]","internalType":"uint256[]"}],"stateMutability":"view"},{"type":"function","name":"getSubscription","inputs":[{"name":"subId","type":"uint256","internalType":"uint256"}],"outputs":[{"name":"balance","type":"uint96","internalType":"uint96"},{"name":"nativeBalance","type":"uint96","internalType":"uint96"},{"name":"reqCount","type":"uint64","internalType":"uint64"},{"name":"subOwner","type":"address","internalType":"address"},{"name":"consumers","type":"address[]","internalType":"address[]"}],"stateMutability":"view"},{"type":"function","name":"i_base_fee","inputs":[],"outputs":[{"name":"","type":"uint96","internalType":"uint96"}],"stateMutability":"view"},{"type":"function","name":"i_gas_price","inputs":[],"outputs":[{"name":"","type":"uint96","internalType":"uint96"}],"stateMutability":"view"},{"type":"function","name":"i_wei_per_unit_link","inputs":[],"outputs":[{"name":"","type":"int256","internalType":"int256"}],"stateMutability":"view"},{"type":"function","name":"onTokenTransfer","inputs":[{"name":"","type":"address","internalType":"address"},{"name":"amount","type":"uint256","internalType":"uint256"},{"name":"data","type":"bytes","internalType":"bytes"}],"outputs":[],"stateMutability":"nonpayable"},{"type":"function","name":"owner","inputs":[],"outputs":[{"name":"","type":"address","internalType":"address"}],"stateMutability":"view"},{"type":"function","name":"ownerCancelSubscription","inputs":[{"name":"subId","type":"uint256","internalType":"uint256"}],"outputs":[],"stateMutability":"nonpayable"},{"type":"function","name":"pendingRequestExists","inputs":[{"name":"","type":"uint256","internalType":"uint256"}],"outputs":[{"name":"","type":"bool","internalType":"bool"}],"stateMutability":"pure"},{"type":"function","name":"recoverFunds","inputs":[{"name":"to","type":"address","internalType":"address"}],"outputs":[],"stateMutability":"nonpayable"},{"type":"function","name":"recoverNativeFunds","inputs":[{"name":"to","type":"address","internalType":"address payable"}],"outputs":[],"stateMutability":"nonpayable"},{"type":"function","name":"removeConsumer","inputs":[{"name":"_subId","type":"uint256","internalType":"uint256"},{"name":"_consumer","type":"address","internalType":"address"}],"outputs":[],"stateMutability":"nonpayable"},{"type":"function","name":"requestRandomWords","inputs":[{"name":"_req","type":"tuple","internalType":"struct VRFV2PlusClient.RandomWordsRequest","components":[{"name":"keyHash","type":"bytes32","internalType":"bytes32"},{"name":"subId","type":"uint256","internalType":"uint256"},{"name":"requestConfirmations","type":"uint16","internalType":"uint16"},{"name":"callbackGasLimit","type":"uint32","internalType":"uint32"},{"name":"numWords","type":"uint32","internalType":"uint32"},{"name":"extraArgs","type":"bytes","internalType":"bytes"}]}],"outputs":[{"name":"","type":"uint256","internalType":"uint256"}],"stateMutability":"nonpayable"},{"type":"function","name":"requestSubscriptionOwnerTransfer","inputs":[{"name":"subId","type":"uint256","internalType":"uint256"},{"name":"newOwner","type":"address","internalType":"address"}],"outputs":[],"stateMutability":"nonpayable"},{"type":"function","name":"s_config","inputs":[],"outputs":[{"name":"minimumRequestConfirmations","type":"uint16","internalType":"uint16"},{"name":"maxGasLimit","type":"uint32","internalType":"uint32"},{"name":"reentrancyLock","type":"bool","internalType":"bool"},{"name":"stalenessSeconds","type":"uint32","internalType":"uint32"},{"name":"gasAfterPaymentCalculation","type":"uint32","internalType":"uint32"},{"name":"fulfillmentFlatFeeNativePPM","type":"uint32","internalType":"uint32"},{"name":"fulfillmentFlatFeeLinkDiscountPPM","type":"uint32","internalType":"uint32"},{"name":"nativePremiumPercentage","type":"uint8","internalType":"uint8"},{"name":"linkPremiumPercentage","type":"uint8","internalType":"uint8"}],"stateMutability":"view"},{"type":"function","name":"s_currentSubNonce","inputs":[],"outputs":[{"name":"","type":"uint64","internalType":"uint64"}],"stateMutability":"view"},{"type":"function","name":"s_totalBalance","inputs":[],"outputs":[{"name":"","type":"uint96","internalType":"uint96"}],"stateMutability":"view"},{"type":"function","name":"s_totalNativeBalance","inputs":[],"outputs":[{"name":"","type":"uint96","internalType":"uint96"}],"stateMutability":"view"},{"type":"function","name":"setConfig","inputs":[],"outputs":[],"stateMutability":"nonpayable"},{"type":"function","name":"setLINKAndLINKNativeFeed","inputs":[{"name":"link","type":"address","internalType":"address"},{"name":"linkNativeFeed","type":"address","internalType":"address"}],"outputs":[],"stateMutability":"nonpayable"},{"type":"function","name":"transferOwnership","inputs":[{"name":"to","type":"address","internalType":"address"}],"outputs":[],"stateMutability":"nonpayable"},{"type":"function","name":"withdraw","inputs":[{"name":"recipient","type":"address","internalType":"address"}],"outputs":[],"stateMutability":"nonpayable"},{"type":"function","name":"withdrawNative","inputs":[{"name":"recipient","type":"address","internalType":"address payable"}],"outputs":[],"stateMutability":"nonpayable"},{"type":"event","name":"ConfigSet","inputs":[],"anonymous":false},{"type":"event","name":"FundsRecovered","inputs":[{"name":"to","type":"address","indexed":false,"internalType":"address"},{"name":"amount","type":"uint256","indexed":false,"internalType":"uint256"}],"anonymous":false},{"type":"event","name":"NativeFundsRecovered","inputs":[{"name":"to","type":"address","indexed":false,"internalType":"address"},{"name":"amount","type":"uint256","indexed":false,"internalType":"uint256"}],"anonymous":false},{"type":"event","name":"OwnershipTransferRequested","inputs":[{"name":"from","type":"address","indexed":true,"internalType":"address"},{"name":"to","type":"address","indexed":true,"internalType":"address"}],"anonymous":false},{"type":"event","name":"OwnershipTransferred","inputs":[{"name":"from","type":"address","indexed":true,"internalType":"address"},{"name":"to","type":"address","indexed":true,"internalType":"address"}],"anonymous":false},{"type":"event","name":"RandomWordsFulfilled","inputs":[{"name":"requestId","type":"uint256","indexed":true,"internalType":"uint256"},{"name":"outputSeed","type":"uint256","indexed":false,"internalType":"uint256"},{"name":"subId","type":"uint256","indexed":true,"internalType":"uint256"},{"name":"payment","type":"uint96","indexed":false,"internalType":"uint96"},{"name":"nativePayment","type":"bool","indexed":false,"internalType":"bool"},{"name":"success","type":"bool","indexed":false,"internalType":"bool"},{"name":"onlyPremium","type":"bool","indexed":false,"internalType":"bool"}],"anonymous":false},{"type":"event","name":"RandomWordsRequested","inputs":[{"name":"keyHash","type":"bytes32","indexed":true,"internalType":"bytes32"},{"name":"requestId","type":"uint256","indexed":false,"internalType":"uint256"},{"name":"preSeed","type":"uint256","indexed":false,"internalType":"uint256"},{"name":"subId","type":"uint256","indexed":true,"internalType":"uint256"},{"name":"minimumRequestConfirmations","type":"uint16","indexed":false,"internalType":"uint16"},{"name":"callbackGasLimit","type":"uint32","indexed":false,"internalType":"uint32"},{"name":"numWords","type":"uint32","indexed":false,"internalType":"uint32"},{"name":"extraArgs","type":"bytes","indexed":false,"internalType":"bytes"},{"name":"sender","type":"address","indexed":true,"internalType":"address"}],"anonymous":false},{"type":"event","name":"SubscriptionCanceled","inputs":[{"name":"subId","type":"uint256","indexed":true,"internalType":"uint256"},{"name":"to","type":"address","indexed":false,"internalType":"address"},{"name":"amountLink","type":"uint256","indexed":false,"internalType":"uint256"},{"name":"amountNative","type":"uint256","indexed":false,"internalType":"uint256"}],"anonymous":false},{"type":"event","name":"SubscriptionConsumerAdded","inputs":[{"name":"subId","type":"uint256","indexed":true,"internalType":"uint256"},{"name":"consumer","type":"address","indexed":false,"internalType":"address"}],"anonymous":false},{"type":"event","name":"SubscriptionConsumerRemoved","inputs":[{"name":"subId","type":"uint256","indexed":true,"internalType":"uint256"},{"name":"consumer","type":"address","indexed":false,"internalType":"address"}],"anonymous":false},{"type":"event","name":"SubscriptionCreated","inputs":[{"name":"subId","type":"uint256","indexed":true,"internalType":"uint256"},{"name":"owner","type":"address","indexed":false,"internalType":"address"}],"anonymous":false},{"type":"event","name":"SubscriptionFunded","inputs":[{"name":"subId","type":"uint256","indexed":true,"internalType":"uint256"},{"name":"oldBalance","type":"uint256","indexed":false,"internalType":"uint256"},{"name":"newBalance","type":"uint256","indexed":false,"internalType":"uint256"}],"anonymous":false},{"type":"event","name":"SubscriptionFundedWithNative","inputs":[{"name":"subId","type":"uint256","indexed":true,"internalType":"uint256"},{"name":"oldNativeBalance","type":"uint256","indexed":false,"internalType":"uint256"},{"name":"newNativeBalance","type":"uint256","indexed":false,"internalType":"uint256"}],"anonymous":false},{"type":"event","name":"SubscriptionOwnerTransferRequested","inputs":[{"name":"subId","type":"uint256","indexed":true,"internalType":"uint256"},{"name":"from","type":"address","indexed":false,"internalType":"address"},{"name":"to","type":"address","indexed":false,"internalType":"address"}],"anonymous":false},{"type":"event","name":"SubscriptionOwnerTransferred","inputs":[{"name":"subId","type":"uint256","indexed":true,"internalType":"uint256"},{"name":"from","type":"address","indexed":false,"internalType":"address"},{"name":"to","type":"address","indexed":false,"internalType":"address"}],"anonymous":false},{"type":"error","name":"BalanceInvariantViolated","inputs":[{"name":"internalBalance","type":"uint256","internalType":"uint256"},{"name":"externalBalance","type":"uint256","internalType":"uint256"}]},{"type":"error","name":"FailedToSendNative","inputs":[]},{"type":"error","name":"FailedToTransferLink","inputs":[]},{"type":"error","name":"IndexOutOfRange","inputs":[]},{"type":"error","name":"InsufficientBalance","inputs":[]},{"type":"error","name":"InvalidCalldata","inputs":[]},{"type":"error","name":"InvalidConsumer","inputs":[{"name":"subId","type":"uint256","internalType":"uint256"},{"name":"consumer","type":"address","internalType":"address"}]},{"type":"error","name":"InvalidExtraArgsTag","inputs":[]},{"type":"error","name":"InvalidRandomWords","inputs":[]},{"type":"error","name":"InvalidRequest","inputs":[]},{"type":"error","name":"InvalidSubscription","inputs":[]},{"type":"error","name":"LinkAlreadySet","inputs":[]},{"type":"error","name":"LinkNotSet","inputs":[]},{"type":"error","name":"MustBeRequestedOwner","inputs":[{"name":"proposedOwner","type":"address","internalType":"address"}]},{"type":"error","name":"MustBeSubOwner","inputs":[{"name":"owner","type":"address","internalType":"address"}]},{"type":"error","name":"NotImplemented","inputs":[]},{"type":"error","name":"OnlyCallableFromLink","inputs":[]},{"type":"error","name":"PendingRequestExists","inputs":[]},{"type":"error","name":"Reentrant","inputs":[]},{"type":"error","name":"TooManyConsumers","inputs":[]}],"bytecode":{"object":"0x60e06040526001600e556064600f553480156200001b57600080fd5b5060405162006bd338038062006bd38339818101604052810190620000419190620005f3565b338060008073ffffffffffffffffffffffffffffffffffffffff168273ffffffffffffffffffffffffffffffffffffffff1603620000b6576040517f08c379a0000000000000000000000000000000000000000000000000000000008152600401620000ad90620006b0565b60405180910390fd5b816000806101000a81548173ffffffffffffffffffffffffffffffffffffffff021916908373ffffffffffffffffffffffffffffffffffffffff160217905550600073ffffffffffffffffffffffffffffffffffffffff168173ffffffffffffffffffffffffffffffffffffffff16146200013d576200013c81620001a960201b60201c565b5b505050826bffffffffffffffffffffffff166080816bffffffffffffffffffffffff1681525050816bffffffffffffffffffffffff1660a0816bffffffffffffffffffffffff16815250508060c08181525050620001a0620002d860201b60201c565b505050620007b6565b3373ffffffffffffffffffffffffffffffffffffffff168173ffffffffffffffffffffffffffffffffffffffff16036200021a576040517f08c379a0000000000000000000000000000000000000000000000000000000008152600401620002119062000722565b60405180910390fd5b80600160006101000a81548173ffffffffffffffffffffffffffffffffffffffff021916908373ffffffffffffffffffffffffffffffffffffffff1602179055508073ffffffffffffffffffffffffffffffffffffffff1660008054906101000a900473ffffffffffffffffffffffffffffffffffffffff1673ffffffffffffffffffffffffffffffffffffffff167fed8889f560326eb138920d842192f0eb3dd22b4f139c87a2c57538e05bae127860405160405180910390a350565b620002e8620004d760201b60201c565b604051806101200160405280600061ffff168152602001600063ffffffff168152602001600015158152602001600063ffffffff168152602001600063ffffffff168152602001600063ffffffff168152602001600063ffffffff168152602001600060ff168152602001600060ff16815250600c60008201518160000160006101000a81548161ffff021916908361ffff16021790555060208201518160000160026101000a81548163ffffffff021916908363ffffffff16021790555060408201518160000160066101000a81548160ff02191690831515021790555060608201518160000160076101000a81548163ffffffff021916908363ffffffff160217905550608082015181600001600b6101000a81548163ffffffff021916908363ffffffff16021790555060a082015181600001600f6101000a81548163ffffffff021916908363ffffffff16021790555060c08201518160000160136101000a81548163ffffffff021916908363ffffffff16021790555060e08201518160000160176101000a81548160ff021916908360ff1602179055506101008201518160000160186101000a81548160ff021916908360ff1602179055509050507f4b2974a542484cba2783812ff8033f7fc682cac2fe0905c28c5e27869b3155be60405160405180910390a1565b60008054906101000a900473ffffffffffffffffffffffffffffffffffffffff1673ffffffffffffffffffffffffffffffffffffffff163373ffffffffffffffffffffffffffffffffffffffff161462000568576040517f08c379a00000000000000000000000000000000000000000000000000000000081526004016200055f9062000794565b60405180910390fd5b565b600080fd5b60006bffffffffffffffffffffffff82169050919050565b62000592816200056f565b81146200059e57600080fd5b50565b600081519050620005b28162000587565b92915050565b6000819050919050565b620005cd81620005b8565b8114620005d957600080fd5b50565b600081519050620005ed81620005c2565b92915050565b6000806000606084860312156200060f576200060e6200056a565b5b60006200061f86828701620005a1565b93505060206200063286828701620005a1565b92505060406200064586828701620005dc565b9150509250925092565b600082825260208201905092915050565b7f43616e6e6f7420736574206f776e657220746f207a65726f0000000000000000600082015250565b6000620006986018836200064f565b9150620006a58262000660565b602082019050919050565b60006020820190508181036000830152620006cb8162000689565b9050919050565b7f43616e6e6f74207472616e7366657220746f2073656c66000000000000000000600082015250565b60006200070a6017836200064f565b91506200071782620006d2565b602082019050919050565b600060208201905081810360008301526200073d81620006fb565b9050919050565b7f4f6e6c792063616c6c61626c65206279206f776e657200000000000000000000600082015250565b60006200077c6016836200064f565b9150620007898262000744565b602082019050919050565b60006020820190508181036000830152620007af816200076d565b9050919050565b60805160a05160c0516163d8620007fb60003960008181610dbb01526111c0015260008181610d360152613648015260008181610d7b015261122801526163d86000f3fe60806040526004361061020f5760003560e01c80638b673e7a11610118578063aefb212f116100a0578063dac83d291161006f578063dac83d2914610748578063dc311dd314610771578063dcab3dcf146107b2578063e72f6e30146107dd578063f2fde38b146108065761020f565b8063aefb212f14610690578063b2a7cac5146106cd578063bec4c08c146106f6578063cb6317971461071f5761020f565b80639b1c385e116100e75780639b1c385e146105ab5780639d40a6fd146105e8578063a21a23e414610613578063a4c0ed361461063e578063aa433aff146106675761020f565b80638b673e7a146105105780638da5cb5b14610527578063953e9c751461055257806395b55cfc1461058f5761020f565b806341af6c871161019b57806372e9d5651161016a57806372e9d5651461045157806379ba50971461047c578063808974ff146104935780638402595e146104bc57806386fe91c7146104e55761020f565b806341af6c871461039757806351cff8d9146103d457806364d51a2a146103fd57806365982744146104285761020f565b806313478329116101e257806313478329146102c257806318e3dd27146102ed5780631b6b6d23146103185780631eebc117146103435780632f622e6b1461036e5761020f565b8063088070f51461021457806308e3898e146102475780630ae0954014610270578063115e3c0d14610299575b600080fd5b34801561022057600080fd5b5061022961082f565b60405161023e99989796959493929190614ac0565b60405180910390f35b34801561025357600080fd5b5061026e60048036038101906102699190614d4e565b6108f0565b005b34801561027c57600080fd5b5061029760048036038101906102929190614dbd565b610ebe565b005b3480156102a557600080fd5b506102c060048036038101906102bb9190614dfd565b610fd5565b005b3480156102ce57600080fd5b506102d76111be565b6040516102e49190614e56565b60405180910390f35b3480156102f957600080fd5b506103026111e2565b60405161030f9190614e98565b60405180910390f35b34801561032457600080fd5b5061032d611200565b60405161033a9190614f12565b60405180910390f35b34801561034f57600080fd5b50610358611226565b6040516103659190614e98565b60405180910390f35b34801561037a57600080fd5b5061039560048036038101906103909190614f6b565b61124a565b005b3480156103a357600080fd5b506103be60048036038101906103b99190614f98565b61143f565b6040516103cb9190614fc5565b60405180910390f35b3480156103e057600080fd5b506103fb60048036038101906103f69190614fe0565b611473565b005b34801561040957600080fd5b50610412611714565b60405161041f919061500d565b60405180910390f35b34801561043457600080fd5b5061044f600480360381019061044a9190615028565b611719565b005b34801561045d57600080fd5b5061046661182f565b6040516104739190615089565b60405180910390f35b34801561048857600080fd5b50610491611855565b005b34801561049f57600080fd5b506104ba60048036038101906104b59190614dbd565b6119ea565b005b3480156104c857600080fd5b506104e360048036038101906104de9190614f6b565b611a4a565b005b3480156104f157600080fd5b506104fa611bc7565b6040516105079190614e98565b60405180910390f35b34801561051c57600080fd5b50610525611be5565b005b34801561053357600080fd5b5061053c611ddc565b60405161054991906150b3565b60405180910390f35b34801561055e57600080fd5b5061057960048036038101906105749190614dbd565b611e05565b6040516105869190614fc5565b60405180910390f35b6105a960048036038101906105a49190614f98565b611e70565b005b3480156105b757600080fd5b506105d260048036038101906105cd91906150f2565b612060565b6040516105df919061514a565b60405180910390f35b3480156105f457600080fd5b506105fd61238d565b60405161060a9190615188565b60405180910390f35b34801561061f57600080fd5b506106286123a7565b604051610635919061514a565b60405180910390f35b34801561064a57600080fd5b50610665600480360381019061066091906151fe565b6126df565b005b34801561067357600080fd5b5061068e60048036038101906106899190614f98565b6129aa565b005b34801561069c57600080fd5b506106b760048036038101906106b29190614dfd565b612a61565b6040516106c49190615330565b60405180910390f35b3480156106d957600080fd5b506106f460048036038101906106ef9190614f98565b612b95565b005b34801561070257600080fd5b5061071d60048036038101906107189190614dbd565b612e03565b005b34801561072b57600080fd5b5061074660048036038101906107419190614dbd565b612fa1565b005b34801561075457600080fd5b5061076f600480360381019061076a9190614dbd565b613360565b005b34801561077d57600080fd5b5061079860048036038101906107939190614f98565b613464565b6040516107a9959493929190615410565b60405180910390f35b3480156107be57600080fd5b506107c7613646565b6040516107d49190614e98565b60405180910390f35b3480156107e957600080fd5b5061080460048036038101906107ff9190614fe0565b61366a565b005b34801561081257600080fd5b5061082d60048036038101906108289190614fe0565b61393c565b005b600c8060000160009054906101000a900461ffff16908060000160029054906101000a900463ffffffff16908060000160069054906101000a900460ff16908060000160079054906101000a900463ffffffff169080600001600b9054906101000a900463ffffffff169080600001600f9054906101000a900463ffffffff16908060000160139054906101000a900463ffffffff16908060000160179054906101000a900460ff16908060000160189054906101000a900460ff16905089565b6109456040518060400160405280600781526020017f2d2d2d2d2d2d2d000000000000000000000000000000000000000000000000008152506010600086815260200190815260200160002060000154613950565b60005a9050600060106000868152602001908152602001600020600001540361099a576040517f41abc80100000000000000000000000000000000000000000000000000000000815260040160405180910390fd5b600060106000868152602001908152602001600020604051806080016040529081600082015481526020016001820160009054906101000a900463ffffffff1663ffffffff1663ffffffff1681526020016001820160049054906101000a900463ffffffff1663ffffffff1663ffffffff168152602001600282018054610a2090615499565b80601f0160208091040260200160405190810160405280929190818152602001828054610a4c90615499565b8015610a995780601f10610a6e57610100808354040283529160200191610a99565b820191906000526020600020905b815481529060010190602001808311610a7c57829003601f168201915b50505050508152505090506000835103610b7b57806040015163ffffffff1667ffffffffffffffff811115610ad157610ad0614c0b565b5b604051908082528060200260200182016040528015610aff5781602001602082028036833780820191505090505b50925060005b816040015163ffffffff16811015610b75578581604051602001610b2a9291906154ca565b6040516020818303038152906040528051906020012060001c848281518110610b5657610b556154f3565b5b6020026020010181815250508080610b6d90615551565b915050610b05565b50610bc0565b806040015163ffffffff16835114610bbf576040517f3f3df5b600000000000000000000000000000000000000000000000000000000815260040160405180910390fd5b5b600080631fe543e360e01b8786604051602401610bde929190615599565b604051602081830303815290604052907bffffffffffffffffffffffffffffffffffffffffffffffffffffffff19166020820180517bffffffffffffffffffffffffffffffffffffffffffffffffffffffff838183161783525050505090506001600c60000160066101000a81548160ff02191690831515021790555060008673ffffffffffffffffffffffffffffffffffffffff16846020015163ffffffff1683604051610c8d919061563a565b60006040518083038160008787f1925050503d8060008114610ccb576040519150601f19603f3d011682016040523d82523d6000602084013e610cd0565b606091505b505090506000600c60000160066101000a81548160ff0219169083151502179055506000600185606001516001876060015151610d0d9190615651565b81518110610d1e57610d1d6154f3565b5b602001015160f81c60f81b60f81c60ff1614905060007f00000000000000000000000000000000000000000000000000000000000000006bffffffffffffffffffffffff165a88610d6f9190615651565b610d799190615685565b7f00000000000000000000000000000000000000000000000000000000000000006bffffffffffffffffffffffff16610db291906156c7565b905081610dfb577f000000000000000000000000000000000000000000000000000000000000000081670de0b6b3a7640000610dee9190615685565b610df8919061572a565b90505b6000819050610e0f818489600001516139ec565b601060008c81526020019081526020016000206000808201600090556001820160006101000a81549063ffffffff02191690556001820160046101000a81549063ffffffff0219169055600282016000610e699190614926565b505086600001518b7faeb4b4786571e184246d39587f659abf0e26f41f6a3358692250382c0cdb47b78d8487896000604051610ea995949392919061575b565b60405180910390a35050505050505050505050565b81610ec881613c2f565b610ed0613d44565b600080610edc85613d90565b9150915060008473ffffffffffffffffffffffffffffffffffffffff16826bffffffffffffffffffffffff16604051610f14906157d4565b60006040518083038185875af1925050503d8060008114610f51576040519150601f19603f3d011682016040523d82523d6000602084013e610f56565b606091505b5050905080610f91576040517f950b247900000000000000000000000000000000000000000000000000000000815260040160405180910390fd5b857f8c74ce8b8cf87f5eb001275c8be27eb34ea2b62bfab6814fcc62192bb63e81c4868585604051610fc59392919061581a565b60405180910390a2505050505050565b600073ffffffffffffffffffffffffffffffffffffffff166005600084815260200190815260200160002060000160009054906101000a900473ffffffffffffffffffffffffffffffffffffffff1673ffffffffffffffffffffffffffffffffffffffff1603611071576040517f1f6a65b600000000000000000000000000000000000000000000000000000000815260040160405180910390fd5b60006006600084815260200190815260200160002060000160009054906101000a90046bffffffffffffffffffffffff166bffffffffffffffffffffffff169050816006600085815260200190815260200160002060000160008282829054906101000a90046bffffffffffffffffffffffff166110ef9190615851565b92506101000a8154816bffffffffffffffffffffffff02191690836bffffffffffffffffffffffff16021790555081600a60008282829054906101000a90046bffffffffffffffffffffffff166111469190615851565b92506101000a8154816bffffffffffffffffffffffff02191690836bffffffffffffffffffffffff160217905550827f1ced9348ff549fceab2ac57cd3a9de38edaaab274b725ee82c23e8fc8c4eec7a8284846111a391906156c7565b6040516111b19291906154ca565b60405180910390a2505050565b7f000000000000000000000000000000000000000000000000000000000000000081565b600a600c9054906101000a90046bffffffffffffffffffffffff1681565b600260009054906101000a900473ffffffffffffffffffffffffffffffffffffffff1681565b7f000000000000000000000000000000000000000000000000000000000000000081565b611252613d44565b61125a6140ea565b6000600b600c9054906101000a90046bffffffffffffffffffffffff166bffffffffffffffffffffffff16036112bc576040517ff4d678b800000000000000000000000000000000000000000000000000000000815260040160405180910390fd5b6000600b600c9054906101000a90046bffffffffffffffffffffffff16905080600b600c8282829054906101000a90046bffffffffffffffffffffffff166113049190615891565b92506101000a8154816bffffffffffffffffffffffff02191690836bffffffffffffffffffffffff16021790555080600a600c8282829054906101000a90046bffffffffffffffffffffffff1661135b9190615891565b92506101000a8154816bffffffffffffffffffffffff02191690836bffffffffffffffffffffffff16021790555060008273ffffffffffffffffffffffffffffffffffffffff16826bffffffffffffffffffffffff166040516113bd906157d4565b60006040518083038185875af1925050503d80600081146113fa576040519150601f19603f3d011682016040523d82523d6000602084013e6113ff565b606091505b505090508061143a576040517f950b247900000000000000000000000000000000000000000000000000000000815260040160405180910390fd5b505050565b60006040517fd623472500000000000000000000000000000000000000000000000000000000815260040160405180910390fd5b61147b613d44565b6114836140ea565b600073ffffffffffffffffffffffffffffffffffffffff16600260009054906101000a900473ffffffffffffffffffffffffffffffffffffffff1673ffffffffffffffffffffffffffffffffffffffff160361150b576040517fc1f0c0a100000000000000000000000000000000000000000000000000000000815260040160405180910390fd5b6000600b60009054906101000a90046bffffffffffffffffffffffff166bffffffffffffffffffffffff160361156d576040517ff4d678b800000000000000000000000000000000000000000000000000000000815260040160405180910390fd5b6000600b60009054906101000a90046bffffffffffffffffffffffff16905080600b60008282829054906101000a90046bffffffffffffffffffffffff166115b59190615891565b92506101000a8154816bffffffffffffffffffffffff02191690836bffffffffffffffffffffffff16021790555080600a60008282829054906101000a90046bffffffffffffffffffffffff1661160c9190615891565b92506101000a8154816bffffffffffffffffffffffff02191690836bffffffffffffffffffffffff160217905550600260009054906101000a900473ffffffffffffffffffffffffffffffffffffffff1673ffffffffffffffffffffffffffffffffffffffff1663a9059cbb83836040518363ffffffff1660e01b81526004016116979291906158d1565b6020604051808303816000875af11580156116b6573d6000803e3d6000fd5b505050506040513d601f19601f820116820180604052508101906116da9190615926565b611710576040517ff4d678b800000000000000000000000000000000000000000000000000000000815260040160405180910390fd5b5050565b606481565b6117216140ea565b600073ffffffffffffffffffffffffffffffffffffffff16600260009054906101000a900473ffffffffffffffffffffffffffffffffffffffff1673ffffffffffffffffffffffffffffffffffffffff16146117a9576040517f2d118a6e00000000000000000000000000000000000000000000000000000000815260040160405180910390fd5b81600260006101000a81548173ffffffffffffffffffffffffffffffffffffffff021916908373ffffffffffffffffffffffffffffffffffffffff16021790555080600360006101000a81548173ffffffffffffffffffffffffffffffffffffffff021916908373ffffffffffffffffffffffffffffffffffffffff1602179055505050565b600360009054906101000a900473ffffffffffffffffffffffffffffffffffffffff1681565b600160009054906101000a900473ffffffffffffffffffffffffffffffffffffffff1673ffffffffffffffffffffffffffffffffffffffff163373ffffffffffffffffffffffffffffffffffffffff16146118e5576040517f08c379a00000000000000000000000000000000000000000000000000000000081526004016118dc906159b0565b60405180910390fd5b60008060009054906101000a900473ffffffffffffffffffffffffffffffffffffffff169050336000806101000a81548173ffffffffffffffffffffffffffffffffffffffff021916908373ffffffffffffffffffffffffffffffffffffffff1602179055506000600160006101000a81548173ffffffffffffffffffffffffffffffffffffffff021916908373ffffffffffffffffffffffffffffffffffffffff1602179055503373ffffffffffffffffffffffffffffffffffffffff168173ffffffffffffffffffffffffffffffffffffffff167f8be0079c531659141344cd1fd0a4f28419497f9722a3daafe3b4186f6b6457e060405160405180910390a350565b6119f2613d44565b611a468282600067ffffffffffffffff811115611a1257611a11614c0b565b5b604051908082528060200260200182016040528015611a405781602001602082028036833780820191505090505b506108f0565b5050565b611a526140ea565b60004790506000600a600c9054906101000a90046bffffffffffffffffffffffff166bffffffffffffffffffffffff16905081811115611acb5780826040517fa99da302000000000000000000000000000000000000000000000000000000008152600401611ac29291906154ca565b60405180910390fd5b81811015611bc25760008183611ae19190615651565b905060008473ffffffffffffffffffffffffffffffffffffffff1682604051611b09906157d4565b60006040518083038185875af1925050503d8060008114611b46576040519150601f19603f3d011682016040523d82523d6000602084013e611b4b565b606091505b5050905080611b86576040517f950b247900000000000000000000000000000000000000000000000000000000815260040160405180910390fd5b7f4aed7c8eed0496c8c19ea2681fcca25741c1602342e38b045d9f1e8e905d2e9c8583604051611bb79291906159f1565b60405180910390a150505b505050565b600a60009054906101000a90046bffffffffffffffffffffffff1681565b611bed6140ea565b604051806101200160405280600061ffff168152602001600063ffffffff168152602001600015158152602001600063ffffffff168152602001600063ffffffff168152602001600063ffffffff168152602001600063ffffffff168152602001600060ff168152602001600060ff16815250600c60008201518160000160006101000a81548161ffff021916908361ffff16021790555060208201518160000160026101000a81548163ffffffff021916908363ffffffff16021790555060408201518160000160066101000a81548160ff02191690831515021790555060608201518160000160076101000a81548163ffffffff021916908363ffffffff160217905550608082015181600001600b6101000a81548163ffffffff021916908363ffffffff16021790555060a082015181600001600f6101000a81548163ffffffff021916908363ffffffff16021790555060c08201518160000160136101000a81548163ffffffff021916908363ffffffff16021790555060e08201518160000160176101000a81548160ff021916908360ff1602179055506101008201518160000160186101000a81548160ff021916908360ff1602179055509050507f4b2974a542484cba2783812ff8033f7fc682cac2fe0905c28c5e27869b3155be60405160405180910390a1565b60008060009054906101000a900473ffffffffffffffffffffffffffffffffffffffff16905090565b6000600460008373ffffffffffffffffffffffffffffffffffffffff1673ffffffffffffffffffffffffffffffffffffffff168152602001908152602001600020600084815260200190815260200160002060000160009054906101000a900460ff16905092915050565b611e78613d44565b600073ffffffffffffffffffffffffffffffffffffffff166005600083815260200190815260200160002060000160009054906101000a900473ffffffffffffffffffffffffffffffffffffffff1673ffffffffffffffffffffffffffffffffffffffff1603611f14576040517f1f6a65b600000000000000000000000000000000000000000000000000000000815260040160405180910390fd5b600060066000838152602001908152602001600020600001600c9054906101000a90046bffffffffffffffffffffffff166bffffffffffffffffffffffff1690503460066000848152602001908152602001600020600001600c8282829054906101000a90046bffffffffffffffffffffffff16611f929190615851565b92506101000a8154816bffffffffffffffffffffffff02191690836bffffffffffffffffffffffff16021790555034600a600c8282829054906101000a90046bffffffffffffffffffffffff16611fe99190615851565b92506101000a8154816bffffffffffffffffffffffff02191690836bffffffffffffffffffffffff160217905550817f7603b205d03651ee812f803fccde89f1012e545a9c99f0abfea9cedd0fd8e90282348461204691906156c7565b6040516120549291906154ca565b60405180910390a25050565b600061206a613d44565b81602001353361207a8282611e05565b6120bd5781816040517f79bfd4010000000000000000000000000000000000000000000000000000000081526004016120b4929190615a1a565b60405180910390fd5b600084602001359050600073ffffffffffffffffffffffffffffffffffffffff166005600083815260200190815260200160002060000160009054906101000a900473ffffffffffffffffffffffffffffffffffffffff1673ffffffffffffffffffffffffffffffffffffffff1603612162576040517f1f6a65b600000000000000000000000000000000000000000000000000000000815260040160405180910390fd5b6000600e600081548092919061217790615551565b9190505590506000600f600081548092919061219290615551565b91905055905060006121ba6121b5898060a001906121b09190615a52565b61417a565b614272565b90506040518060800160405280896020013581526020018960600160208101906121e49190615ae1565b63ffffffff1681526020018960800160208101906122029190615ae1565b63ffffffff168152602001898060a0019061221d9190615a52565b8080601f016020809104026020016040519081016040528093929190818152602001838380828437600081840152601f19601f82011690508083019250505050505050815250601060008581526020019081526020016000206000820151816000015560208201518160010160006101000a81548163ffffffff021916908363ffffffff16021790555060408201518160010160046101000a81548163ffffffff021916908363ffffffff16021790555060608201518160020190816122e39190615cb0565b509050503373ffffffffffffffffffffffffffffffffffffffff16886020013589600001357feb0e3652e0f44f417695e6e90f2f42c99b65cd7169074c5a654b16b9748c3a4e86868d604001602081019061233e9190615dae565b8e60600160208101906123519190615ae1565b8f60800160208101906123649190615ae1565b8960405161237796959493929190615e25565b60405180910390a4829650505050505050919050565b600760009054906101000a900467ffffffffffffffff1681565b60006123b1613d44565b6000600760009054906101000a900467ffffffffffffffff169050336001436123da9190615651565b4030836040516020016123f09493929190615f36565b6040516020818303038152906040528051906020012060001c91506001816124189190615f84565b600760006101000a81548167ffffffffffffffff021916908367ffffffffffffffff16021790555060008067ffffffffffffffff81111561245c5761245b614c0b565b5b60405190808252806020026020018201604052801561248a5781602001602082028036833780820191505090505b509050604051806060016040528060006bffffffffffffffffffffffff16815260200160006bffffffffffffffffffffffff168152602001600067ffffffffffffffff168152506006600085815260200190815260200160002060008201518160000160006101000a8154816bffffffffffffffffffffffff02191690836bffffffffffffffffffffffff160217905550602082015181600001600c6101000a8154816bffffffffffffffffffffffff02191690836bffffffffffffffffffffffff16021790555060408201518160000160186101000a81548167ffffffffffffffff021916908367ffffffffffffffff16021790555090505060405180606001604052803373ffffffffffffffffffffffffffffffffffffffff168152602001600073ffffffffffffffffffffffffffffffffffffffff168152602001828152506005600085815260200190815260200160002060008201518160000160006101000a81548173ffffffffffffffffffffffffffffffffffffffff021916908373ffffffffffffffffffffffffffffffffffffffff16021790555060208201518160010160006101000a81548173ffffffffffffffffffffffffffffffffffffffff021916908373ffffffffffffffffffffffffffffffffffffffff1602179055506040820151816002019080519060200190612689929190614966565b509050506126a183600861430a90919063ffffffff16565b50827f1d3015d7ba850fa198dc7b1a3f5d42779313a681035f77c8c03764c61005518d336040516126d291906150b3565b60405180910390a2505090565b6126e7613d44565b600260009054906101000a900473ffffffffffffffffffffffffffffffffffffffff1673ffffffffffffffffffffffffffffffffffffffff163373ffffffffffffffffffffffffffffffffffffffff161461276e576040517f44b0e3c300000000000000000000000000000000000000000000000000000000815260040160405180910390fd5b602082829050146127ab576040517f8129bbcd00000000000000000000000000000000000000000000000000000000815260040160405180910390fd5b600082828101906127bc9190614f98565b9050600073ffffffffffffffffffffffffffffffffffffffff166005600083815260200190815260200160002060000160009054906101000a900473ffffffffffffffffffffffffffffffffffffffff1673ffffffffffffffffffffffffffffffffffffffff160361285a576040517f1f6a65b600000000000000000000000000000000000000000000000000000000815260040160405180910390fd5b60006006600083815260200190815260200160002060000160009054906101000a90046bffffffffffffffffffffffff166bffffffffffffffffffffffff169050846006600084815260200190815260200160002060000160008282829054906101000a90046bffffffffffffffffffffffff166128d89190615851565b92506101000a8154816bffffffffffffffffffffffff02191690836bffffffffffffffffffffffff16021790555084600a60008282829054906101000a90046bffffffffffffffffffffffff1661292f9190615851565b92506101000a8154816bffffffffffffffffffffffff02191690836bffffffffffffffffffffffff160217905550817f1ced9348ff549fceab2ac57cd3a9de38edaaab274b725ee82c23e8fc8c4eec7a82878461298c91906156c7565b60405161299a9291906154ca565b60405180910390a2505050505050565b6129b26140ea565b60006005600083815260200190815260200160002060000160009054906101000a900473ffffffffffffffffffffffffffffffffffffffff169050600073ffffffffffffffffffffffffffffffffffffffff168173ffffffffffffffffffffffffffffffffffffffff1603612a53576040517f1f6a65b600000000000000000000000000000000000000000000000000000000815260040160405180910390fd5b612a5d8282614324565b5050565b60606000612a6f6008614580565b9050808410612aaa576040517f1390f2a100000000000000000000000000000000000000000000000000000000815260040160405180910390fd5b60008385612ab891906156c7565b905081811180612ac85750600084145b612ad25780612ad4565b815b905060008582612ae49190615651565b90508067ffffffffffffffff811115612b0057612aff614c0b565b5b604051908082528060200260200182016040528015612b2e5781602001602082028036833780820191505090505b50935060005b81811015612b8b57612b5b8782612b4b91906156c7565b600861459590919063ffffffff16565b858281518110612b6e57612b6d6154f3565b5b60200260200101818152505080612b8490615551565b9050612b34565b5050505092915050565b612b9d613d44565b60006005600083815260200190815260200160002060000160009054906101000a900473ffffffffffffffffffffffffffffffffffffffff169050600073ffffffffffffffffffffffffffffffffffffffff168173ffffffffffffffffffffffffffffffffffffffff1603612c3e576040517f1f6a65b600000000000000000000000000000000000000000000000000000000815260040160405180910390fd5b3373ffffffffffffffffffffffffffffffffffffffff166005600084815260200190815260200160002060010160009054906101000a900473ffffffffffffffffffffffffffffffffffffffff1673ffffffffffffffffffffffffffffffffffffffff1614612d1a576005600083815260200190815260200160002060010160009054906101000a900473ffffffffffffffffffffffffffffffffffffffff166040517fd084e975000000000000000000000000000000000000000000000000000000008152600401612d1191906150b3565b60405180910390fd5b336005600084815260200190815260200160002060000160006101000a81548173ffffffffffffffffffffffffffffffffffffffff021916908373ffffffffffffffffffffffffffffffffffffffff16021790555060006005600084815260200190815260200160002060010160006101000a81548173ffffffffffffffffffffffffffffffffffffffff021916908373ffffffffffffffffffffffffffffffffffffffff160217905550817fd4114ab6e9af9f597c52041f32d62dc57c5c4e4c0d4427006069635e216c93868233604051612df7929190615fc0565b60405180910390a25050565b81612e0d81613c2f565b612e15613d44565b6000600460008473ffffffffffffffffffffffffffffffffffffffff1673ffffffffffffffffffffffffffffffffffffffff168152602001908152602001600020600085815260200190815260200160002090508060000160009054906101000a900460ff1615612e865750612f9c565b6000600560008681526020019081526020016000206002019050606461ffff16818054905003612ee2576040517f05a48e0f00000000000000000000000000000000000000000000000000000000815260040160405180910390fd5b60018260000160006101000a81548160ff02191690831515021790555080849080600181540180825580915050600190039060005260206000200160009091909190916101000a81548173ffffffffffffffffffffffffffffffffffffffff021916908373ffffffffffffffffffffffffffffffffffffffff160217905550847f1e980d04aa7648e205713e5e8ea3808672ac163d10936d36f91b2c88ac1575e185604051612f9191906150b3565b60405180910390a250505b505050565b81612fab81613c2f565b8282612fb78282611e05565b612ffa5781816040517f79bfd401000000000000000000000000000000000000000000000000000000008152600401612ff1929190615a1a565b60405180910390fd5b613002613d44565b600460008573ffffffffffffffffffffffffffffffffffffffff1673ffffffffffffffffffffffffffffffffffffffff168152602001908152602001600020600086815260200190815260200160002060000160009054906101000a900460ff166130a65784846040517f79bfd40100000000000000000000000000000000000000000000000000000000815260040161309d929190615a1a565b60405180910390fd5b60006005600087815260200190815260200160002060020180548060200260200160405190810160405280929190818152602001828054801561313e57602002820191906000526020600020905b8160009054906101000a900473ffffffffffffffffffffffffffffffffffffffff1673ffffffffffffffffffffffffffffffffffffffff16815260200190600101908083116130f4575b505050505090506000600182516131559190615651565b905060005b82518110156132b2578673ffffffffffffffffffffffffffffffffffffffff1683828151811061318d5761318c6154f3565b5b602002602001015173ffffffffffffffffffffffffffffffffffffffff16036132a15760008383815181106131c5576131c46154f3565b5b6020026020010151905080600560008b815260200190815260200160002060020183815481106131f8576131f76154f3565b5b9060005260206000200160006101000a81548173ffffffffffffffffffffffffffffffffffffffff021916908373ffffffffffffffffffffffffffffffffffffffff160217905550600560008a815260200190815260200160002060020180548061326657613265615fe9565b5b6001900381819060005260206000200160006101000a81549073ffffffffffffffffffffffffffffffffffffffff02191690559055506132b2565b806132ab90615551565b905061315a565b506000600460008873ffffffffffffffffffffffffffffffffffffffff1673ffffffffffffffffffffffffffffffffffffffff168152602001908152602001600020600089815260200190815260200160002060000160006101000a81548160ff021916908315150217905550867f32158c6058347c1601b2d12bc696ac6901d8a9a9aa3ba10c27ab0a983e8425a78760405161334f91906150b3565b60405180910390a250505050505050565b8161336a81613c2f565b613372613d44565b60006005600085815260200190815260200160002090508273ffffffffffffffffffffffffffffffffffffffff168160010160009054906101000a900473ffffffffffffffffffffffffffffffffffffffff1673ffffffffffffffffffffffffffffffffffffffff161461345e57828160010160006101000a81548173ffffffffffffffffffffffffffffffffffffffff021916908373ffffffffffffffffffffffffffffffffffffffff160217905550837f21a4dad170a6bf476c31bbcf4a16628295b0e450672eec25d7c93308e05344a13385604051613455929190615fc0565b60405180910390a25b50505050565b60008060008060606005600087815260200190815260200160002060000160009054906101000a900473ffffffffffffffffffffffffffffffffffffffff169150600073ffffffffffffffffffffffffffffffffffffffff168273ffffffffffffffffffffffffffffffffffffffff160361350b576040517f1f6a65b600000000000000000000000000000000000000000000000000000000815260040160405180910390fd5b6006600087815260200190815260200160002060000160009054906101000a90046bffffffffffffffffffffffff1660066000888152602001908152602001600020600001600c9054906101000a90046bffffffffffffffffffffffff166006600089815260200190815260200160002060000160189054906101000a900467ffffffffffffffff1684600560008b81526020019081526020016000206002018080548060200260200160405190810160405280929190818152602001828054801561362c57602002820191906000526020600020905b8160009054906101000a900473ffffffffffffffffffffffffffffffffffffffff1673ffffffffffffffffffffffffffffffffffffffff16815260200190600101908083116135e2575b505050505090509450945094509450945091939590929450565b7f000000000000000000000000000000000000000000000000000000000000000081565b6136726140ea565b600073ffffffffffffffffffffffffffffffffffffffff16600260009054906101000a900473ffffffffffffffffffffffffffffffffffffffff1673ffffffffffffffffffffffffffffffffffffffff16036136fa576040517fc1f0c0a100000000000000000000000000000000000000000000000000000000815260040160405180910390fd5b6000600260009054906101000a900473ffffffffffffffffffffffffffffffffffffffff1673ffffffffffffffffffffffffffffffffffffffff166370a08231306040518263ffffffff1660e01b815260040161375791906150b3565b602060405180830381865afa158015613774573d6000803e3d6000fd5b505050506040513d601f19601f82011682018060405250810190613798919061602d565b90506000600a60009054906101000a90046bffffffffffffffffffffffff166bffffffffffffffffffffffff1690508181111561380e5780826040517fa99da3020000000000000000000000000000000000000000000000000000000081526004016138059291906154ca565b60405180910390fd5b8181101561393757600081836138249190615651565b9050600260009054906101000a900473ffffffffffffffffffffffffffffffffffffffff1673ffffffffffffffffffffffffffffffffffffffff1663a9059cbb85836040518363ffffffff1660e01b815260040161388392919061605a565b6020604051808303816000875af11580156138a2573d6000803e3d6000fd5b505050506040513d601f19601f820116820180604052508101906138c69190615926565b6138fc576040517f7c07fc4c00000000000000000000000000000000000000000000000000000000815260040160405180910390fd5b7f59bfc682b673f8cbf945f1e454df9334834abf7dfe7f92237ca29ecb9b436600848260405161392d92919061605a565b60405180910390a1505b505050565b6139446140ea565b61394d816145af565b50565b6139e882826040516024016139669291906160c7565b6040516020818303038152906040527f9710a9d0000000000000000000000000000000000000000000000000000000007bffffffffffffffffffffffffffffffffffffffffffffffffffffffff19166020820180517bffffffffffffffffffffffffffffffffffffffffffffffffffffffff83818316178352505050506146db565b5050565b60006006600083815260200190815260200160002090508215613b1b57600081600001600c9054906101000a90046bffffffffffffffffffffffff169050846bffffffffffffffffffffffff16816bffffffffffffffffffffffff161015613a80576040517ff4d678b800000000000000000000000000000000000000000000000000000000815260040160405180910390fd5b8481613a8c9190615891565b82600001600c6101000a8154816bffffffffffffffffffffffff02191690836bffffffffffffffffffffffff16021790555084600b600c8282829054906101000a90046bffffffffffffffffffffffff16613ae79190615851565b92506101000a8154816bffffffffffffffffffffffff02191690836bffffffffffffffffffffffff16021790555050613c29565b60008160000160009054906101000a90046bffffffffffffffffffffffff169050846bffffffffffffffffffffffff16816bffffffffffffffffffffffff161015613b92576040517ff4d678b800000000000000000000000000000000000000000000000000000000815260040160405180910390fd5b8481613b9e9190615891565b8260000160006101000a8154816bffffffffffffffffffffffff02191690836bffffffffffffffffffffffff16021790555084600b60008282829054906101000a90046bffffffffffffffffffffffff16613bf99190615851565b92506101000a8154816bffffffffffffffffffffffff02191690836bffffffffffffffffffffffff160217905550505b50505050565b60006005600083815260200190815260200160002060000160009054906101000a900473ffffffffffffffffffffffffffffffffffffffff169050600073ffffffffffffffffffffffffffffffffffffffff168173ffffffffffffffffffffffffffffffffffffffff1603613cd0576040517f1f6a65b600000000000000000000000000000000000000000000000000000000815260040160405180910390fd5b8073ffffffffffffffffffffffffffffffffffffffff163373ffffffffffffffffffffffffffffffffffffffff1614613d4057806040517fd8a3fb52000000000000000000000000000000000000000000000000000000008152600401613d3791906150b3565b60405180910390fd5b5050565b600c60000160069054906101000a900460ff1615613d8e576040517fed3ba6a600000000000000000000000000000000000000000000000000000000815260040160405180910390fd5b565b60008060006005600085815260200190815260200160002060020190506006600085815260200190815260200160002060000160009054906101000a90046bffffffffffffffffffffffff16925060066000858152602001908152602001600020600001600c9054906101000a90046bffffffffffffffffffffffff16915060008180549050905060005b81811015613f0e5760046000848381548110613e3a57613e396154f3565b5b9060005260206000200160009054906101000a900473ffffffffffffffffffffffffffffffffffffffff1673ffffffffffffffffffffffffffffffffffffffff1673ffffffffffffffffffffffffffffffffffffffff1681526020019081526020016000206000878152602001908152602001600020600080820160006101000a81549060ff02191690556000820160016101000a81549067ffffffffffffffff02191690556000820160096101000a81549067ffffffffffffffff0219169055505080613f0790615551565b9050613e1b565b5060056000868152602001908152602001600020600080820160006101000a81549073ffffffffffffffffffffffffffffffffffffffff02191690556001820160006101000a81549073ffffffffffffffffffffffffffffffffffffffff0219169055600282016000613f8191906149f0565b505060066000868152602001908152602001600020600080820160006101000a8154906bffffffffffffffffffffffff021916905560008201600c6101000a8154906bffffffffffffffffffffffff02191690556000820160186101000a81549067ffffffffffffffff021916905550506140068560086146f590919063ffffffff16565b506000846bffffffffffffffffffffffff16146140755783600a60008282829054906101000a90046bffffffffffffffffffffffff166140469190615891565b92506101000a8154816bffffffffffffffffffffffff02191690836bffffffffffffffffffffffff1602179055505b6000836bffffffffffffffffffffffff16146140e35782600a600c8282829054906101000a90046bffffffffffffffffffffffff166140b49190615891565b92506101000a8154816bffffffffffffffffffffffff02191690836bffffffffffffffffffffffff1602179055505b5050915091565b60008054906101000a900473ffffffffffffffffffffffffffffffffffffffff1673ffffffffffffffffffffffffffffffffffffffff163373ffffffffffffffffffffffffffffffffffffffff1614614178576040517f08c379a000000000000000000000000000000000000000000000000000000000815260040161416f90616143565b60405180910390fd5b565b614182614a11565b600083839050036141a657604051806020016040528060001515815250905061426c565b7f92fd13387c7fe7befbc38d303d6468778fb9731bc4583f17d92989c6fcfdeaaa7bffffffffffffffffffffffffffffffffffffffffffffffffffffffff19168383906141f3919061619a565b7bffffffffffffffffffffffffffffffffffffffffffffffffffffffff191614614249576040517f5247fdce00000000000000000000000000000000000000000000000000000000815260040160405180910390fd5b8282600490809261425c93929190616203565b8101906142699190616294565b90505b92915050565b60607f92fd13387c7fe7befbc38d303d6468778fb9731bc4583f17d92989c6fcfdeaaa826040516024016142a691906162ec565b604051602081830303815290604052907bffffffffffffffffffffffffffffffffffffffffffffffffffffffff19166020820180517bffffffffffffffffffffffffffffffffffffffffffffffffffffffff83818316178352505050509050919050565b600061431c836000018360001b61470f565b905092915050565b60008061433084613d90565b91509150600073ffffffffffffffffffffffffffffffffffffffff16600260009054906101000a900473ffffffffffffffffffffffffffffffffffffffff1673ffffffffffffffffffffffffffffffffffffffff16141580156143a257506000826bffffffffffffffffffffffff1614155b1561448c57600260009054906101000a900473ffffffffffffffffffffffffffffffffffffffff1673ffffffffffffffffffffffffffffffffffffffff1663a9059cbb84846bffffffffffffffffffffffff166040518363ffffffff1660e01b815260040161441292919061605a565b6020604051808303816000875af1158015614431573d6000803e3d6000fd5b505050506040513d601f19601f820116820180604052508101906144559190615926565b61448b576040517ff4d678b800000000000000000000000000000000000000000000000000000000815260040160405180910390fd5b5b60008373ffffffffffffffffffffffffffffffffffffffff16826bffffffffffffffffffffffff166040516144c0906157d4565b60006040518083038185875af1925050503d80600081146144fd576040519150601f19603f3d011682016040523d82523d6000602084013e614502565b606091505b505090508061453d576040517f950b247900000000000000000000000000000000000000000000000000000000815260040160405180910390fd5b847f8c74ce8b8cf87f5eb001275c8be27eb34ea2b62bfab6814fcc62192bb63e81c48585856040516145719392919061581a565b60405180910390a25050505050565b600061458e8260000161477f565b9050919050565b60006145a48360000183614790565b60001c905092915050565b3373ffffffffffffffffffffffffffffffffffffffff168173ffffffffffffffffffffffffffffffffffffffff160361461d576040517f08c379a000000000000000000000000000000000000000000000000000000000815260040161461490616353565b60405180910390fd5b80600160006101000a81548173ffffffffffffffffffffffffffffffffffffffff021916908373ffffffffffffffffffffffffffffffffffffffff1602179055508073ffffffffffffffffffffffffffffffffffffffff1660008054906101000a900473ffffffffffffffffffffffffffffffffffffffff1673ffffffffffffffffffffffffffffffffffffffff167fed8889f560326eb138920d842192f0eb3dd22b4f139c87a2c57538e05bae127860405160405180910390a350565b6146f2816146ea6147bb6147e4565b63ffffffff16565b50565b6000614707836000018360001b6147ef565b905092915050565b600061471b8383614903565b614774578260000182908060018154018082558091505060019003906000526020600020016000909190919091505582600001805490508360010160008481526020019081526020016000208190555060019050614779565b600090505b92915050565b600081600001805490509050919050565b60008260000182815481106147a8576147a76154f3565b5b9060005260206000200154905092915050565b60008151905060006a636f6e736f6c652e6c6f679050602083016000808483855afa5050505050565b614a26819050919050565b600080836001016000848152602001908152602001600020549050600081146148f75760006001826148219190615651565b90506000600186600001805490506148399190615651565b90508181146148a857600086600001828154811061485a576148596154f3565b5b906000526020600020015490508087600001848154811061487e5761487d6154f3565b5b90600052602060002001819055508387600101600083815260200190815260200160002081905550505b856000018054806148bc576148bb615fe9565b5b6001900381819060005260206000200160009055905585600101600086815260200190815260200160002060009055600193505050506148fd565b60009150505b92915050565b600080836001016000848152602001908152602001600020541415905092915050565b50805461493290615499565b6000825580601f106149445750614963565b601f0160209004906000526020600020908101906149629190614a30565b5b50565b8280548282559060005260206000209081019282156149df579160200282015b828111156149de5782518260006101000a81548173ffffffffffffffffffffffffffffffffffffffff021916908373ffffffffffffffffffffffffffffffffffffffff16021790555091602001919060010190614986565b5b5090506149ec9190614a30565b5090565b5080546000825590600052602060002090810190614a0e9190614a30565b50565b60405180602001604052806000151581525090565b614a2e616373565b565b5b80821115614a49576000816000905550600101614a31565b5090565b600061ffff82169050919050565b614a6481614a4d565b82525050565b600063ffffffff82169050919050565b614a8381614a6a565b82525050565b60008115159050919050565b614a9e81614a89565b82525050565b600060ff82169050919050565b614aba81614aa4565b82525050565b600061012082019050614ad6600083018c614a5b565b614ae3602083018b614a7a565b614af0604083018a614a95565b614afd6060830189614a7a565b614b0a6080830188614a7a565b614b1760a0830187614a7a565b614b2460c0830186614a7a565b614b3160e0830185614ab1565b614b3f610100830184614ab1565b9a9950505050505050505050565b6000604051905090565b600080fd5b600080fd5b6000819050919050565b614b7481614b61565b8114614b7f57600080fd5b50565b600081359050614b9181614b6b565b92915050565b600073ffffffffffffffffffffffffffffffffffffffff82169050919050565b6000614bc282614b97565b9050919050565b614bd281614bb7565b8114614bdd57600080fd5b50565b600081359050614bef81614bc9565b92915050565b600080fd5b6000601f19601f8301169050919050565b7f4e487b7100000000000000000000000000000000000000000000000000000000600052604160045260246000fd5b614c4382614bfa565b810181811067ffffffffffffffff82111715614c6257614c61614c0b565b5b80604052505050565b6000614c75614b4d565b9050614c818282614c3a565b919050565b600067ffffffffffffffff821115614ca157614ca0614c0b565b5b602082029050602081019050919050565b600080fd5b6000614cca614cc584614c86565b614c6b565b90508083825260208201905060208402830185811115614ced57614cec614cb2565b5b835b81811015614d165780614d028882614b82565b845260208401935050602081019050614cef565b5050509392505050565b600082601f830112614d3557614d34614bf5565b5b8135614d45848260208601614cb7565b91505092915050565b600080600060608486031215614d6757614d66614b57565b5b6000614d7586828701614b82565b9350506020614d8686828701614be0565b925050604084013567ffffffffffffffff811115614da757614da6614b5c565b5b614db386828701614d20565b9150509250925092565b60008060408385031215614dd457614dd3614b57565b5b6000614de285828601614b82565b9250506020614df385828601614be0565b9150509250929050565b60008060408385031215614e1457614e13614b57565b5b6000614e2285828601614b82565b9250506020614e3385828601614b82565b9150509250929050565b6000819050919050565b614e5081614e3d565b82525050565b6000602082019050614e6b6000830184614e47565b92915050565b60006bffffffffffffffffffffffff82169050919050565b614e9281614e71565b82525050565b6000602082019050614ead6000830184614e89565b92915050565b6000819050919050565b6000614ed8614ed3614ece84614b97565b614eb3565b614b97565b9050919050565b6000614eea82614ebd565b9050919050565b6000614efc82614edf565b9050919050565b614f0c81614ef1565b82525050565b6000602082019050614f276000830184614f03565b92915050565b6000614f3882614b97565b9050919050565b614f4881614f2d565b8114614f5357600080fd5b50565b600081359050614f6581614f3f565b92915050565b600060208284031215614f8157614f80614b57565b5b6000614f8f84828501614f56565b91505092915050565b600060208284031215614fae57614fad614b57565b5b6000614fbc84828501614b82565b91505092915050565b6000602082019050614fda6000830184614a95565b92915050565b600060208284031215614ff657614ff5614b57565b5b600061500484828501614be0565b91505092915050565b60006020820190506150226000830184614a5b565b92915050565b6000806040838503121561503f5761503e614b57565b5b600061504d85828601614be0565b925050602061505e85828601614be0565b9150509250929050565b600061507382614edf565b9050919050565b61508381615068565b82525050565b600060208201905061509e600083018461507a565b92915050565b6150ad81614bb7565b82525050565b60006020820190506150c860008301846150a4565b92915050565b600080fd5b600060c082840312156150e9576150e86150ce565b5b81905092915050565b60006020828403121561510857615107614b57565b5b600082013567ffffffffffffffff81111561512657615125614b5c565b5b615132848285016150d3565b91505092915050565b61514481614b61565b82525050565b600060208201905061515f600083018461513b565b92915050565b600067ffffffffffffffff82169050919050565b61518281615165565b82525050565b600060208201905061519d6000830184615179565b92915050565b600080fd5b60008083601f8401126151be576151bd614bf5565b5b8235905067ffffffffffffffff8111156151db576151da6151a3565b5b6020830191508360018202830111156151f7576151f6614cb2565b5b9250929050565b6000806000806060858703121561521857615217614b57565b5b600061522687828801614be0565b945050602061523787828801614b82565b935050604085013567ffffffffffffffff81111561525857615257614b5c565b5b615264878288016151a8565b925092505092959194509250565b600081519050919050565b600082825260208201905092915050565b6000819050602082019050919050565b6152a781614b61565b82525050565b60006152b9838361529e565b60208301905092915050565b6000602082019050919050565b60006152dd82615272565b6152e7818561527d565b93506152f28361528e565b8060005b8381101561532357815161530a88826152ad565b9750615315836152c5565b9250506001810190506152f6565b5085935050505092915050565b6000602082019050818103600083015261534a81846152d2565b905092915050565b600081519050919050565b600082825260208201905092915050565b6000819050602082019050919050565b61538781614bb7565b82525050565b6000615399838361537e565b60208301905092915050565b6000602082019050919050565b60006153bd82615352565b6153c7818561535d565b93506153d28361536e565b8060005b838110156154035781516153ea888261538d565b97506153f5836153a5565b9250506001810190506153d6565b5085935050505092915050565b600060a0820190506154256000830188614e89565b6154326020830187614e89565b61543f6040830186615179565b61544c60608301856150a4565b818103608083015261545e81846153b2565b90509695505050505050565b7f4e487b7100000000000000000000000000000000000000000000000000000000600052602260045260246000fd5b600060028204905060018216806154b157607f821691505b6020821081036154c4576154c361546a565b5b50919050565b60006040820190506154df600083018561513b565b6154ec602083018461513b565b9392505050565b7f4e487b7100000000000000000000000000000000000000000000000000000000600052603260045260246000fd5b7f4e487b7100000000000000000000000000000000000000000000000000000000600052601160045260246000fd5b600061555c82614b61565b91507fffffffffffffffffffffffffffffffffffffffffffffffffffffffffffffffff820361558e5761558d615522565b5b600182019050919050565b60006040820190506155ae600083018561513b565b81810360208301526155c081846152d2565b90509392505050565b600081519050919050565b600081905092915050565b60005b838110156155fd5780820151818401526020810190506155e2565b60008484015250505050565b6000615614826155c9565b61561e81856155d4565b935061562e8185602086016155df565b80840191505092915050565b60006156468284615609565b915081905092915050565b600061565c82614b61565b915061566783614b61565b925082820390508181111561567f5761567e615522565b5b92915050565b600061569082614b61565b915061569b83614b61565b92508282026156a981614b61565b915082820484148315176156c0576156bf615522565b5b5092915050565b60006156d282614b61565b91506156dd83614b61565b92508282019050808211156156f5576156f4615522565b5b92915050565b7f4e487b7100000000000000000000000000000000000000000000000000000000600052601260045260246000fd5b600061573582614b61565b915061574083614b61565b9250826157505761574f6156fb565b5b828204905092915050565b600060a082019050615770600083018861513b565b61577d6020830187614e89565b61578a6040830186614a95565b6157976060830185614a95565b6157a46080830184614a95565b9695505050505050565b50565b60006157be6000836155d4565b91506157c9826157ae565b600082019050919050565b60006157df826157b1565b9150819050919050565b60006158046157ff6157fa84614e71565b614eb3565b614b61565b9050919050565b615814816157e9565b82525050565b600060608201905061582f60008301866150a4565b61583c602083018561580b565b615849604083018461580b565b949350505050565b600061585c82614e71565b915061586783614e71565b925082820190506bffffffffffffffffffffffff81111561588b5761588a615522565b5b92915050565b600061589c82614e71565b91506158a783614e71565b925082820390506bffffffffffffffffffffffff8111156158cb576158ca615522565b5b92915050565b60006040820190506158e660008301856150a4565b6158f3602083018461580b565b9392505050565b61590381614a89565b811461590e57600080fd5b50565b600081519050615920816158fa565b92915050565b60006020828403121561593c5761593b614b57565b5b600061594a84828501615911565b91505092915050565b600082825260208201905092915050565b7f4d7573742062652070726f706f736564206f776e657200000000000000000000600082015250565b600061599a601683615953565b91506159a582615964565b602082019050919050565b600060208201905081810360008301526159c98161598d565b9050919050565b60006159db82614edf565b9050919050565b6159eb816159d0565b82525050565b6000604082019050615a0660008301856159e2565b615a13602083018461513b565b9392505050565b6000604082019050615a2f600083018561513b565b615a3c60208301846150a4565b9392505050565b600080fd5b600080fd5b600080fd5b60008083356001602003843603038112615a6f57615a6e615a43565b5b80840192508235915067ffffffffffffffff821115615a9157615a90615a48565b5b602083019250600182023603831315615aad57615aac615a4d565b5b509250929050565b615abe81614a6a565b8114615ac957600080fd5b50565b600081359050615adb81615ab5565b92915050565b600060208284031215615af757615af6614b57565b5b6000615b0584828501615acc565b91505092915050565b60008190508160005260206000209050919050565b60006020601f8301049050919050565b600082821b905092915050565b600060088302615b707fffffffffffffffffffffffffffffffffffffffffffffffffffffffffffffffff82615b33565b615b7a8683615b33565b95508019841693508086168417925050509392505050565b6000615bad615ba8615ba384614b61565b614eb3565b614b61565b9050919050565b6000819050919050565b615bc783615b92565b615bdb615bd382615bb4565b848454615b40565b825550505050565b600090565b615bf0615be3565b615bfb818484615bbe565b505050565b5b81811015615c1f57615c14600082615be8565b600181019050615c01565b5050565b601f821115615c6457615c3581615b0e565b615c3e84615b23565b81016020851015615c4d578190505b615c61615c5985615b23565b830182615c00565b50505b505050565b600082821c905092915050565b6000615c8760001984600802615c69565b1980831691505092915050565b6000615ca08383615c76565b9150826002028217905092915050565b615cb9826155c9565b67ffffffffffffffff811115615cd257615cd1614c0b565b5b615cdc8254615499565b615ce7828285615c23565b600060209050601f831160018114615d1a5760008415615d08578287015190505b615d128582615c94565b865550615d7a565b601f198416615d2886615b0e565b60005b82811015615d5057848901518255600182019150602085019450602081019050615d2b565b86831015615d6d5784890151615d69601f891682615c76565b8355505b6001600288020188555050505b505050505050565b615d8b81614a4d565b8114615d9657600080fd5b50565b600081359050615da881615d82565b92915050565b600060208284031215615dc457615dc3614b57565b5b6000615dd284828501615d99565b91505092915050565b600082825260208201905092915050565b6000615df7826155c9565b615e018185615ddb565b9350615e118185602086016155df565b615e1a81614bfa565b840191505092915050565b600060c082019050615e3a600083018961513b565b615e47602083018861513b565b615e546040830187614a5b565b615e616060830186614a7a565b615e6e6080830185614a7a565b81810360a0830152615e808184615dec565b9050979650505050505050565b60008160601b9050919050565b6000615ea582615e8d565b9050919050565b6000615eb782615e9a565b9050919050565b615ecf615eca82614bb7565b615eac565b82525050565b6000819050919050565b6000819050919050565b615efa615ef582615ed5565b615edf565b82525050565b60008160c01b9050919050565b6000615f1882615f00565b9050919050565b615f30615f2b82615165565b615f0d565b82525050565b6000615f428287615ebe565b601482019150615f528286615ee9565b602082019150615f628285615ebe565b601482019150615f728284615f1f565b60088201915081905095945050505050565b6000615f8f82615165565b9150615f9a83615165565b9250828201905067ffffffffffffffff811115615fba57615fb9615522565b5b92915050565b6000604082019050615fd560008301856150a4565b615fe260208301846150a4565b9392505050565b7f4e487b7100000000000000000000000000000000000000000000000000000000600052603160045260246000fd5b60008151905061602781614b6b565b92915050565b60006020828403121561604357616042614b57565b5b600061605184828501616018565b91505092915050565b600060408201905061606f60008301856150a4565b61607c602083018461513b565b9392505050565b600081519050919050565b600061609982616083565b6160a38185615953565b93506160b38185602086016155df565b6160bc81614bfa565b840191505092915050565b600060408201905081810360008301526160e1818561608e565b90506160f0602083018461513b565b9392505050565b7f4f6e6c792063616c6c61626c65206279206f776e657200000000000000000000600082015250565b600061612d601683615953565b9150616138826160f7565b602082019050919050565b6000602082019050818103600083015261615c81616120565b9050919050565b600082905092915050565b60007fffffffff0000000000000000000000000000000000000000000000000000000082169050919050565b60006161a68383616163565b826161b1813561616e565b925060048210156161f1576161ec7fffffffff0000000000000000000000000000000000000000000000000000000083600403600802615b33565b831692505b505092915050565b600080fd5b600080fd5b60008085851115616217576162166161f9565b5b83861115616228576162276161fe565b5b6001850283019150848603905094509492505050565b600080fd5b600081359050616252816158fa565b92915050565b60006020828403121561626e5761626d61623e565b5b6162786020614c6b565b9050600061628884828501616243565b60008301525092915050565b6000602082840312156162aa576162a9614b57565b5b60006162b884828501616258565b91505092915050565b6162ca81614a89565b82525050565b6020820160008201516162e660008501826162c1565b50505050565b600060208201905061630160008301846162d0565b92915050565b7f43616e6e6f74207472616e7366657220746f2073656c66000000000000000000600082015250565b600061633d601783615953565b915061634882616307565b602082019050919050565b6000602082019050818103600083015261636c81616330565b9050919050565b7f4e487b7100000000000000000000000000000000000000000000000000000000600052605160045260246000fdfea2646970667358221220818fdb79d88533a92ab61b37db7f9f686e85cb55fcdad2c887a1a6183645e61964736f6c63430008130033","linkReferences":{}},"methodIdentifiers":{"LINK()":"1b6b6d23","LINK_NATIVE_FEED()":"72e9d565","MAX_CONSUMERS()":"64d51a2a","acceptOwnership()":"79ba5097","acceptSubscriptionOwnerTransfer(uint256)":"b2a7cac5","addConsumer(uint256,address)":"bec4c08c","cancelSubscription(uint256,address)":"0ae09540","consumerIsAdded(uint256,address)":"953e9c75","createSubscription()":"a21a23e4","fulfillRandomWords(uint256,address)":"808974ff","fulfillRandomWordsWithOverride(uint256,address,uint256[])":"08e3898e","fundSubscription(uint256,uint256)":"115e3c0d","fundSubscriptionWithNative(uint256)":"95b55cfc","getActiveSubscriptionIds(uint256,uint256)":"aefb212f","getSubscription(uint256)":"dc311dd3","i_base_fee()":"1eebc117","i_gas_price()":"dcab3dcf","i_wei_per_unit_link()":"13478329","onTokenTransfer(address,uint256,bytes)":"a4c0ed36","owner()":"8da5cb5b","ownerCancelSubscription(uint256)":"aa433aff","pendingRequestExists(uint256)":"41af6c87","recoverFunds(address)":"e72f6e30","recoverNativeFunds(address)":"8402595e","removeConsumer(uint256,address)":"cb631797","requestRandomWords((bytes32,uint256,uint16,uint32,uint32,bytes))":"9b1c385e","requestSubscriptionOwnerTransfer(uint256,address)":"dac83d29","s_config()":"088070f5","s_currentSubNonce()":"9d40a6fd","s_totalBalance()":"86fe91c7","s_totalNativeBalance()":"18e3dd27","setConfig()":"8b673e7a","setLINKAndLINKNativeFeed(address,address)":"65982744","transferOwnership(address)":"f2fde38b","withdraw(address)":"51cff8d9","withdrawNative(address)":"2f622e6b"},"id":18}